{
  "contractName": "EthealNormalSale",
  "abi": [
    {
      "constant": true,
      "inputs": [],
      "name": "softCapTime",
      "outputs": [
        {
          "name": "",
          "type": "uint256"
        }
      ],
      "payable": false,
      "stateMutability": "view",
      "type": "function"
    },
    {
      "constant": true,
      "inputs": [
        {
          "name": "",
          "type": "address"
        }
      ],
      "name": "stakes",
      "outputs": [
        {
          "name": "",
          "type": "uint256"
        }
      ],
      "payable": false,
      "stateMutability": "view",
      "type": "function"
    },
    {
      "constant": true,
      "inputs": [],
      "name": "rate",
      "outputs": [
        {
          "name": "",
          "type": "uint256"
        }
      ],
      "payable": false,
      "stateMutability": "view",
      "type": "function"
    },
    {
      "constant": true,
      "inputs": [],
      "name": "endTime",
      "outputs": [
        {
          "name": "",
          "type": "uint256"
        }
      ],
      "payable": false,
      "stateMutability": "view",
      "type": "function"
    },
    {
      "constant": true,
      "inputs": [],
      "name": "cap",
      "outputs": [
        {
          "name": "",
          "type": "uint256"
        }
      ],
      "payable": false,
      "stateMutability": "view",
      "type": "function"
    },
    {
      "constant": false,
      "inputs": [],
      "name": "unpause",
      "outputs": [],
      "payable": false,
      "stateMutability": "nonpayable",
      "type": "function"
    },
    {
      "constant": true,
      "inputs": [],
      "name": "weiRaised",
      "outputs": [
        {
          "name": "",
          "type": "uint256"
        }
      ],
      "payable": false,
      "stateMutability": "view",
      "type": "function"
    },
    {
      "constant": true,
      "inputs": [
        {
          "name": "",
          "type": "address"
        }
      ],
      "name": "contributions",
      "outputs": [
        {
          "name": "",
          "type": "uint256"
        }
      ],
      "payable": false,
      "stateMutability": "view",
      "type": "function"
    },
    {
      "constant": true,
      "inputs": [],
      "name": "hasStarted",
      "outputs": [
        {
          "name": "",
          "type": "bool"
        }
      ],
      "payable": false,
      "stateMutability": "view",
      "type": "function"
    },
    {
      "constant": true,
      "inputs": [
        {
          "name": "",
          "type": "uint256"
        }
      ],
      "name": "contributorsKeys",
      "outputs": [
        {
          "name": "",
          "type": "address"
        }
      ],
      "payable": false,
      "stateMutability": "view",
      "type": "function"
    },
    {
      "constant": false,
      "inputs": [],
      "name": "finalize",
      "outputs": [],
      "payable": false,
      "stateMutability": "nonpayable",
      "type": "function"
    },
    {
      "constant": true,
      "inputs": [],
      "name": "tokenSold",
      "outputs": [
        {
          "name": "",
          "type": "uint256"
        }
      ],
      "payable": false,
      "stateMutability": "view",
      "type": "function"
    },
    {
      "constant": true,
      "inputs": [],
      "name": "wallet",
      "outputs": [
        {
          "name": "",
          "type": "address"
        }
      ],
      "payable": false,
      "stateMutability": "view",
      "type": "function"
    },
    {
      "constant": true,
      "inputs": [],
      "name": "paused",
      "outputs": [
        {
          "name": "",
          "type": "bool"
        }
      ],
      "payable": false,
      "stateMutability": "view",
      "type": "function"
    },
    {
      "constant": true,
      "inputs": [],
      "name": "startTime",
      "outputs": [
        {
          "name": "",
          "type": "uint256"
        }
      ],
      "payable": false,
      "stateMutability": "view",
      "type": "function"
    },
    {
      "constant": true,
      "inputs": [],
      "name": "ethealController",
      "outputs": [
        {
          "name": "",
          "type": "address"
        }
      ],
      "payable": false,
      "stateMutability": "view",
      "type": "function"
    },
    {
      "constant": false,
      "inputs": [],
      "name": "pause",
      "outputs": [],
      "payable": false,
      "stateMutability": "nonpayable",
      "type": "function"
    },
    {
      "constant": true,
      "inputs": [],
      "name": "isFinalized",
      "outputs": [
        {
          "name": "",
          "type": "bool"
        }
      ],
      "payable": false,
      "stateMutability": "view",
      "type": "function"
    },
    {
      "constant": true,
      "inputs": [],
      "name": "owner",
      "outputs": [
        {
          "name": "",
          "type": "address"
        }
      ],
      "payable": false,
      "stateMutability": "view",
      "type": "function"
    },
    {
      "constant": true,
      "inputs": [],
      "name": "softCap",
      "outputs": [
        {
          "name": "",
          "type": "uint256"
        }
      ],
      "payable": false,
      "stateMutability": "view",
      "type": "function"
    },
    {
      "constant": true,
      "inputs": [],
      "name": "whitelist",
      "outputs": [
        {
          "name": "",
          "type": "address"
        }
      ],
      "payable": false,
      "stateMutability": "view",
      "type": "function"
    },
    {
      "constant": true,
      "inputs": [],
      "name": "tokenBalance",
      "outputs": [
        {
          "name": "",
          "type": "uint256"
        }
      ],
      "payable": false,
      "stateMutability": "view",
      "type": "function"
    },
    {
      "constant": true,
      "inputs": [],
      "name": "minContribution",
      "outputs": [
        {
          "name": "",
          "type": "uint256"
        }
      ],
      "payable": false,
      "stateMutability": "view",
      "type": "function"
    },
    {
      "constant": true,
      "inputs": [
        {
          "name": "",
          "type": "address"
        }
      ],
      "name": "bonusExtra",
      "outputs": [
        {
          "name": "",
          "type": "uint256"
        }
      ],
      "payable": false,
      "stateMutability": "view",
      "type": "function"
    },
    {
      "constant": true,
      "inputs": [],
      "name": "softCapClose",
      "outputs": [
        {
          "name": "",
          "type": "uint256"
        }
      ],
      "payable": false,
      "stateMutability": "view",
      "type": "function"
    },
    {
      "constant": true,
      "inputs": [],
      "name": "whitelistThreshold",
      "outputs": [
        {
          "name": "",
          "type": "uint256"
        }
      ],
      "payable": false,
      "stateMutability": "view",
      "type": "function"
    },
    {
      "constant": true,
      "inputs": [],
      "name": "promoTokenController",
      "outputs": [
        {
          "name": "",
          "type": "address"
        }
      ],
      "payable": false,
      "stateMutability": "view",
      "type": "function"
    },
    {
      "constant": true,
      "inputs": [],
      "name": "deposit",
      "outputs": [
        {
          "name": "",
          "type": "address"
        }
      ],
      "payable": false,
      "stateMutability": "view",
      "type": "function"
    },
    {
      "constant": false,
      "inputs": [
        {
          "name": "newOwner",
          "type": "address"
        }
      ],
      "name": "transferOwnership",
      "outputs": [],
      "payable": false,
      "stateMutability": "nonpayable",
      "type": "function"
    },
    {
      "constant": true,
      "inputs": [],
      "name": "token",
      "outputs": [
        {
          "name": "",
          "type": "address"
        }
      ],
      "payable": false,
      "stateMutability": "view",
      "type": "function"
    },
    {
      "inputs": [
        {
          "name": "_ethealController",
          "type": "address"
        },
        {
          "name": "_startTime",
          "type": "uint256"
        },
        {
          "name": "_endTime",
          "type": "uint256"
        },
        {
          "name": "_minContribution",
          "type": "uint256"
        },
        {
          "name": "_rate",
          "type": "uint256"
        },
        {
          "name": "_softCap",
          "type": "uint256"
        },
        {
          "name": "_softCapTime",
          "type": "uint256"
        },
        {
          "name": "_cap",
          "type": "uint256"
        },
        {
          "name": "_wallet",
          "type": "address"
        }
      ],
      "payable": false,
      "stateMutability": "nonpayable",
      "type": "constructor"
    },
    {
      "payable": true,
      "stateMutability": "payable",
      "type": "fallback"
    },
    {
      "anonymous": false,
      "inputs": [
        {
          "indexed": true,
          "name": "_claimer",
          "type": "address"
        },
        {
          "indexed": true,
          "name": "_beneficiary",
          "type": "address"
        },
        {
          "indexed": false,
          "name": "_amount",
          "type": "uint256"
        }
      ],
      "name": "TokenClaimed",
      "type": "event"
    },
    {
      "anonymous": false,
      "inputs": [
        {
          "indexed": true,
          "name": "_purchaser",
          "type": "address"
        },
        {
          "indexed": true,
          "name": "_beneficiary",
          "type": "address"
        },
        {
          "indexed": false,
          "name": "_value",
          "type": "uint256"
        },
        {
          "indexed": false,
          "name": "_amount",
          "type": "uint256"
        },
        {
          "indexed": false,
          "name": "_participants",
          "type": "uint256"
        },
        {
          "indexed": false,
          "name": "_weiRaised",
          "type": "uint256"
        }
      ],
      "name": "TokenPurchase",
      "type": "event"
    },
    {
      "anonymous": false,
      "inputs": [
        {
          "indexed": false,
          "name": "_closeTime",
          "type": "uint256"
        }
      ],
      "name": "TokenSoftCapReached",
      "type": "event"
    },
    {
      "anonymous": false,
      "inputs": [],
      "name": "TokenHardCapReached",
      "type": "event"
    },
    {
      "anonymous": false,
      "inputs": [],
      "name": "Finalized",
      "type": "event"
    },
    {
      "anonymous": false,
      "inputs": [],
      "name": "Pause",
      "type": "event"
    },
    {
      "anonymous": false,
      "inputs": [],
      "name": "Unpause",
      "type": "event"
    },
    {
      "anonymous": false,
      "inputs": [
        {
          "indexed": true,
          "name": "previousOwner",
          "type": "address"
        },
        {
          "indexed": true,
          "name": "newOwner",
          "type": "address"
        }
      ],
      "name": "OwnershipTransferred",
      "type": "event"
    },
    {
      "anonymous": false,
      "inputs": [
        {
          "indexed": true,
          "name": "purchaser",
          "type": "address"
        },
        {
          "indexed": true,
          "name": "beneficiary",
          "type": "address"
        },
        {
          "indexed": false,
          "name": "value",
          "type": "uint256"
        },
        {
          "indexed": false,
          "name": "amount",
          "type": "uint256"
        }
      ],
      "name": "TokenPurchase",
      "type": "event"
    },
    {
      "constant": false,
      "inputs": [
        {
          "name": "_minContribution",
          "type": "uint256"
        }
      ],
      "name": "setMinContribution",
      "outputs": [],
      "payable": false,
      "stateMutability": "nonpayable",
      "type": "function"
    },
    {
      "constant": false,
      "inputs": [
        {
          "name": "_softCap",
          "type": "uint256"
        },
        {
          "name": "_softCapTime",
          "type": "uint256"
        },
        {
          "name": "_cap",
          "type": "uint256"
        }
      ],
      "name": "setCaps",
      "outputs": [],
      "payable": false,
      "stateMutability": "nonpayable",
      "type": "function"
    },
    {
      "constant": false,
      "inputs": [
        {
          "name": "_startTime",
          "type": "uint256"
        },
        {
          "name": "_endTime",
          "type": "uint256"
        }
      ],
      "name": "setTimes",
      "outputs": [],
      "payable": false,
      "stateMutability": "nonpayable",
      "type": "function"
    },
    {
      "constant": false,
      "inputs": [
        {
          "name": "_rate",
          "type": "uint256"
        }
      ],
      "name": "setRate",
      "outputs": [],
      "payable": false,
      "stateMutability": "nonpayable",
      "type": "function"
    },
    {
      "constant": false,
      "inputs": [
        {
          "name": "_addr",
          "type": "address"
        }
      ],
      "name": "setPromoTokenController",
      "outputs": [],
      "payable": false,
      "stateMutability": "nonpayable",
      "type": "function"
    },
    {
      "constant": false,
      "inputs": [
        {
          "name": "_whitelist",
          "type": "address"
        },
        {
          "name": "_threshold",
          "type": "uint256"
        }
      ],
      "name": "setWhitelist",
      "outputs": [],
      "payable": false,
      "stateMutability": "nonpayable",
      "type": "function"
    },
    {
      "constant": false,
      "inputs": [
        {
          "name": "_deposit",
          "type": "address"
        }
      ],
      "name": "setDeposit",
      "outputs": [],
      "payable": false,
      "stateMutability": "nonpayable",
      "type": "function"
    },
    {
      "constant": false,
      "inputs": [
        {
          "name": "_beneficiary",
          "type": "address"
        }
      ],
      "name": "buyTokens",
      "outputs": [],
      "payable": true,
      "stateMutability": "payable",
      "type": "function"
    },
    {
      "constant": false,
      "inputs": [
        {
          "name": "_beneficiary",
          "type": "address"
        },
        {
          "name": "_whitelistSign",
          "type": "bytes"
        }
      ],
      "name": "buyTokens",
      "outputs": [],
      "payable": true,
      "stateMutability": "payable",
      "type": "function"
    },
    {
      "constant": false,
      "inputs": [
        {
          "name": "_beneficiary",
          "type": "address"
        },
        {
          "name": "_time",
          "type": "uint256"
        },
        {
          "name": "_whitelistSign",
          "type": "bytes"
        }
      ],
      "name": "depositEth",
      "outputs": [],
      "payable": true,
      "stateMutability": "payable",
      "type": "function"
    },
    {
      "constant": false,
      "inputs": [
        {
          "name": "_beneficiary",
          "type": "address"
        },
        {
          "name": "_amount",
          "type": "uint256"
        },
        {
          "name": "_time",
          "type": "uint256"
        },
        {
          "name": "_whitelistSign",
          "type": "bytes"
        }
      ],
      "name": "depositOffchain",
      "outputs": [],
      "payable": false,
      "stateMutability": "nonpayable",
      "type": "function"
    },
    {
      "constant": true,
      "inputs": [],
      "name": "hasEnded",
      "outputs": [
        {
          "name": "",
          "type": "bool"
        }
      ],
      "payable": false,
      "stateMutability": "view",
      "type": "function"
    },
    {
      "constant": false,
      "inputs": [],
      "name": "claimToken",
      "outputs": [],
      "payable": false,
      "stateMutability": "nonpayable",
      "type": "function"
    },
    {
      "constant": false,
      "inputs": [
        {
          "name": "_beneficiary",
          "type": "address"
        }
      ],
      "name": "claimTokenFor",
      "outputs": [],
      "payable": false,
      "stateMutability": "nonpayable",
      "type": "function"
    },
    {
      "constant": false,
      "inputs": [
        {
          "name": "_beneficiaries",
          "type": "address[]"
        }
      ],
      "name": "claimManyTokenFor",
      "outputs": [],
      "payable": false,
      "stateMutability": "nonpayable",
      "type": "function"
    },
    {
      "constant": false,
      "inputs": [
        {
          "name": "_addr",
          "type": "address"
        },
        {
          "name": "_value",
          "type": "uint256"
        }
      ],
      "name": "setPromoBonus",
      "outputs": [],
      "payable": false,
      "stateMutability": "nonpayable",
      "type": "function"
    },
    {
      "constant": false,
      "inputs": [
        {
          "name": "_addr",
          "type": "address"
        },
        {
          "name": "_bonus",
          "type": "uint256"
        }
      ],
      "name": "setBonusExtra",
      "outputs": [],
      "payable": false,
      "stateMutability": "nonpayable",
      "type": "function"
    },
    {
      "constant": false,
      "inputs": [
        {
          "name": "_addr",
          "type": "address[]"
        },
        {
          "name": "_bonus",
          "type": "uint256"
        }
      ],
      "name": "setManyBonusExtra",
      "outputs": [],
      "payable": false,
      "stateMutability": "nonpayable",
      "type": "function"
    },
    {
      "constant": true,
      "inputs": [
        {
          "name": "_addr",
          "type": "address"
        },
        {
          "name": "_size",
          "type": "uint256"
        }
      ],
      "name": "getBonusNow",
      "outputs": [
        {
          "name": "",
          "type": "uint256"
        }
      ],
      "payable": false,
      "stateMutability": "view",
      "type": "function"
    },
    {
      "constant": true,
      "inputs": [
        {
          "name": "_addr",
          "type": "address"
        },
        {
          "name": "_size",
          "type": "uint256"
        },
        {
          "name": "_time",
          "type": "uint256"
        }
      ],
      "name": "getBonus",
      "outputs": [
        {
          "name": "_bonus",
          "type": "uint256"
        }
      ],
      "payable": false,
      "stateMutability": "view",
      "type": "function"
    },
    {
      "constant": true,
      "inputs": [],
      "name": "howMuchCanIContributeNow",
      "outputs": [
        {
          "name": "",
          "type": "uint256"
        }
      ],
      "payable": false,
      "stateMutability": "view",
      "type": "function"
    },
    {
      "constant": true,
      "inputs": [
        {
          "name": "_beneficiary",
          "type": "address"
        }
      ],
      "name": "howMuchCanXContributeNow",
      "outputs": [
        {
          "name": "",
          "type": "uint256"
        }
      ],
      "payable": false,
      "stateMutability": "view",
      "type": "function"
    },
    {
      "constant": true,
      "inputs": [
        {
          "name": "_time",
          "type": "uint256"
        }
      ],
      "name": "getSaleDay",
      "outputs": [
        {
          "name": "",
          "type": "uint256"
        }
      ],
      "payable": false,
      "stateMutability": "view",
      "type": "function"
    },
    {
      "constant": true,
      "inputs": [],
      "name": "getSaleDayNow",
      "outputs": [
        {
          "name": "",
          "type": "uint256"
        }
      ],
      "payable": false,
      "stateMutability": "view",
      "type": "function"
    },
    {
      "constant": true,
      "inputs": [
        {
          "name": "_time",
          "type": "uint256"
        }
      ],
      "name": "getSaleHour",
      "outputs": [
        {
          "name": "",
          "type": "uint256"
        }
      ],
      "payable": false,
      "stateMutability": "view",
      "type": "function"
    },
    {
      "constant": true,
      "inputs": [],
      "name": "getSaleHourNow",
      "outputs": [
        {
          "name": "",
          "type": "uint256"
        }
      ],
      "payable": false,
      "stateMutability": "view",
      "type": "function"
    },
    {
      "constant": true,
      "inputs": [],
      "name": "getContributorsCount",
      "outputs": [
        {
          "name": "",
          "type": "uint256"
        }
      ],
      "payable": false,
      "stateMutability": "view",
      "type": "function"
    },
    {
      "constant": true,
      "inputs": [
        {
          "name": "_pending",
          "type": "bool"
        },
        {
          "name": "_claimed",
          "type": "bool"
        }
      ],
      "name": "getContributors",
      "outputs": [
        {
          "name": "contributors",
          "type": "address[]"
        }
      ],
      "payable": false,
      "stateMutability": "view",
      "type": "function"
    },
    {
      "constant": true,
      "inputs": [],
      "name": "getHealBalance",
      "outputs": [
        {
          "name": "",
          "type": "uint256"
        }
      ],
      "payable": false,
      "stateMutability": "view",
      "type": "function"
    }
  ],
  "bytecode": "0x60606040526006805460a060020a61ffff02191690556102bc600955690170a0f5040e50400000600a5562069780600b55690307345d9b5a55f00000600d5567016345785d8a0000601055670de0b6b3a764000060125534156200006257600080fd5b604051610120806200230483398101604052808051919060200180519190602001805191906020018051919060200180519190602001805191906020018051919060200180519190602001805191508290508888878442841015620000c657600080fd5b83831015620000d457600080fd5b60008211620000e257600080fd5b600160a060020a0381161515620000f857600080fd5b60019390935560029190915560045560038054600160a060020a0319908116600160a060020a03938416179091556006805490911633909216919091179055600081116200014557600080fd5b600755600160a060020a03891615156200015e57600080fd5b60088054600160a060020a031916600160a060020a038b16179055818411156200018757600080fd5b50600a92909255600b55600d5560095560105550505061215780620001ad6000396000f3006060604052600436106102a55763ffffffff60e060020a6000350416630bf5361381146102b05780630e288064146102e45780631302d03a1461030657806314cf12d51461032857806316934fc41461033b57806320f320d01461035a5780632109cf801461037c57806322434836146103d657806323867979146103ef5780632674899b146104025780632c4e722e146104185780633197cbb61461042b578063332e1a811461043e57806334fcf437146104ae578063355274ea146104c45780633b80938e146104d75780633f4ba83a146104f65780634042b66f1461050957806342e94c901461051c5780634451d89f1461053b57806344691f7e1461054e57806344a2d0d214610575578063473b0d46146105a75780634bb278f3146105bd578063519ee19e146105d0578063521eb273146105e35780635549563c146105f657806356afd6e3146106145780635c975abb1461062757806376cfc3661461063a57806378e97925146106a257806379544754146106b557806379caf670146106da5780638456cb59146106ed5780638d4e4083146107005780638da5cb5b14610713578063906a26e01461072657806393e59dc1146107395780639e1a4d191461074c578063a7a957ff1461075f578063aaffadf314610772578063ab01ba4914610785578063ad1be7c1146107a4578063b3746849146107b7578063b56797fd1461080b578063b5dadb171461081e578063bdcbd9d114610831578063c007577214610850578063c04ecdb81461086f578063c7efa68914610882578063c83261bd14610898578063caefb79e146108b7578063d0e30db0146108d3578063ec8ac4d8146108e6578063ecb70fb7146108fa578063f2fde38b1461090d578063fc0c546a1461092c578063fe6129d51461093f578063feed556114610961575b6102ae33610974565b005b34156102bb57600080fd5b6102d2600160a060020a03600435166024356109a8565b60405190815260200160405180910390f35b34156102ef57600080fd5b6102ae6024600480358281019291013590356109bc565b341561031157600080fd5b6102ae600160a060020a0360043516602435610a19565b341561033357600080fd5b6102d2610a72565b341561034657600080fd5b6102d2600160a060020a0360043516610a78565b341561036557600080fd5b6102ae600160a060020a0360043516602435610a8a565b6102ae60048035600160a060020a03169060248035919060649060443590810190830135806020601f82018190048102016040519081016040528181529291906020840183838082843750949650610ad695505050505050565b34156103e157600080fd5b6102ae600435602435610b19565b34156103fa57600080fd5b6102d2610b5e565b341561040d57600080fd5b6102d2600435610c39565b341561042357600080fd5b6102d2610c8d565b341561043657600080fd5b6102d2610c93565b341561044957600080fd5b61045b60043515156024351515610c99565b60405160208082528190810183818151815260200191508051906020019060200280838360005b8381101561049a578082015183820152602001610482565b505050509050019250505060405180910390f35b34156104b957600080fd5b6102ae600435610e49565b34156104cf57600080fd5b6102d2610e76565b34156104e257600080fd5b6102ae600160a060020a0360043516610e7c565b341561050157600080fd5b6102ae610ec6565b341561051457600080fd5b6102d2610f45565b341561052757600080fd5b6102d2600160a060020a0360043516610f4b565b341561054657600080fd5b6102ae610f5d565b341561055957600080fd5b610561610f80565b604051901515815260200160405180910390f35b341561058057600080fd5b61058b600435610f89565b604051600160a060020a03909116815260200160405180910390f35b34156105b257600080fd5b6102ae600435610fb1565b34156105c857600080fd5b6102ae610fd1565b34156105db57600080fd5b6102d2611071565b34156105ee57600080fd5b61058b611077565b341561060157600080fd5b6102ae6004803560248101910135611086565b341561061f57600080fd5b6102d26110d9565b341561063257600080fd5b6105616110e9565b341561064557600080fd5b6102ae60048035600160a060020a03169060248035916044359160849060643590810190830135806020601f820181900481020160405190810160405281815292919060208401838380828437509496506110f995505050505050565b34156106ad57600080fd5b6102d261113e565b34156106c057600080fd5b6102d2600160a060020a0360043516602435604435611144565b34156106e557600080fd5b61058b6112e6565b34156106f857600080fd5b6102ae6112f5565b341561070b57600080fd5b610561611379565b341561071e57600080fd5b61058b611389565b341561073157600080fd5b6102d2611398565b341561074457600080fd5b61058b61139e565b341561075757600080fd5b6102d26113ad565b341561076a57600080fd5b6102d26113b3565b341561077d57600080fd5b6102d26113be565b341561079057600080fd5b6102d2600160a060020a03600435166113c4565b34156107af57600080fd5b6102d26113d6565b6102ae60048035600160a060020a03169060446024803590810190830135806020601f820181900481020160405190810160405281815292919060208401838380828437509496506113dc95505050505050565b341561081657600080fd5b6102d2611403565b341561082957600080fd5b6102d261140e565b341561083c57600080fd5b6102d2600160a060020a0360043516611414565b341561085b57600080fd5b6102ae600160a060020a036004351661146b565b341561087a57600080fd5b61058b6114ca565b341561088d57600080fd5b6102d26004356114d9565b34156108a357600080fd5b6102ae600160a060020a0360043516611509565b34156108c257600080fd5b6102ae60043560243560443561172b565b34156108de57600080fd5b61058b611761565b6102ae600160a060020a0360043516610974565b341561090557600080fd5b610561611770565b341561091857600080fd5b6102ae600160a060020a0360043516611796565b341561093757600080fd5b61058b611831565b341561094a57600080fd5b6102ae600160a060020a0360043516602435611840565b341561096c57600080fd5b6102d2611912565b60065460a060020a900460ff161561098b57600080fd5b6109a5813442602060405190810160405260008152611918565b50565b60006109b5838342611144565b9392505050565b60065460009033600160a060020a039081169116146109da57600080fd5b5060005b82811015610a1357610a0b8484838181106109f557fe5b90506020020135600160a060020a031683610a8a565b6001016109de565b50505050565b60065433600160a060020a03908116911614610a3457600080fd5b600160a060020a03821615610a6c576011805473ffffffffffffffffffffffffffffffffffffffff1916600160a060020a0384161790555b60125550565b600b5481565b60146020526000908152604090205481565b60065433600160a060020a03908116911614610aa557600080fd5b600160a060020a0382161515610aba57600080fd5b600160a060020a03909116600090815260176020526040902055565b60065460a060020a900460ff1615610aed57600080fd5b60135433600160a060020a03908116911614610b0857600080fd5b610b1483348484611918565b505050565b60065433600160a060020a03908116911614610b3457600080fd5b80821115610b4157600080fd5b610b49611770565b15610b5357600080fd5b600191909155600255565b600854600090600160a060020a03166303d756cb82604051602001526040518163ffffffff1660e060020a028152600401602060405180830381600087803b1515610ba857600080fd5b6102c65a03f11515610bb957600080fd5b50505060405180519050600160a060020a03166370a082313060006040516020015260405160e060020a63ffffffff8416028152600160a060020a039091166004820152602401602060405180830381600087803b1515610c1957600080fd5b6102c65a03f11515610c2a57600080fd5b50505060405180519150505b90565b6001546000908190831115610c8357610c806001610c74610e10610c686001548861199b90919063ffffffff16565b9063ffffffff6119ad16565b9063ffffffff6119c416565b90505b8091505b50919050565b60095481565b60025481565b610ca16120dc565b600080610cac6120dc565b60185460009350839250604051805910610cc35750595b90808252806020026020018201604052509050600092505b601854831015610dce57858015610d295750600060146000601886815481101515610d0257fe5b6000918252602080832090910154600160a060020a03168352820192909252604001902054115b80610d715750848015610d71575060146000601885815481101515610d4a57fe5b6000918252602080832090910154600160a060020a03168352820192909252604001902054155b15610dc3576018805484908110610d8457fe5b600091825260209091200154600160a060020a0316818381518110610da557fe5b600160a060020a039092166020928302909101909101526001909101905b600190920191610cdb565b81604051805910610ddc5750595b90808252806020026020018201604052509350600092505b81831015610e4057808381518110610e0857fe5b90602001906020020151848481518110610e1e57fe5b600160a060020a03909216602092830290910190910152600190920191610df4565b50505092915050565b60065433600160a060020a03908116911614610e6457600080fd5b60008111610e7157600080fd5b600955565b600d5481565b60065433600160a060020a03908116911614610e9757600080fd5b6013805473ffffffffffffffffffffffffffffffffffffffff1916600160a060020a0392909216919091179055565b60065433600160a060020a03908116911614610ee157600080fd5b60065460a060020a900460ff161515610ef957600080fd5b6006805474ff0000000000000000000000000000000000000000191690557f7805862f689e2f13df9f062ff482ad3ad112aca9e0847911ed832e158c525b3360405160405180910390a1565b60055481565b60156020526000908152604090205481565b60065460a860020a900460ff161515610f7557600080fd5b610f7e33611509565b565b60015442101590565b6018805482908110610f9757fe5b600091825260209091200154600160a060020a0316905081565b60065433600160a060020a03908116911614610fcc57600080fd5b601055565b60065433600160a060020a03908116911614610fec57600080fd5b60065460a860020a900460ff161561100357600080fd5b61100b611770565b151561101657600080fd5b61101e6119d3565b7f6823b073d48d6e3a7d385eeb601452d680e74bb46afe3255a7d778f3a9b1768160405160405180910390a16006805475ff000000000000000000000000000000000000000000191660a860020a179055565b600f5481565b600354600160a060020a031681565b60065460009060a860020a900460ff1615156110a157600080fd5b5060005b81811015610b14576110d18383838181106110bc57fe5b90506020020135600160a060020a0316611509565b6001016110a5565b60006110e433611414565b905090565b60065460a060020a900460ff1681565b60065433600160a060020a0390811691161461111457600080fd5b60065460a060020a900460ff161561112b57600080fd5b61113784848484611ba4565b5050505050565b60015481565b6064600080611152846114d9565b915061115d84610c39565b9050600182116111a45760018111611178576082925061119f565b6005811161118957607d925061119f565b6008811161119a576078925061119f565b607692505b61128e565b600282116111b5576074925061128e565b600382116111c6576073925061128e565b600582116111d7576072925061128e565b600782116111e8576071925061128e565b600982116111f9576070925061128e565b600b821161120a57606f925061128e565b600d821161121b57606e925061128e565b600f821161122c57606c925061128e565b6011821161123d57606b925061128e565b6013821161124e57606a925061128e565b6015821161125f576069925061128e565b60178211611270576068925061128e565b60198211611281576067925061128e565b601b821161128e57606692505b68056bc75e2d6310000085106112a9578260040192506112bf565b678ac7230489e8000085106112bf578260020192505b600160a060020a038616600090815260176020526040902054929092019150509392505050565b600854600160a060020a031681565b60065433600160a060020a0390811691161461131057600080fd5b60065460a060020a900460ff161561132757600080fd5b6006805474ff0000000000000000000000000000000000000000191660a060020a1790557f6985a02210a168e66602d3235cb6db0e70f92b3ba4d376a33c0f3d9434bff62560405160405180910390a1565b60065460a860020a900460ff1681565b600654600160a060020a031681565b600a5481565b601154600160a060020a031681565b600e5481565b60006110e4426114d9565b60105481565b60176020526000908152604090205481565b600c5481565b60065460a060020a900460ff16156113f357600080fd5b6113ff82344284611918565b5050565b60006110e442610c39565b60125481565b600080600160a060020a038316151561142c57600080fd5b611434611770565b80611448575060065460a060020a900460ff165b156114565760009150610c87565b600554600d54610c809163ffffffff61199b16565b60065433600160a060020a0390811691161461148657600080fd5b600160a060020a038116151561149b57600080fd5b6016805473ffffffffffffffffffffffffffffffffffffffff1916600160a060020a0392909216919091179055565b601654600160a060020a031681565b6001546000908190831115610c8357610c806001610c7462015180610c686001548861199b90919063ffffffff16565b60065460009060a860020a900460ff16151561152457600080fd5b60065460a060020a900460ff161561153b57600080fd5b50600160a060020a03811660009081526014602052604081205490811161156157600080fd5b600160a060020a038216600090815260146020526040812055600e5461158d908263ffffffff61199b16565b600e55600854600160a060020a03166393a378da838360405160e060020a63ffffffff8516028152600160a060020a0390921660048301526024820152604401600060405180830381600087803b15156115e657600080fd5b6102c65a03f115156115f757600080fd5b5050600854600160a060020a031690506303d756cb6000604051602001526040518163ffffffff1660e060020a028152600401602060405180830381600087803b151561164357600080fd5b6102c65a03f1151561165457600080fd5b50505060405180519050600160a060020a031663a9059cbb838360006040516020015260405160e060020a63ffffffff8516028152600160a060020a0390921660048301526024820152604401602060405180830381600087803b15156116ba57600080fd5b6102c65a03f115156116cb57600080fd5b5050506040518051905015156116e057600080fd5b81600160a060020a031633600160a060020a03167f4831bdd9dcf3048a28319ce81d3cab7a15366bcf449bc7803a539107440809cc8360405190815260200160405180910390a35050565b60065433600160a060020a0390811691161461174657600080fd5b8083111561175357600080fd5b600a92909255600b55600d55565b601354600160a060020a031681565b600061177a611c94565b806110e457506000600c541180156110e4575050600c54421190565b60065433600160a060020a039081169116146117b157600080fd5b600160a060020a03811615156117c657600080fd5b600654600160a060020a0380831691167f8be0079c531659141344cd1fd0a4f28419497f9722a3daafe3b4186f6b6457e060405160405180910390a36006805473ffffffffffffffffffffffffffffffffffffffff1916600160a060020a0392909216919091179055565b600054600160a060020a031681565b60165460009033600160a060020a039081169116148061186e575060065433600160a060020a039081169116145b151561187957600080fd5b6000821161188657600080fd5b816040519081526020016040519081900390207fbeced09521047d05b8960b7e7bcc1d1292cf3e4b2a6b63f48335cbde5f7545d2146118c65760056118c9565b60065b600160a060020a03841660009081526017602052604090205460ff91909116915081901015610b1457600160a060020a0383166000908152601760205260409020819055505050565b60185490565b600080600160a060020a038616151561193057600080fd5b61193c86868686611ba4565b915061194782611cac565b611957858363ffffffff61199b16565b9050600081111561199357600160a060020a03861681156108fc0282604051600060405180830381858888f19350505050151561199357600080fd5b505050505050565b6000828211156119a757fe5b50900390565b60008082848115156119bb57fe5b04949350505050565b6000828201838110156109b557fe5b60006119dd610b5e565b600e54600f819055909150811115611b3b57600854600160a060020a03166303d756cb6000604051602001526040518163ffffffff1660e060020a028152600401602060405180830381600087803b1515611a3757600080fd5b6102c65a03f11515611a4857600080fd5b5050506040518051600854600160a060020a03918216925063a9059cbb9116634db08aea6000604051602001526040518163ffffffff1660e060020a028152600401602060405180830381600087803b1515611aa357600080fd5b6102c65a03f11515611ab457600080fd5b50505060405180519050611ad3600e548561199b90919063ffffffff16565b60006040516020015260405160e060020a63ffffffff8516028152600160a060020a0390921660048301526024820152604401602060405180830381600087803b1515611b1f57600080fd5b6102c65a03f11515611b3057600080fd5b505050604051805150505b600854600160a060020a031663b0e9a1ef62127500420160405160e060020a63ffffffff84160281526004810191909152602401600060405180830381600087803b1515611b8857600080fd5b6102c65a03f11515611b9957600080fd5b5050506109a5610f7e565b60008080600160a060020a0387161515611bbd57600080fd5b611bc687611414565b9150611bd28287611cdf565b9050611be087828787611cee565b600a5460055410158015611bf45750600c54155b15611c5257600b54611c0d90429063ffffffff6119c416565b600c8190556002547f8061a159b48a33a206e3cc24cce73cc3a0f5004baf555a87beb12402203bc18c91611c4091611cdf565b60405190815260200160405180910390a15b600d5460055410611c8a577f88b44a5c3985d84f29a974395516f83cb69570f0bab6d515ad43612b0c8c783760405160405180910390a15b9695505050505050565b6000611c9e612069565b806110e457506110e4612071565b600354600160a060020a031681156108fc0282604051600060405180830381858888f1935050505015156109a557600080fd5b6000818311610c8757826109b5565b600080600160a060020a0386161515611d0657600080fd5b611d0f8561207c565b1515611d1a57600080fd5b600554611d2d908663ffffffff6119c416565b600555600160a060020a038616600090815260156020526040902054611d59908663ffffffff6119c416565b600160a060020a038716600090815260156020526040902081905560125490111580611df55750601154600160a060020a0316633af32abf8760006040516020015260405160e060020a63ffffffff8416028152600160a060020a039091166004820152602401602060405180830381600087803b1515611dd957600080fd5b6102c65a03f11515611dea57600080fd5b505050604051805190505b80611ee65750601154600160a060020a031663a30bdea487856000604051602001526040518363ffffffff1660e060020a0281526004018083600160a060020a0316600160a060020a0316815260200180602001828103825283818151815260200191508051906020019080838360005b83811015611e7e578082015183820152602001611e66565b50505050905090810190601f168015611eab5780820380516001836020036101000a031916815260200191505b509350505050602060405180830381600087803b1515611eca57600080fd5b6102c65a03f11515611edb57600080fd5b505050604051805190505b1515611ef157600080fd5b611efc868686611144565b9150611f286064610c6884611f1c6009548a6120b890919063ffffffff16565b9063ffffffff6120b816565b600e54909150611f3e908263ffffffff6119c416565b600e55600160a060020a0386166000908152601460205260409020541515611fa5576018805460018101611f7283826120ee565b506000918252602090912001805473ffffffffffffffffffffffffffffffffffffffff1916600160a060020a0388161790555b600160a060020a038616600090815260146020526040902054611fce908263ffffffff6119c416565b6014600088600160a060020a0316600160a060020a031681526020019081526020016000208190555085600160a060020a031633600160a060020a03167fc29b8032387f267ddc010037627574acbf3b1a65a6022ca8ba6c25f0ba85ee7587846018805490506005546040518085815260200184815260200183815260200182815260200194505050505060405180910390a3505050505050565b600254421190565b600754600554101590565b60008060008061208a611770565b1592508460001415915060105485101590508280156120a65750815b80156120af5750805b95945050505050565b60008282028315806120d457508284828115156120d157fe5b04145b15156109b557fe5b60206040519081016040526000815290565b815481835581811511610b1457600083815260209020610b14918101908301610c3691905b808211156121275760008155600101612113565b50905600a165627a7a7230582006af39cf758819b94e1c40f019b30745d3c4291f31bd308d0f517472ea2857450029",
  "source": "pragma solidity ^0.4.17;\n\nimport \"./ERC20MiniMe.sol\";\nimport \"./CappedCrowdsale.sol\";\nimport \"./TokenController.sol\";\nimport \"./FinalizableCrowdsale.sol\";\nimport \"./Pausable.sol\";\nimport \"./EthealWhitelist.sol\";\n\n/**\n * @title EthealNormalSale\n * @author thesved\n * @notice Etheal Token Sale contract, with softcap and hardcap (cap)\n * @dev This contract has to be finalized before token claims are enabled\n */\ncontract EthealNormalSale is Pausable, FinalizableCrowdsale, CappedCrowdsale {\n    // the token is here\n    TokenController public ethealController;\n\n    // after reaching {weiRaised} >= {softCap}, there is {softCapTime} seconds until the sale closes\n    // {softCapClose} contains the closing time\n    uint256 public rate = 700;\n    uint256 public softCap = 6800 ether;\n    uint256 public softCapTime = 120 hours;\n    uint256 public softCapClose;\n    uint256 public cap = 14300 ether;\n\n    // how many token is sold and not claimed, used for refunding to token controller\n    uint256 public tokenBalance;\n\n    // total token sold\n    uint256 public tokenSold;\n\n    // minimum contribution, 0.1ETH\n    uint256 public minContribution = 0.1 ether;\n\n    // whitelist: above threshold the contract has to approve each transaction\n    EthealWhitelist public whitelist;\n    uint256 public whitelistThreshold = 1 ether;\n\n    // deposit address from which it can get funds before sale\n    address public deposit;\n    \n    // stakes contains token bought and contirbutions contains the value in wei\n    mapping (address => uint256) public stakes;\n    mapping (address => uint256) public contributions;\n\n    // promo token bonus\n    address public promoTokenController;\n    mapping (address => uint256) public bonusExtra;\n\n    // addresses of contributors to handle finalization after token sale end (refunds or token claims)\n    address[] public contributorsKeys; \n\n    // events for token purchase during sale and claiming tokens after sale\n    event TokenClaimed(address indexed _claimer, address indexed _beneficiary, uint256 _amount);\n    event TokenPurchase(address indexed _purchaser, address indexed _beneficiary, uint256 _value, uint256 _amount, uint256 _participants, uint256 _weiRaised);\n    event TokenSoftCapReached(uint256 _closeTime);\n    event TokenHardCapReached();\n\n    ////////////////\n    // Constructor and inherited function overrides\n    ////////////////\n\n    /// @notice Constructor to create PreSale contract\n    /// @param _ethealController Address of ethealController\n    /// @param _startTime The start time of token sale in seconds.\n    /// @param _endTime The end time of token sale in seconds.\n    /// @param _minContribution The minimum contribution per transaction in wei (0.1 ETH)\n    /// @param _rate Number of HEAL tokens per 1 ETH\n    /// @param _softCap Softcap in wei, reaching it ends the sale in _softCapTime seconds\n    /// @param _softCapTime Seconds until the sale remains open after reaching _softCap\n    /// @param _cap Maximum cap in wei, we can't raise more funds\n    /// @param _wallet Address of multisig wallet, which will get all the funds after successful sale\n    function EthealNormalSale(\n        address _ethealController,\n        uint256 _startTime, \n        uint256 _endTime, \n        uint256 _minContribution, \n        uint256 _rate, \n        uint256 _softCap, \n        uint256 _softCapTime, \n        uint256 _cap, \n        address _wallet\n    )\n        CappedCrowdsale(_cap)\n        FinalizableCrowdsale()\n        Crowdsale(_startTime, _endTime, _rate, _wallet)\n    {\n        // ethealController must be valid\n        require(_ethealController != address(0));\n        ethealController = TokenController(_ethealController);\n\n        // caps have to be consistent with each other\n        require(_softCap <= _cap);\n        softCap = _softCap;\n        softCapTime = _softCapTime;\n\n        // this is needed since super constructor wont overwite overriden variables\n        cap = _cap;\n        rate = _rate;\n\n        minContribution = _minContribution;\n    }\n\n    ////////////////\n    // Administer contract details\n    ////////////////\n\n    /// @notice Sets min contribution\n    function setMinContribution(uint256 _minContribution) public onlyOwner {\n        minContribution = _minContribution;\n    }\n\n    /// @notice Sets soft cap and max cap\n    function setCaps(uint256 _softCap, uint256 _softCapTime, uint256 _cap) public onlyOwner {\n        require(_softCap <= _cap);\n        softCap = _softCap;\n        softCapTime = _softCapTime;\n        cap = _cap;\n    }\n\n    /// @notice Sets crowdsale start and end time\n    function setTimes(uint256 _startTime, uint256 _endTime) public onlyOwner {\n        require(_startTime <= _endTime);\n        require(!hasEnded());\n        startTime = _startTime;\n        endTime = _endTime;\n    }\n\n    /// @notice Set rate\n    function setRate(uint256 _rate) public onlyOwner {\n        require(_rate > 0);\n        rate = _rate;\n    }\n\n    /// @notice Set address of promo token\n    function setPromoTokenController(address _addr) public onlyOwner {\n        require(_addr != address(0));\n        promoTokenController = _addr;\n    }\n\n    /// @notice Set whitelist contract address and minimum threshold\n    function setWhitelist(address _whitelist, uint256 _threshold) public onlyOwner {\n        // if whitelist contract address is provided we set it\n        if (_whitelist != address(0)) {\n            whitelist = EthealWhitelist(_whitelist);\n        }\n        whitelistThreshold = _threshold;\n    }\n\n    /// @notice Set deposit contract address from which it can receive money before sale\n    function setDeposit(address _deposit) public onlyOwner {\n        deposit = _deposit;\n    }\n\n    ////////////////\n    // Purchase functions\n    ////////////////\n\n    /// @dev Overriding Crowdsale#buyTokens to add partial refund\n    /// @param _beneficiary Beneficiary of the token purchase\n    function buyTokens(address _beneficiary) public payable whenNotPaused {\n        handlePayment(_beneficiary, msg.value, now, \"\");\n    }\n\n    /// @dev buying tokens for someone with offchain whitelist signature\n    function buyTokens(address _beneficiary, bytes _whitelistSign) public payable whenNotPaused {\n        handlePayment(_beneficiary, msg.value, now, _whitelistSign);\n    }\n\n    /// @dev Internal function for handling transactions with ether.\n    function handlePayment(address _beneficiary, uint256 _amount, uint256 _time, bytes memory _whitelistSign) internal {\n        require(_beneficiary != address(0));\n\n        uint256 weiAmount = handleContribution(_beneficiary, _amount, _time, _whitelistSign);      \n        forwardFunds(weiAmount);  \n\n        // handle refund excess tokens\n        uint256 refund = _amount.sub(weiAmount);\n        if (refund > 0) {\n            _beneficiary.transfer(refund);\n        }\n    }\n\n    /// @dev Handling the amount of contribution and cap logic. Internal function.\n    /// @return Wei successfully contributed.\n    function handleContribution(address _beneficiary, uint256 _amount, uint256 _time, bytes memory _whitelistSign) internal returns (uint256) {\n        require(_beneficiary != address(0));\n\n        uint256 weiToCap = howMuchCanXContributeNow(_beneficiary);\n        uint256 weiAmount = uint256Min(weiToCap, _amount);\n\n        // account the new contribution\n        transferToken(_beneficiary, weiAmount, _time, _whitelistSign);\n\n        // close sale in softCapTime seconds after reaching softCap\n        if (weiRaised >= softCap && softCapClose == 0) {\n            softCapClose = now.add(softCapTime);\n            TokenSoftCapReached(uint256Min(softCapClose, endTime));\n        }\n\n        // event for hard cap reached\n        if (weiRaised >= cap) {\n            TokenHardCapReached();\n        }\n\n        return weiAmount;\n    }\n\n    /// @dev Handling token distribution and accounting. Overriding Crowdsale#transferToken.\n    /// @param _beneficiary Address of the recepient of the tokens\n    /// @param _weiAmount Contribution in wei\n    /// @param _time When the contribution was made\n    function transferToken(address _beneficiary, uint256 _weiAmount, uint256 _time, bytes memory _whitelistSign) internal {\n        require(_beneficiary != address(0));\n        require(validPurchase(_weiAmount));\n\n        // increase wei Raised\n        weiRaised = weiRaised.add(_weiAmount);\n\n        // require whitelist above threshold\n        contributions[_beneficiary] = contributions[_beneficiary].add(_weiAmount);\n        require(contributions[_beneficiary] <= whitelistThreshold \n                || whitelist.isWhitelisted(_beneficiary)\n                || whitelist.isOffchainWhitelisted(_beneficiary, _whitelistSign)\n        );\n\n        // calculate tokens, so we can refund excess tokens to EthealController after token sale\n        uint256 _bonus = getBonus(_beneficiary, _weiAmount, _time);\n        uint256 tokens = _weiAmount.mul(rate).mul(_bonus).div(100);\n        tokenBalance = tokenBalance.add(tokens);\n\n        if (stakes[_beneficiary] == 0) {\n            contributorsKeys.push(_beneficiary);\n        }\n        stakes[_beneficiary] = stakes[_beneficiary].add(tokens);\n\n        TokenPurchase(msg.sender, _beneficiary, _weiAmount, tokens, contributorsKeys.length, weiRaised);\n    }\n\n    /// @dev Get eth deposit from Deposit contract\n    function depositEth(address _beneficiary, uint256 _time, bytes _whitelistSign) public payable whenNotPaused {\n        require(msg.sender == deposit);\n\n        handlePayment(_beneficiary, msg.value, _time, _whitelistSign);\n    }\n\n    /// @dev Deposit from other currencies\n    function depositOffchain(address _beneficiary, uint256 _amount, uint256 _time, bytes _whitelistSign) public onlyOwner whenNotPaused {\n        handleContribution(_beneficiary, _amount, _time, _whitelistSign);\n    }\n\n    /// @dev Overriding Crowdsale#validPurchase to add min contribution logic\n    /// @param _weiAmount Contribution amount in wei\n    /// @return true if contribution is okay\n    function validPurchase(uint256 _weiAmount) internal constant returns (bool) {\n        bool nonEnded = !hasEnded();\n        bool nonZero = _weiAmount != 0;\n        bool enoughContribution = _weiAmount >= minContribution;\n        return nonEnded && nonZero && enoughContribution;\n    }\n\n    /// @dev Overriding Crowdsale#hasEnded to add soft cap logic\n    /// @return true if crowdsale event has ended or a softCapClose time is set and passed\n    function hasEnded() public constant returns (bool) {\n        return super.hasEnded() || softCapClose > 0 && now > softCapClose;\n    }\n\n    /// @dev Extending RefundableCrowdsale#finalization sending back excess tokens to ethealController\n    function finalization() internal {\n        uint256 _balance = getHealBalance();\n\n        // saving token balance for future reference\n        tokenSold = tokenBalance; \n\n        // send back the excess token to ethealController\n        if (_balance > tokenBalance) {\n            ethealController.ethealToken().transfer(ethealController.SALE(), _balance.sub(tokenBalance));\n        }\n\n        // hodler stake counting starts 14 days after closing normal sale\n        ethealController.setHodlerTime(now + 14 days);\n\n        super.finalization();\n    }\n\n\n    ////////////////\n    // AFTER token sale\n    ////////////////\n\n    /// @notice Modifier for after sale finalization\n    modifier afterSale() {\n        require(isFinalized);\n        _;\n    }\n\n    /// @notice Claim token for msg.sender after token sale based on stake.\n    function claimToken() public afterSale {\n        claimTokenFor(msg.sender);\n    }\n\n    /// @notice Claim token after token sale based on stake.\n    /// @dev Anyone can call this function and distribute tokens after successful token sale\n    /// @param _beneficiary Address of the beneficiary who gets the token\n    function claimTokenFor(address _beneficiary) public afterSale whenNotPaused {\n        uint256 tokens = stakes[_beneficiary];\n        require(tokens > 0);\n\n        // set the stake 0 for beneficiary\n        stakes[_beneficiary] = 0;\n\n        // decrease tokenBalance, to make it possible to withdraw excess HEAL funds\n        tokenBalance = tokenBalance.sub(tokens);\n\n        // distribute hodlr stake\n        ethealController.addHodlerStake(_beneficiary, tokens);\n\n        // distribute token\n        require(ethealController.ethealToken().transfer(_beneficiary, tokens));\n        TokenClaimed(msg.sender, _beneficiary, tokens);\n    }\n\n    /// @notice claimToken() for multiple addresses\n    /// @dev Anyone can call this function and distribute tokens after successful token sale\n    /// @param _beneficiaries Array of addresses for which we want to claim tokens\n    function claimManyTokenFor(address[] _beneficiaries) external afterSale {\n        for (uint256 i = 0; i < _beneficiaries.length; i++) {\n            claimTokenFor(_beneficiaries[i]);\n        }\n    }\n\n\n    ////////////////\n    // Bonus functions\n    ////////////////\n\n    /// @notice Sets extra 5% bonus for those addresses who send back a promo token\n    /// @notice It contains an easter egg.\n    ///@param _addr this address gets the bonus\n    ///@param _value how many tokens are transferred\n    function setPromoBonus(address _addr, uint256 _value) public {\n        require(msg.sender == promoTokenController || msg.sender == owner);\n        require(_value>0);\n\n        uint256 _bonus = keccak256(_value) == 0xbeced09521047d05b8960b7e7bcc1d1292cf3e4b2a6b63f48335cbde5f7545d2 ? 6 : 5;\n\n        if (bonusExtra[ _addr ] < _bonus) {\n            bonusExtra[ _addr ] = _bonus;\n        }\n    }\n\n    /// @notice Manual set extra bonus for addresses\n    function setBonusExtra(address _addr, uint256 _bonus) public onlyOwner {\n        require(_addr != address(0));\n        bonusExtra[_addr] = _bonus;\n    }\n\n    /// @notice Mass set extra bonus for addresses\n    function setManyBonusExtra(address[] _addr, uint256 _bonus) external onlyOwner {\n        for (uint256 i = 0; i < _addr.length; i++) {\n            setBonusExtra(_addr[i],_bonus);\n        }\n    }\n\n    /// @notice Returns bonus for now\n    function getBonusNow(address _addr, uint256 _size) public view returns (uint256) {\n        return getBonus(_addr, _size, now);\n    }\n\n    /// @notice Returns the bonus in percentage, eg 130 means 30% bonus\n    function getBonus(address _addr, uint256 _size, uint256 _time) public view returns (uint256 _bonus) {\n        // detailed bonus structure: https://etheal.com/#heal-token\n        _bonus = 100;\n        \n        // time based bonuses\n        uint256 _day = getSaleDay(_time);\n        uint256 _hour = getSaleHour(_time);\n        if (_day <= 1) {\n            if (_hour <= 1) _bonus = 130;\n            else if (_hour <= 5) _bonus = 125;\n            else if (_hour <= 8) _bonus = 120;\n            else _bonus = 118;\n        } \n        else if (_day <= 2) { _bonus = 116; }\n        else if (_day <= 3) { _bonus = 115; }\n        else if (_day <= 5) { _bonus = 114; }\n        else if (_day <= 7) { _bonus = 113; }\n        else if (_day <= 9) { _bonus = 112; }\n        else if (_day <= 11) { _bonus = 111; }\n        else if (_day <= 13) { _bonus = 110; }\n        else if (_day <= 15) { _bonus = 108; }\n        else if (_day <= 17) { _bonus = 107; }\n        else if (_day <= 19) { _bonus = 106; }\n        else if (_day <= 21) { _bonus = 105; }\n        else if (_day <= 23) { _bonus = 104; }\n        else if (_day <= 25) { _bonus = 103; }\n        else if (_day <= 27) { _bonus = 102; }\n\n        // size based bonuses\n        if (_size >= 100 ether) { _bonus = _bonus + 4; }\n        else if (_size >= 10 ether) { _bonus = _bonus + 2; }\n\n        // manual bonus\n        _bonus += bonusExtra[ _addr ];\n\n        return _bonus;\n    }\n\n\n    ////////////////\n    // Constant, helper functions\n    ////////////////\n\n    /// @notice How many wei can the msg.sender contribute now.\n    function howMuchCanIContributeNow() view public returns (uint256) {\n        return howMuchCanXContributeNow(msg.sender);\n    }\n\n    /// @notice How many wei can an ethereum address contribute now.\n    /// @param _beneficiary Ethereum address\n    /// @return Number of wei the _beneficiary can contribute now.\n    function howMuchCanXContributeNow(address _beneficiary) view public returns (uint256) {\n        require(_beneficiary != address(0));\n\n        if (hasEnded() || paused) \n            return 0;\n\n        // wei to hard cap\n        uint256 weiToCap = cap.sub(weiRaised);\n\n        return weiToCap;\n    }\n\n    /// @notice For a give date how many 24 hour blocks have ellapsed since token sale start\n    ///  Before sale return 0, first day 1, second day 2, ...\n    /// @param _time Date in seconds for which we want to know which sale day it is\n    /// @return Number of 24 hour blocks ellapsing since token sale start starting from 1\n    function getSaleDay(uint256 _time) view public returns (uint256) {\n        uint256 _day = 0;\n        if (_time > startTime) {\n            _day = _time.sub(startTime).div(60*60*24).add(1);\n        }\n        return _day;\n    }\n\n    /// @notice How many 24 hour blocks have ellapsed since token sale start\n    /// @return Number of 24 hour blocks ellapsing since token sale start starting from 1\n    function getSaleDayNow() view public returns (uint256) {\n        return getSaleDay(now);\n    }\n\n    /// @notice Returns sale hour: 0 before sale, 1 for the first hour, ...\n    /// @param _time Date in seconds for which we want to know which sale hour it is\n    /// @return Number of 1 hour blocks ellapsing since token sale start starting from 1\n    function getSaleHour(uint256 _time) view public returns (uint256) {\n        uint256 _hour = 0;\n        if (_time > startTime) {\n            _hour = _time.sub(startTime).div(60*60).add(1);\n        }\n        return _hour;\n    }\n\n    /// @notice How many 1 hour blocks have ellapsed since token sale start\n    /// @return Number of 1 hour blocks ellapsing since token sale start starting from 1\n    function getSaleHourNow() view public returns (uint256) {\n        return getSaleHour(now);\n    }\n\n    /// @notice Minimum between two uint256 numbers\n    function uint256Min(uint256 a, uint256 b) pure internal returns (uint256) {\n        return a > b ? b : a;\n    }\n\n\n    ////////////////\n    // Test and contribution web app, NO audit is needed\n    ////////////////\n\n    /// @notice How many contributors we have.\n    /// @return Number of different contributor ethereum addresses\n    function getContributorsCount() view public returns (uint256) {\n        return contributorsKeys.length;\n    }\n\n    /// @notice Get contributor addresses to manage refunds or token claims.\n    /// @dev If the sale is not yet successful, then it searches in the RefundVault.\n    ///  If the sale is successful, it searches in contributors.\n    /// @param _pending If true, then returns addresses which didn't get their tokens distributed to them\n    /// @param _claimed If true, then returns already distributed addresses\n    /// @return Array of addresses of contributors\n    function getContributors(bool _pending, bool _claimed) view public returns (address[] contributors) {\n        uint256 i = 0;\n        uint256 results = 0;\n        address[] memory _contributors = new address[](contributorsKeys.length);\n\n        // search in contributors\n        for (i = 0; i < contributorsKeys.length; i++) {\n            if (_pending && stakes[contributorsKeys[i]] > 0 || _claimed && stakes[contributorsKeys[i]] == 0) {\n                _contributors[results] = contributorsKeys[i];\n                results++;\n            }\n        }\n\n        contributors = new address[](results);\n        for (i = 0; i < results; i++) {\n            contributors[i] = _contributors[i];\n        }\n\n        return contributors;\n    }\n\n    /// @notice How many HEAL tokens do this contract have\n    function getHealBalance() view public returns (uint256) {\n        return ethealController.ethealToken().balanceOf(address(this));\n    }\n}",
  "sourcePath": "/Users/tikonoff/projects/etheal-contracts/contracts/EthealNormalSale.sol",
  "compiler": {
    "name": "solc",
    "version": "0.4.19+commit.c4cbbb05.Emscripten.clang"
  },
  "schemaVersion": "1.0.1",
  "updatedAt": "2018-03-21T21:44:27.748Z"
}