{
  "contractName": "EthealController",
  "abi": [
    {
      "constant": true,
      "inputs": [],
      "name": "TOKEN_SALE1_PRE",
      "outputs": [
        {
          "name": "",
          "type": "uint256"
        }
      ],
      "payable": false,
      "stateMutability": "view",
      "type": "function"
    },
    {
      "constant": true,
      "inputs": [],
      "name": "ethealToken",
      "outputs": [
        {
          "name": "",
          "type": "address"
        }
      ],
      "payable": false,
      "stateMutability": "view",
      "type": "function"
    },
    {
      "constant": true,
      "inputs": [],
      "name": "TOKEN_HODL_6M",
      "outputs": [
        {
          "name": "",
          "type": "uint256"
        }
      ],
      "payable": false,
      "stateMutability": "view",
      "type": "function"
    },
    {
      "constant": true,
      "inputs": [],
      "name": "TOKEN_SALE2",
      "outputs": [
        {
          "name": "",
          "type": "uint256"
        }
      ],
      "payable": false,
      "stateMutability": "view",
      "type": "function"
    },
    {
      "constant": true,
      "inputs": [],
      "name": "hodlerReward",
      "outputs": [
        {
          "name": "",
          "type": "address"
        }
      ],
      "payable": false,
      "stateMutability": "view",
      "type": "function"
    },
    {
      "constant": true,
      "inputs": [],
      "name": "TOKEN_HODL_9M",
      "outputs": [
        {
          "name": "",
          "type": "uint256"
        }
      ],
      "payable": false,
      "stateMutability": "view",
      "type": "function"
    },
    {
      "constant": true,
      "inputs": [],
      "name": "TOKEN_BOUNTY",
      "outputs": [
        {
          "name": "",
          "type": "uint256"
        }
      ],
      "payable": false,
      "stateMutability": "view",
      "type": "function"
    },
    {
      "constant": true,
      "inputs": [],
      "name": "MILLION",
      "outputs": [
        {
          "name": "",
          "type": "uint256"
        }
      ],
      "payable": false,
      "stateMutability": "view",
      "type": "function"
    },
    {
      "constant": true,
      "inputs": [],
      "name": "newController",
      "outputs": [
        {
          "name": "",
          "type": "address"
        }
      ],
      "payable": false,
      "stateMutability": "view",
      "type": "function"
    },
    {
      "constant": false,
      "inputs": [],
      "name": "unpause",
      "outputs": [],
      "payable": false,
      "stateMutability": "nonpayable",
      "type": "function"
    },
    {
      "constant": true,
      "inputs": [],
      "name": "VESTING_ADVISOR_DURATION",
      "outputs": [
        {
          "name": "",
          "type": "uint256"
        }
      ],
      "payable": false,
      "stateMutability": "view",
      "type": "function"
    },
    {
      "constant": true,
      "inputs": [],
      "name": "VESTING_ADVISOR_CLIFF",
      "outputs": [
        {
          "name": "",
          "type": "uint256"
        }
      ],
      "payable": false,
      "stateMutability": "view",
      "type": "function"
    },
    {
      "constant": true,
      "inputs": [],
      "name": "SALE",
      "outputs": [
        {
          "name": "",
          "type": "address"
        }
      ],
      "payable": false,
      "stateMutability": "view",
      "type": "function"
    },
    {
      "constant": true,
      "inputs": [],
      "name": "VESTING_TEAM_CLIFF",
      "outputs": [
        {
          "name": "",
          "type": "uint256"
        }
      ],
      "payable": false,
      "stateMutability": "view",
      "type": "function"
    },
    {
      "constant": true,
      "inputs": [],
      "name": "paused",
      "outputs": [
        {
          "name": "",
          "type": "bool"
        }
      ],
      "payable": false,
      "stateMutability": "view",
      "type": "function"
    },
    {
      "constant": true,
      "inputs": [],
      "name": "TOKEN_FOUNDERS",
      "outputs": [
        {
          "name": "",
          "type": "uint256"
        }
      ],
      "payable": false,
      "stateMutability": "view",
      "type": "function"
    },
    {
      "constant": true,
      "inputs": [
        {
          "name": "",
          "type": "uint256"
        }
      ],
      "name": "tokenGrants",
      "outputs": [
        {
          "name": "",
          "type": "address"
        }
      ],
      "payable": false,
      "stateMutability": "view",
      "type": "function"
    },
    {
      "constant": true,
      "inputs": [],
      "name": "TOKEN_REFERRAL",
      "outputs": [
        {
          "name": "",
          "type": "uint256"
        }
      ],
      "payable": false,
      "stateMutability": "view",
      "type": "function"
    },
    {
      "constant": true,
      "inputs": [],
      "name": "TOKEN_SALE1_NORMAL",
      "outputs": [
        {
          "name": "",
          "type": "uint256"
        }
      ],
      "payable": false,
      "stateMutability": "view",
      "type": "function"
    },
    {
      "constant": true,
      "inputs": [],
      "name": "ethealMultisigWallet",
      "outputs": [
        {
          "name": "",
          "type": "address"
        }
      ],
      "payable": false,
      "stateMutability": "view",
      "type": "function"
    },
    {
      "constant": false,
      "inputs": [],
      "name": "pause",
      "outputs": [],
      "payable": false,
      "stateMutability": "nonpayable",
      "type": "function"
    },
    {
      "constant": true,
      "inputs": [],
      "name": "THOUSAND",
      "outputs": [
        {
          "name": "",
          "type": "uint256"
        }
      ],
      "payable": false,
      "stateMutability": "view",
      "type": "function"
    },
    {
      "constant": true,
      "inputs": [],
      "name": "TOKEN_TEAM",
      "outputs": [
        {
          "name": "",
          "type": "uint256"
        }
      ],
      "payable": false,
      "stateMutability": "view",
      "type": "function"
    },
    {
      "constant": true,
      "inputs": [],
      "name": "owner",
      "outputs": [
        {
          "name": "",
          "type": "address"
        }
      ],
      "payable": false,
      "stateMutability": "view",
      "type": "function"
    },
    {
      "constant": true,
      "inputs": [],
      "name": "ETHEAL_UNIT",
      "outputs": [
        {
          "name": "",
          "type": "uint256"
        }
      ],
      "payable": false,
      "stateMutability": "view",
      "type": "function"
    },
    {
      "constant": true,
      "inputs": [],
      "name": "crowdsale",
      "outputs": [
        {
          "name": "",
          "type": "address"
        }
      ],
      "payable": false,
      "stateMutability": "view",
      "type": "function"
    },
    {
      "constant": true,
      "inputs": [],
      "name": "FOUNDER2",
      "outputs": [
        {
          "name": "",
          "type": "address"
        }
      ],
      "payable": false,
      "stateMutability": "view",
      "type": "function"
    },
    {
      "constant": true,
      "inputs": [],
      "name": "TOKEN_SALE3",
      "outputs": [
        {
          "name": "",
          "type": "uint256"
        }
      ],
      "payable": false,
      "stateMutability": "view",
      "type": "function"
    },
    {
      "constant": true,
      "inputs": [],
      "name": "VESTING_TEAM_DURATION",
      "outputs": [
        {
          "name": "",
          "type": "uint256"
        }
      ],
      "payable": false,
      "stateMutability": "view",
      "type": "function"
    },
    {
      "constant": true,
      "inputs": [],
      "name": "TOKEN_INVESTORS",
      "outputs": [
        {
          "name": "",
          "type": "uint256"
        }
      ],
      "payable": false,
      "stateMutability": "view",
      "type": "function"
    },
    {
      "constant": true,
      "inputs": [],
      "name": "INVESTOR2",
      "outputs": [
        {
          "name": "",
          "type": "address"
        }
      ],
      "payable": false,
      "stateMutability": "view",
      "type": "function"
    },
    {
      "constant": true,
      "inputs": [],
      "name": "TOKEN_COMMUNITY",
      "outputs": [
        {
          "name": "",
          "type": "uint256"
        }
      ],
      "payable": false,
      "stateMutability": "view",
      "type": "function"
    },
    {
      "constant": true,
      "inputs": [],
      "name": "FOUNDER1",
      "outputs": [
        {
          "name": "",
          "type": "address"
        }
      ],
      "payable": false,
      "stateMutability": "view",
      "type": "function"
    },
    {
      "constant": false,
      "inputs": [
        {
          "name": "newOwner",
          "type": "address"
        }
      ],
      "name": "transferOwnership",
      "outputs": [],
      "payable": false,
      "stateMutability": "nonpayable",
      "type": "function"
    },
    {
      "constant": true,
      "inputs": [],
      "name": "INVESTOR1",
      "outputs": [
        {
          "name": "",
          "type": "address"
        }
      ],
      "payable": false,
      "stateMutability": "view",
      "type": "function"
    },
    {
      "constant": true,
      "inputs": [],
      "name": "TOKEN_HODL_3M",
      "outputs": [
        {
          "name": "",
          "type": "uint256"
        }
      ],
      "payable": false,
      "stateMutability": "view",
      "type": "function"
    },
    {
      "inputs": [
        {
          "name": "_wallet",
          "type": "address"
        }
      ],
      "payable": false,
      "stateMutability": "nonpayable",
      "type": "constructor"
    },
    {
      "anonymous": false,
      "inputs": [
        {
          "indexed": true,
          "name": "_token",
          "type": "address"
        },
        {
          "indexed": true,
          "name": "_claimer",
          "type": "address"
        },
        {
          "indexed": false,
          "name": "_amount",
          "type": "uint256"
        }
      ],
      "name": "ExtractedTokens",
      "type": "event"
    },
    {
      "anonymous": false,
      "inputs": [],
      "name": "Pause",
      "type": "event"
    },
    {
      "anonymous": false,
      "inputs": [],
      "name": "Unpause",
      "type": "event"
    },
    {
      "anonymous": false,
      "inputs": [
        {
          "indexed": true,
          "name": "previousOwner",
          "type": "address"
        },
        {
          "indexed": true,
          "name": "newOwner",
          "type": "address"
        }
      ],
      "name": "OwnershipTransferred",
      "type": "event"
    },
    {
      "constant": false,
      "inputs": [
        {
          "name": "_token",
          "type": "address"
        },
        {
          "name": "_claimer",
          "type": "address"
        }
      ],
      "name": "extractTokens",
      "outputs": [],
      "payable": false,
      "stateMutability": "nonpayable",
      "type": "function"
    },
    {
      "constant": false,
      "inputs": [
        {
          "name": "_sale",
          "type": "address"
        },
        {
          "name": "_amount",
          "type": "uint256"
        }
      ],
      "name": "setCrowdsaleTransfer",
      "outputs": [],
      "payable": false,
      "stateMutability": "nonpayable",
      "type": "function"
    },
    {
      "constant": true,
      "inputs": [],
      "name": "isCrowdsaleOpen",
      "outputs": [
        {
          "name": "",
          "type": "bool"
        }
      ],
      "payable": false,
      "stateMutability": "view",
      "type": "function"
    },
    {
      "constant": false,
      "inputs": [
        {
          "name": "_beneficiary",
          "type": "address"
        },
        {
          "name": "_amount",
          "type": "uint256"
        },
        {
          "name": "_revocable",
          "type": "bool"
        },
        {
          "name": "_advisor",
          "type": "bool"
        }
      ],
      "name": "createGrant",
      "outputs": [],
      "payable": false,
      "stateMutability": "nonpayable",
      "type": "function"
    },
    {
      "constant": false,
      "inputs": [
        {
          "name": "_id",
          "type": "uint256"
        },
        {
          "name": "_amount",
          "type": "uint256"
        }
      ],
      "name": "transferToGrant",
      "outputs": [],
      "payable": false,
      "stateMutability": "nonpayable",
      "type": "function"
    },
    {
      "constant": false,
      "inputs": [
        {
          "name": "_id",
          "type": "uint256"
        }
      ],
      "name": "revokeGrant",
      "outputs": [],
      "payable": false,
      "stateMutability": "nonpayable",
      "type": "function"
    },
    {
      "constant": true,
      "inputs": [],
      "name": "getGrantCount",
      "outputs": [
        {
          "name": "",
          "type": "uint256"
        }
      ],
      "payable": false,
      "stateMutability": "view",
      "type": "function"
    },
    {
      "constant": false,
      "inputs": [
        {
          "name": "_where",
          "type": "address"
        },
        {
          "name": "_amount",
          "type": "uint256"
        }
      ],
      "name": "burn",
      "outputs": [],
      "payable": false,
      "stateMutability": "nonpayable",
      "type": "function"
    },
    {
      "constant": false,
      "inputs": [
        {
          "name": "_controller",
          "type": "address"
        }
      ],
      "name": "setNewController",
      "outputs": [],
      "payable": false,
      "stateMutability": "nonpayable",
      "type": "function"
    },
    {
      "constant": false,
      "inputs": [
        {
          "name": "_wallet",
          "type": "address"
        }
      ],
      "name": "setNewMultisig",
      "outputs": [],
      "payable": false,
      "stateMutability": "nonpayable",
      "type": "function"
    },
    {
      "constant": false,
      "inputs": [
        {
          "name": "_token",
          "type": "address"
        },
        {
          "name": "_hodler",
          "type": "address"
        }
      ],
      "name": "setEthealToken",
      "outputs": [],
      "payable": false,
      "stateMutability": "nonpayable",
      "type": "function"
    },
    {
      "constant": false,
      "inputs": [
        {
          "name": "_time",
          "type": "uint256"
        }
      ],
      "name": "setHodlerTime",
      "outputs": [],
      "payable": false,
      "stateMutability": "nonpayable",
      "type": "function"
    },
    {
      "constant": false,
      "inputs": [
        {
          "name": "_beneficiary",
          "type": "address"
        },
        {
          "name": "_stake",
          "type": "uint256"
        }
      ],
      "name": "addHodlerStake",
      "outputs": [],
      "payable": false,
      "stateMutability": "nonpayable",
      "type": "function"
    },
    {
      "constant": false,
      "inputs": [
        {
          "name": "_beneficiary",
          "type": "address"
        },
        {
          "name": "_stake",
          "type": "uint256"
        }
      ],
      "name": "setHodlerStake",
      "outputs": [],
      "payable": false,
      "stateMutability": "nonpayable",
      "type": "function"
    },
    {
      "constant": false,
      "inputs": [
        {
          "name": "_owner",
          "type": "address"
        }
      ],
      "name": "proxyPayment",
      "outputs": [
        {
          "name": "",
          "type": "bool"
        }
      ],
      "payable": true,
      "stateMutability": "payable",
      "type": "function"
    },
    {
      "constant": false,
      "inputs": [
        {
          "name": "_from",
          "type": "address"
        },
        {
          "name": "_to",
          "type": "address"
        },
        {
          "name": "_amount",
          "type": "uint256"
        }
      ],
      "name": "onTransfer",
      "outputs": [
        {
          "name": "",
          "type": "bool"
        }
      ],
      "payable": false,
      "stateMutability": "nonpayable",
      "type": "function"
    },
    {
      "constant": false,
      "inputs": [
        {
          "name": "_owner",
          "type": "address"
        },
        {
          "name": "_spender",
          "type": "address"
        },
        {
          "name": "_amount",
          "type": "uint256"
        }
      ],
      "name": "onApprove",
      "outputs": [
        {
          "name": "",
          "type": "bool"
        }
      ],
      "payable": false,
      "stateMutability": "nonpayable",
      "type": "function"
    },
    {
      "constant": false,
      "inputs": [
        {
          "name": "_token",
          "type": "address"
        }
      ],
      "name": "claimTokenTokens",
      "outputs": [],
      "payable": false,
      "stateMutability": "nonpayable",
      "type": "function"
    }
  ],
  "bytecode": "0x60606040526000805460a060020a60ff021916905560058054600160a060020a03199081166001178255600680548216600217905560078054821660031790556008805482166004179055600980549091169091179055341561006157600080fd5b604051602080613ba88339810160405280805160008054600160a060020a03191633600160a060020a03908116919091179091559092508216151590506100a757600080fd5b6000805460a060020a60ff02191674010000000000000000000000000000000000000000179055600a8054600160a060020a03909216600160a060020a0319909216919091179055613aaa806100fe6000396000f300606060405260043610620002a45763ffffffff60e060020a600035041662346b578114620002a95780630224dc1814620002d057806303d756cb14620002f857806304c80c3c146200032a5780631b8b478714620002d05780631d33267a14620003405780631f816c6d146200035957806328262dd1146200036f578063299c55f714620003855780632f5c5a08146200039b57806332bc934c14620003c35780633a02263c14620003d95780633f4ba83a14620003ef578063471b37cf14620004055780634a393149146200041b5780634bc1aa42146200045a5780634db08aea146200047057806356c2c1f6146200048657806359baef40146200049c5780635a3320ff14620004be5780635c975abb14620004d45780636330278914620004ea5780636fc559bb146200050057806372f4f5f9146200032a5780637a4690fb14620005195780637c1b6afe146200052f5780638059e80414620005455780638456cb59146200055b578063851cad9014620005715780638cac193914620005875780638da5cb5b146200059d5780638f382a0014620005b357806393a378da14620005c95780639c1e03a014620005ee5780639dc29fac14620006045780639f95de641462000629578063a804903a1462000645578063a9e52d01146200065b578063ac60da79146200068a578063aebb254014620006a0578063b0e9a1ef14620006c2578063b2cb0a3d14620006db578063b3922c4214620006f1578063b5c7b1fe1462000707578063b8a4b8581462000729578063bd1fac001462000519578063ca94452d146200073f578063d16c4cf51462000764578063da682aeb146200077a578063ed6b2d7d14620007a5578063f2fde38b14620007cd578063f48c305414620007ef578063f5459d6b1462000805578063fbd7d081146200081b575b600080fd5b3415620002b557600080fd5b620002ce600160a060020a036004351660243562000831565b005b3415620002dc57600080fd5b620002e6620008bc565b60405190815260200160405180910390f35b34156200030457600080fd5b6200030e620008cb565b604051600160a060020a03909116815260200160405180910390f35b34156200033657600080fd5b620002e6620008da565b34156200034c57600080fd5b620002ce600435620008e9565b34156200036557600080fd5b6200030e6200099c565b34156200037b57600080fd5b620002e6620009ab565b34156200039157600080fd5b620002e6620009ba565b3415620003a757600080fd5b620002ce600160a060020a0360043581169060243516620009c9565b3415620003cf57600080fd5b620002e66200100e565b3415620003e557600080fd5b6200030e62001015565b3415620003fb57600080fd5b620002ce62001024565b34156200041157600080fd5b620002e6620010a5565b34156200042757600080fd5b62000446600160a060020a0360043581169060243516604435620010ac565b604051901515815260200160405180910390f35b34156200046657600080fd5b620002e662001198565b34156200047c57600080fd5b6200030e6200119f565b34156200049257600080fd5b620002e6620011ae565b3415620004a857600080fd5b620002ce600160a060020a0360043516620011b6565b3415620004ca57600080fd5b6200044662001412565b3415620004e057600080fd5b6200044662001506565b3415620004f657600080fd5b620002e662001516565b34156200050c57600080fd5b6200030e60043562001525565b34156200052557600080fd5b620002e66200154e565b34156200053b57600080fd5b620002e66200155d565b34156200055157600080fd5b6200030e62001563565b34156200056757600080fd5b620002ce62001572565b34156200057d57600080fd5b620002e6620015f8565b34156200059357600080fd5b620002e6620015fe565b3415620005a957600080fd5b6200030e6200160d565b3415620005bf57600080fd5b620002e66200161c565b3415620005d557600080fd5b620002ce600160a060020a036004351660243562001628565b3415620005fa57600080fd5b6200030e6200169b565b34156200061057600080fd5b620002ce600160a060020a0360043516602435620016aa565b34156200063557600080fd5b620002ce60043560243562001788565b34156200065157600080fd5b6200030e620018d0565b34156200066757600080fd5b620002ce600160a060020a036004351660243560443515156064351515620018df565b34156200069657600080fd5b620002e662001b38565b3415620006ac57600080fd5b620002ce600160a060020a036004351662001b47565b3415620006ce57600080fd5b620002ce60043562001b9b565b3415620006e757600080fd5b620002e662001c00565b3415620006fd57600080fd5b620002e662001c08565b34156200071357600080fd5b620002ce600160a060020a036004351662001c17565b34156200073557600080fd5b6200030e62001ca0565b34156200074b57600080fd5b620002ce600160a060020a036004351660243562001caf565b34156200077057600080fd5b6200030e62001d9a565b34156200078657600080fd5b62000446600160a060020a036004358116906024351660443562001da9565b3415620007b157600080fd5b620002ce600160a060020a036004358116906024351662001dbe565b3415620007d957600080fd5b620002ce600160a060020a036004351662001e1a565b62000446600160a060020a036004351662001eaa565b34156200081157600080fd5b6200030e62001eb1565b34156200082757600080fd5b620002e662001ec0565b600b5433600160a060020a039081169116146200084d57600080fd5b600c54600160a060020a031662346b57838360405160e060020a63ffffffff8516028152600160a060020a0390921660048301526024820152604401600060405180830381600087803b1515620008a357600080fd5b6102c65a03f11515620008b557600080fd5b5050505050565b6a0771d2fa45345aa900000081565b600454600160a060020a031681565b6a01a784379d99db4200000081565b60005433600160a060020a039081169116146200090557600080fd5b600d5481106200091457600080fd5b600d8054829081106200092357fe5b600091825260209091200154600454600160a060020a03918216916374a8f103911660405160e060020a63ffffffff8416028152600160a060020a039091166004820152602401600060405180830381600087803b15156200098457600080fd5b6102c65a03f115156200099657600080fd5b50505050565b600c54600160a060020a031681565b6a05ca4ec2a79a7f6700000081565b6a013da329b633647180000081565b60005433600160a060020a03908116911614620009e557600080fd5b60005460a060020a900460ff161515620009fe57600080fd5b600160a060020a038216151562000a1457600080fd5b60048054600160a060020a031916600160a060020a038481169190911790915581161562000a5d57600c8054600160a060020a031916600160a060020a03831617905562000aed565b600c54600160a060020a0316151562000aed5769d3c21bcecceda10000006a01a784379d99db420000006a05ca4ec2a79a7f6700000062000a9d620020eb565b808481526020018381526020018281526020019350505050604051809103906000f080151562000acc57600080fd5b600c8054600160a060020a031916600160a060020a03929092169190911790555b600454600160a060020a03166318160ddd6000604051602001526040518163ffffffff1660e060020a028152600401602060405180830381600087803b151562000b3657600080fd5b6102c65a03f1151562000b4857600080fd5b5050506040518051151590506200100a57600454600554600160a060020a039182169163827f32c0911662000bb96a0422ca8b0a00a42500000062000bac6a0771d2fa45345aa900000081816a108b2a2c2802909400000063ffffffff62001ece16565b9063ffffffff62001ece16565b60006040516020015260405160e060020a63ffffffff8516028152600160a060020a0390921660048301526024820152604401602060405180830381600087803b151562000c0657600080fd5b6102c65a03f1151562000c1857600080fd5b50505060405180515050600454600c54600160a060020a039182169163827f32c0911662000c726a05ca4ec2a79a7f6700000062000bac69d3c21bcecceda10000006a01a784379d99db4200000063ffffffff62001ece16565b60006040516020015260405160e060020a63ffffffff8516028152600160a060020a0390921660048301526024820152604401602060405180830381600087803b151562000cbf57600080fd5b6102c65a03f1151562000cd157600080fd5b50505060405180515050600454600054600160a060020a039182169163827f32c0911662000d1c6a013da329b63364718000006a01a784379d99db4200000063ffffffff62001ece16565b60006040516020015260405160e060020a63ffffffff8516028152600160a060020a0390921660048301526024820152604401602060405180830381600087803b151562000d6957600080fd5b6102c65a03f1151562000d7b57600080fd5b50505060405180515050600454600a54600160a060020a039182169163827f32c091166a108b2a2c2802909400000060006040516020015260405160e060020a63ffffffff8516028152600160a060020a0390921660048301526024820152604401602060405180830381600087803b151562000df757600080fd5b6102c65a03f1151562000e0957600080fd5b50505060405180515050600454600160a060020a031663827f32c03062000e4d6a05606db4c03408968000006a0b949d854f34fece00000063ffffffff62001ece16565b60006040516020015260405160e060020a63ffffffff8516028152600160a060020a0390921660048301526024820152604401602060405180830381600087803b151562000e9a57600080fd5b6102c65a03f1151562000eac57600080fd5b50505060405180515050600454600854600160a060020a039182169163827f32c0911662000f00600262000ef36a027b46536c66c8e3000000600363ffffffff62001ee516565b9063ffffffff62001efd16565b60006040516020015260405160e060020a63ffffffff8516028152600160a060020a0390921660048301526024820152604401602060405180830381600087803b151562000f4d57600080fd5b6102c65a03f1151562000f5f57600080fd5b50505060405180515050600454600954600160a060020a039182169163827f32c0911662000fa06a027b46536c66c8e3000000600363ffffffff62001ee516565b60006040516020015260405160e060020a63ffffffff8516028152600160a060020a0390921660048301526024820152604401602060405180830381600087803b151562000fed57600080fd5b6102c65a03f1151562000fff57600080fd5b505050604051805150505b5050565b620f424081565b600354600160a060020a031681565b60005433600160a060020a039081169116146200104057600080fd5b60005460a060020a900460ff1615156200105957600080fd5b6000805474ff0000000000000000000000000000000000000000191690557f7805862f689e2f13df9f062ff482ad3ad112aca9e0847911ed832e158c525b3360405160405180910390a1565b62ed4e0081565b600c54600090600160a060020a03166337a3931f8560405160e060020a63ffffffff8416028152600160a060020a039091166004820152602401600060405180830381600087803b15156200110057600080fd5b6102c65a03f115156200111257600080fd5b505060005460a060020a900460ff161590508062001141575030600160a060020a031684600160a060020a0316145b806200115e575030600160a060020a031683600160a060020a0316145b80620011775750600b54600160a060020a038581169116145b80620011905750600b54600160a060020a038481169116145b949350505050565b6276a70081565b600554600160a060020a031681565b6301e1338081565b600a5460009033600160a060020a03908116911614620011d557600080fd5b600160a060020a03821615801590620011f75750600354600160a060020a0316155b15156200120357600080fd5b60038054600160a060020a031916600160a060020a038481169190911790915560045416633cebb8238360405160e060020a63ffffffff8416028152600160a060020a039091166004820152602401600060405180830381600087803b15156200126c57600080fd5b6102c65a03f115156200127e57600080fd5b5050600c54600160a060020a0316905063f2fde38b8360405160e060020a63ffffffff8416028152600160a060020a039091166004820152602401600060405180830381600087803b1515620012d357600080fd5b6102c65a03f11515620012e557600080fd5b50505030600160a060020a031631905060008111156200133157600160a060020a03821681156108fc0282604051600060405180830381858888f1935050505015156200133157600080fd5b600454600160a060020a03166370a082313060006040516020015260405160e060020a63ffffffff8416028152600160a060020a039091166004820152602401602060405180830381600087803b15156200138b57600080fd5b6102c65a03f115156200139d57600080fd5b505050604051805191505060008111156200100a57600454600160a060020a031663a9059cbb838360006040516020015260405160e060020a63ffffffff8516028152600160a060020a0390921660048301526024820152604401602060405180830381600087803b151562000fed57600080fd5b600b54600090600160a060020a031615801590620014925750600b54600160a060020a031663ecb70fb76000604051602001526040518163ffffffff1660e060020a028152600401602060405180830381600087803b15156200147457600080fd5b6102c65a03f115156200148657600080fd5b50505060405180519050155b8015620015005750600b54600160a060020a03166344691f7e6000604051602001526040518163ffffffff1660e060020a028152600401602060405180830381600087803b1515620014e357600080fd5b6102c65a03f11515620014f557600080fd5b505050604051805190505b90505b90565b60005460a060020a900460ff1681565b6a05606db4c034089680000081565b600d8054829081106200153457fe5b600091825260209091200154600160a060020a0316905081565b6a108b2a2c2802909400000081565b600d5490565b600a54600160a060020a031681565b60005433600160a060020a039081169116146200158e57600080fd5b60005460a060020a900460ff1615620015a657600080fd5b6000805474ff0000000000000000000000000000000000000000191660a060020a1790557f6985a02210a168e66602d3235cb6db0e70f92b3ba4d376a33c0f3d9434bff62560405160405180910390a1565b6103e881565b6a0b949d854f34fece00000081565b600054600160a060020a031681565b670de0b6b3a764000081565b600b5433600160a060020a039081169116146200164457600080fd5b600c54600160a060020a03166393a378da838360405160e060020a63ffffffff8516028152600160a060020a0390921660048301526024820152604401600060405180830381600087803b1515620008a357600080fd5b600b54600160a060020a031681565b600a5433600160a060020a03908116911614620016c657600080fd5b30600160a060020a031682600160a060020a03161480620016f45750600554600160a060020a038381169116145b15156200170057600080fd5b600454600160a060020a031663d3ce77fe838360006040516020015260405160e060020a63ffffffff8516028152600160a060020a0390921660048301526024820152604401602060405180830381600087803b15156200176057600080fd5b6102c65a03f115156200177257600080fd5b5050506040518051905015156200100a57600080fd5b60005433600160a060020a03908116911614620017a457600080fd5b600d5482108015620017b65750600081115b80156200183d5750600d805483908110620017cd57fe5b6000918252602082200154600160a060020a03169063be9a655590604051602001526040518163ffffffff1660e060020a028152600401602060405180830381600087803b15156200181e57600080fd5b6102c65a03f115156200183057600080fd5b5050506040518051905042105b15156200184957600080fd5b600454600d8054600160a060020a039092169163a9059cbb9190859081106200186e57fe5b6000918252602082200154600160a060020a03169084906040516020015260405160e060020a63ffffffff8516028152600160a060020a0390921660048301526024820152604401602060405180830381600087803b15156200176057600080fd5b600754600160a060020a031681565b60005433600160a060020a03908116911614620018fb57600080fd5b600160a060020a03841615801590620019145750600083115b15156200192057600080fd5b8015620019d057600d8054600181016200193b8382620020fc565b9160005260206000209001600086426276a70062ed4e00886200195d62002128565b600160a060020a03909516855260208501939093526040808501929092526060840152901515608083015260a09091019051809103906000f0801515620019a357600080fd5b909190916101000a815481600160a060020a030219169083600160a060020a031602179055505062001a76565b600d805460018101620019e48382620020fc565b9160005260206000209001600086426301e13380630784ce008862001a0862002128565b600160a060020a03909516855260208501939093526040808501929092526060840152901515608083015260a09091019051809103906000f080151562001a4e57600080fd5b909190916101000a815481600160a060020a030219169083600160a060020a03160217905550505b600454600d8054600160a060020a039092169163a9059cbb919062001aa390600163ffffffff62001f2416565b8154811062001aae57fe5b6000918252602082200154600160a060020a03169086906040516020015260405160e060020a63ffffffff8516028152600160a060020a0390921660048301526024820152604401602060405180830381600087803b151562001b1057600080fd5b6102c65a03f1151562001b2257600080fd5b5050506040518051905015156200099657600080fd5b6a0422ca8b0a00a42500000081565b600a5433600160a060020a0390811691161462001b6357600080fd5b600160a060020a038116151562001b7957600080fd5b600a8054600160a060020a031916600160a060020a0392909216919091179055565b600b5433600160a060020a0390811691161462001bb757600080fd5b600c54600160a060020a031663b0e9a1ef8260405160e060020a63ffffffff84160281526004810191909152602401600060405180830381600087803b15156200098457600080fd5b630784ce0081565b6a027b46536c66c8e300000081565b60005433600160a060020a0390811691161462001c3357600080fd5b600454600160a060020a038281169116141562001c4f57600080fd5b600454600160a060020a031663df8de3e78260405160e060020a63ffffffff8416028152600160a060020a039091166004820152602401600060405180830381600087803b15156200098457600080fd5b600954600160a060020a031681565b60005433600160a060020a0390811691161462001ccb57600080fd5b600160a060020a0382161580159062001ceb575062001ce962001412565b155b801562001d025750600454600160a060020a031615155b151562001d0e57600080fd5b600b8054600160a060020a031916600160a060020a0384811691909117909155600454600554908216916323b872dd9116848460006040516020015260405160e060020a63ffffffff8616028152600160a060020a0393841660048201529190921660248201526044810191909152606401602060405180830381600087803b15156200176057600080fd5b600654600160a060020a031681565b505060005460a060020a900460ff1615919050565b60005433600160a060020a0390811691161462001dda57600080fd5b600354600160a060020a031615158062001e025750600454600160a060020a03838116911614155b151562001e0e57600080fd5b6200100a828262001f37565b60005433600160a060020a0390811691161462001e3657600080fd5b600160a060020a038116151562001e4c57600080fd5b600054600160a060020a0380831691167f8be0079c531659141344cd1fd0a4f28419497f9722a3daafe3b4186f6b6457e060405160405180910390a360008054600160a060020a031916600160a060020a0392909216919091179055565b6000806000fd5b600854600160a060020a031681565b69d3c21bcecceda100000081565b60008282018381101562001ede57fe5b9392505050565b600080828481151562001ef457fe5b04949350505050565b600082820283158062001f1b575082848281151562001f1857fe5b04145b151562001ede57fe5b60008282111562001f3157fe5b50900390565b60008054819033600160a060020a0390811691161462001f5657600080fd5b600160a060020a038416151562001fab5782600160a060020a03166108fc30600160a060020a0316319081150290604051600060405180830381858888f19350505050151562001fa557600080fd5b62000996565b83915081600160a060020a03166370a082313060006040516020015260405160e060020a63ffffffff8416028152600160a060020a039091166004820152602401602060405180830381600087803b15156200200657600080fd5b6102c65a03f115156200201857600080fd5b5050506040518051915050600160a060020a03821663a9059cbb848360006040516020015260405160e060020a63ffffffff8516028152600160a060020a0390921660048301526024820152604401602060405180830381600087803b15156200208157600080fd5b6102c65a03f115156200209357600080fd5b505050604051805190505082600160a060020a031684600160a060020a03167f21e9b296e283cad208b551b3c383bb74e34086eb5691fee8392dcce6794521c28360405190815260200160405180910390a350505050565b604051611015806200215b83390190565b81548183558181151162002123576000838152602090206200212391810190830162002139565b505050565b60405161090f806200317083390190565b6200150391905b8082111562002156576000815560010162002140565b509056006060604052341561000f57600080fd5b60405160608061101583398101604052808051919060200180519190602001805160008054600160a060020a033316600160a060020a0319909116179055600b949094555050600c55600d55610fab8061006a6000396000f3006060604052600436106101235763ffffffff60e060020a600035041662346b57811461012857806304c80c3c1461014c5780630d92e3e8146101715780630eb6f5431461018457806326c43d8f1461019757806328262dd1146101aa57806337a3931f146101bd57806342ef4c1a146101dc5780634a48314f146101ef5780634b86faba14610202578063685a73e0146102155780638da5cb5b1461023357806391e79c721461026257806393a378da14610275578063b0e9a1ef14610297578063b40d8d58146102ad578063be2b1047146102c0578063c899fa77146102d3578063d228cfc5146102e6578063d43a0b4c14610305578063d6192c6c14610318578063e2c208361461036e578063f2fde38b14610381578063fbd7d081146103a0575b600080fd5b341561013357600080fd5b61014a600160a060020a03600435166024356103b3565b005b341561015757600080fd5b61015f6105cc565b60405190815260200160405180910390f35b341561017c57600080fd5b61015f6105d2565b341561018f57600080fd5b61015f6105d8565b34156101a257600080fd5b61015f6105de565b34156101b557600080fd5b61015f6105e4565b34156101c857600080fd5b61014a600160a060020a03600435166105ea565b34156101e757600080fd5b61015f6106b1565b34156101fa57600080fd5b61015f6106b7565b341561020d57600080fd5b61014a6106bd565b341561022057600080fd5b61014a60048035602481019101356106c8565b341561023e57600080fd5b6102466106ff565b604051600160a060020a03909116815260200160405180910390f35b341561026d57600080fd5b61015f61070e565b341561028057600080fd5b61014a600160a060020a0360043516602435610714565b34156102a257600080fd5b61014a600435610848565b34156102b857600080fd5b61015f61090f565b34156102cb57600080fd5b61015f610915565b34156102de57600080fd5b61015f61091b565b34156102f157600080fd5b61014a600160a060020a0360043516610921565b341561031057600080fd5b61015f610cc6565b341561032357600080fd5b610337600160a060020a0360043516610ccc565b60405194855292151560208501529015156040808501919091529015156060840152901515608083015260a0909101905180910390f35b341561037957600080fd5b61015f610d04565b341561038c57600080fd5b61014a600160a060020a0360043516610e7b565b34156103ab57600080fd5b61015f610f16565b6000805433600160a060020a039081169116146103cf57600080fd5b60075415806103e057506007544211155b156105c757600160a060020a0383166000908152600160205260409020548214806104125750600160a060020a038316155b1561041c576105c7565b600160a060020a0383166000908152600160205260409020541580156104425750600082115b156104635760035461045b90600163ffffffff610f1c16565b6003556104a4565b600160a060020a038316600090815260016020526040812054118015610487575081155b156104a4576003546104a090600163ffffffff610f3216565b6003555b600160a060020a03831660009081526001602052604090205482116104f157600160a060020a0383166000908152600160205260409020546104ec908363ffffffff610f3216565b61051b565b600160a060020a03831660009081526001602052604090205461051b90839063ffffffff610f3216565b600160a060020a03841660009081526001602052604090205490915082111561055957600254610551908263ffffffff610f1c16565b600255610570565b60025461056c908263ffffffff610f3216565b6002555b600160a060020a038084166000818152600160205260409081902085905590913316907f531b6d98182f354ef73d680007a0fa84a81fa4a320e289e4f826150ad104fb1a9085905190815260200160405180910390a35b505050565b600c5481565b600e5481565b60055481565b60035481565b600d5481565b60005433600160a060020a0390811691161461060557600080fd5b600160a060020a0381166000908152600160205260408120541180156106485750600160a060020a0381166000908152600160208190526040909120015460ff16155b156106a557600160a060020a0381166000908152600160208190526040909120808201805460ff19169092179091555460025461068a9163ffffffff610f3216565b6002556003546106a190600163ffffffff610f3216565b6003555b6106ad610d04565b5050565b60095481565b60085481565b6106c633610921565b565b60005b818110156105c7576106f78383838181106106e257fe5b90506020020135600160a060020a0316610921565b6001016106cb565b600054600160a060020a031681565b60025481565b60005433600160a060020a0390811691161461072f57600080fd5b600754158061074057506007544211155b156106ad578015806107595750600160a060020a038216155b15610763576106ad565b600160a060020a038216600090815260016020526040902054151561079a5760035461079690600163ffffffff610f1c16565b6003555b600160a060020a0382166000908152600160205260409020546107c3908263ffffffff610f1c16565b600160a060020a0383166000908152600160205260409020556002546107ef908263ffffffff610f1c16565b600255600160a060020a03808316600081815260016020526040908190205491923316917f531b6d98182f354ef73d680007a0fa84a81fa4a320e289e4f826150ad104fb1a915190815260200160405180910390a35050565b60005433600160a060020a0390811691161461086357600080fd5b600754158061087457506007544211155b1561090c574281101561088657600080fd5b600781905561089e816276a70063ffffffff610f1c16565b6008556108b48162ed4e0063ffffffff610f1c16565b6009556108cb81630163f50063ffffffff610f1c16565b600a55600160a060020a0333167fc7ad31b0c99a40aa43822fbc49a68cf7f3eb3d52152a5c01a7f636e4481cf43f8260405190815260200160405180910390a25b50565b600a5481565b60075481565b60045481565b600160a060020a03811660009081526001602052604081205481901180156109665750600160a060020a0382166000908152600160208190526040909120015460ff16155b151561097157600080fd5b50600061097c610d04565b50600160a060020a03821660009081526001602081905260409091200154610100900460ff161580156109b157506008544210155b15610a3357600454600b54600160a060020a038416600090815260016020526040902054610a07926109fa9290916109ee9163ffffffff610f4416565b9063ffffffff610f6816565b829063ffffffff610f1c16565b600160a060020a038316600090815260016020819052604090912001805461ff00191661010017905590505b600160a060020a0382166000908152600160208190526040909120015462010000900460ff16158015610a6857506009544210155b15610ad357600554600c54600160a060020a038416600090815260016020526040902054610aa5926109fa9290916109ee9163ffffffff610f4416565b600160a060020a038316600090815260016020819052604090912001805462ff000019166201000017905590505b600160a060020a038216600090815260016020819052604090912001546301000000900460ff16158015610b095750600a544210155b15610b7657600654600d54600160a060020a038416600090815260016020526040902054610b46926109fa9290916109ee9163ffffffff610f4416565b600160a060020a038316600090815260016020819052604090912001805463ff0000001916630100000017905590505b60008111156106ad57600e54610b92908263ffffffff610f1c16565b600e5560008054600160a060020a0316906303d756cb90604051602001526040518163ffffffff1660e060020a028152600401602060405180830381600087803b1515610bde57600080fd5b6102c65a03f11515610bef57600080fd5b50505060405180519050600160a060020a031663a9059cbb838360006040516020015260405160e060020a63ffffffff8516028152600160a060020a0390921660048301526024820152604401602060405180830381600087803b1515610c5557600080fd5b6102c65a03f11515610c6657600080fd5b505050604051805190501515610c7b57600080fd5b81600160a060020a031633600160a060020a03167fd06980f1b54006ca63e8ddd2f4dafe76e8bcd6e7d7f333296f778781626af4268360405190815260200160405180910390a35050565b60065481565b6001602081905260009182526040909120805491015460ff808216916101008104821691620100008204811691630100000090041685565b60006008544210158015610d185750600454155b15610d24576002546004555b6009544210158015610d365750600554155b15610d42576002546005555b600a544210158015610d545750600654155b15610e7457600254600655600e54600c54600b5460008054610e709493610e64939092610e5892600160a060020a0316906303d756cb90604051602001526040518163ffffffff1660e060020a028152600401602060405180830381600087803b1515610dc057600080fd5b6102c65a03f11515610dd157600080fd5b50505060405180519050600160a060020a03166370a082313060006040516020015260405160e060020a63ffffffff8416028152600160a060020a039091166004820152602401602060405180830381600087803b1515610e3157600080fd5b6102c65a03f11515610e4257600080fd5b505050604051805191905063ffffffff610f3216565b9063ffffffff610f3216565b9063ffffffff610f1c16565b600d555b5060025490565b60005433600160a060020a03908116911614610e9657600080fd5b600160a060020a0381161515610eab57600080fd5b600054600160a060020a0380831691167f8be0079c531659141344cd1fd0a4f28419497f9722a3daafe3b4186f6b6457e060405160405180910390a36000805473ffffffffffffffffffffffffffffffffffffffff1916600160a060020a0392909216919091179055565b600b5481565b600082820183811015610f2b57fe5b9392505050565b600082821115610f3e57fe5b50900390565b6000828202831580610f605750828482811515610f5d57fe5b04145b1515610f2b57fe5b6000808284811515610f7657fe5b049493505050505600a165627a7a72305820edbb801c2489ac9c13e8afeb0e357a4fc6a6ef759e33906541ffb78beb37d33b00296060604052341561000f57600080fd5b60405160a08061090f833981016040528080519190602001805191906020018051919060200180519190602001805160008054600160a060020a03191633600160a060020a039081169190911790915590925086161515905061007157600080fd5b8183111561007e57600080fd5b60018054600160a060020a031916600160a060020a0387161790556005805460ff191682151517905560048290556100c384846401000000006100d2810261079b1704565b600255505050600355506100e8565b6000828201838110156100e157fe5b9392505050565b610818806100f76000396000f3006060604052600436106100ab5763ffffffff60e060020a6000350416630fb5a6b481146100b057806313d033c0146100d55780631726cbc8146100e85780631916558714610107578063384711cc1461012857806338af3eed1461014757806374a8f10314610176578063872a7810146101955780638da5cb5b146101bc5780639852595c146101cf578063be9a6555146101ee578063f2fde38b14610201578063fa01dc0614610220575b600080fd5b34156100bb57600080fd5b6100c361023f565b60405190815260200160405180910390f35b34156100e057600080fd5b6100c3610245565b34156100f357600080fd5b6100c3600160a060020a036004351661024b565b341561011257600080fd5b610126600160a060020a0360043516610283565b005b341561013357600080fd5b6100c3600160a060020a036004351661039c565b341561015257600080fd5b61015a6104dd565b604051600160a060020a03909116815260200160405180910390f35b341561018157600080fd5b610126600160a060020a03600435166104ec565b34156101a057600080fd5b6101a86106a9565b604051901515815260200160405180910390f35b34156101c757600080fd5b61015a6106b2565b34156101da57600080fd5b6100c3600160a060020a03600435166106c1565b34156101f957600080fd5b6100c36106d3565b341561020c57600080fd5b610126600160a060020a03600435166106d9565b341561022b57600080fd5b6101a8600160a060020a0360043516610774565b60045481565b60025481565b600160a060020a03811660009081526006602052604081205461027d906102718461039c565b9063ffffffff61078916565b92915050565b600061028e8261024b565b90506000811161029d57600080fd5b600160a060020a0382166000908152600660205260409020546102c6908263ffffffff61079b16565b600160a060020a0380841660008181526006602052604080822094909455600154919363a9059cbb939290921691859190516020015260405160e060020a63ffffffff8516028152600160a060020a0390921660048301526024820152604401602060405180830381600087803b151561033f57600080fd5b6102c65a03f1151561035057600080fd5b50505060405180519050151561036557600080fd5b7ffb81f9b30d73d830c3544b34d827c08142579ee75710b490bab0b3995468c5658160405190815260200160405180910390a15050565b600080600083600160a060020a03166370a082313060006040516020015260405160e060020a63ffffffff8416028152600160a060020a039091166004820152602401602060405180830381600087803b15156103f857600080fd5b6102c65a03f1151561040957600080fd5b5050506040518051600160a060020a03861660009081526006602052604090205490935061043f9150839063ffffffff61079b16565b905060025442101561045457600092506104d6565b6004546003546104699163ffffffff61079b16565b4210158061048f5750600160a060020a03841660009081526007602052604090205460ff165b1561049c578092506104d6565b6104d36004546104c76104ba6003544261078990919063ffffffff16565b849063ffffffff6107b116565b9063ffffffff6107d516565b92505b5050919050565b600154600160a060020a031681565b600080548190819033600160a060020a0390811691161461050c57600080fd5b60055460ff16151561051d57600080fd5b600160a060020a03841660009081526007602052604090205460ff161561054357600080fd5b83600160a060020a03166370a082313060006040516020015260405160e060020a63ffffffff8416028152600160a060020a039091166004820152602401602060405180830381600087803b151561059a57600080fd5b6102c65a03f115156105ab57600080fd5b5050506040518051905092506105c08461024b565b91506105d2838363ffffffff61078916565b600160a060020a03808616600081815260076020526040808220805460ff191660011790558154949550919363a9059cbb931691859190516020015260405160e060020a63ffffffff8516028152600160a060020a0390921660048301526024820152604401602060405180830381600087803b151561065157600080fd5b6102c65a03f1151561066257600080fd5b50505060405180519050151561067757600080fd5b7f44825a4b2df8acb19ce4e1afba9aa850c8b65cdb7942e2078f27d0b0960efee660405160405180910390a150505050565b60055460ff1681565b600054600160a060020a031681565b60066020526000908152604090205481565b60035481565b60005433600160a060020a039081169116146106f457600080fd5b600160a060020a038116151561070957600080fd5b600054600160a060020a0380831691167f8be0079c531659141344cd1fd0a4f28419497f9722a3daafe3b4186f6b6457e060405160405180910390a36000805473ffffffffffffffffffffffffffffffffffffffff1916600160a060020a0392909216919091179055565b60076020526000908152604090205460ff1681565b60008282111561079557fe5b50900390565b6000828201838110156107aa57fe5b9392505050565b60008282028315806107cd57508284828115156107ca57fe5b04145b15156107aa57fe5b60008082848115156107e357fe5b049493505050505600a165627a7a723058208ccfa760674ca66c537f4c6d86ef9203625662ec2565786590b55c8b39d0fabf0029a165627a7a7230582087ad8d95bdb260241355d8b465011b4f29726ca3a920b6bc5b1ad394910e9bbf0029",
  "source": "pragma solidity ^0.4.17;\n\nimport \"./SafeMath.sol\";\nimport \"./ERC20MiniMe.sol\";\nimport \"./Crowdsale.sol\";\nimport \"./TokenController.sol\";\nimport \"./Pausable.sol\";\nimport \"./Hodler.sol\";\nimport \"./TokenVesting.sol\";\nimport \"./HasNoTokens.sol\";\n\n\n/**\n * @title EthealController\n * @author thesved\n * @notice Controller of the Etheal Token\n * @dev Crowdsale can be only replaced when no active crowdsale is running.\n *  The contract is paused by default. It has to be unpaused to enable token transfer.\n */\ncontract EthealController is Pausable, HasNoTokens, TokenController {\n    using SafeMath for uint;\n\n    // when migrating this contains the address of the new controller\n    TokenController public newController;\n\n    // token contract\n    ERC20MiniMe public ethealToken;\n\n    // distribution of tokens\n    uint256 public constant ETHEAL_UNIT = 10**18;\n    uint256 public constant THOUSAND = 10**3;\n    uint256 public constant MILLION = 10**6;\n    uint256 public constant TOKEN_SALE1_PRE = 9 * MILLION * ETHEAL_UNIT;\n    uint256 public constant TOKEN_SALE1_NORMAL = 20 * MILLION * ETHEAL_UNIT;\n    uint256 public constant TOKEN_SALE2 = 9 * MILLION * ETHEAL_UNIT;\n    uint256 public constant TOKEN_SALE3 = 5 * MILLION * ETHEAL_UNIT;\n    uint256 public constant TOKEN_HODL_3M = 1 * MILLION * ETHEAL_UNIT;\n    uint256 public constant TOKEN_HODL_6M = 2 * MILLION * ETHEAL_UNIT;\n    uint256 public constant TOKEN_HODL_9M = 7 * MILLION * ETHEAL_UNIT;\n    uint256 public constant TOKEN_REFERRAL = 2 * MILLION * ETHEAL_UNIT;\n    uint256 public constant TOKEN_BOUNTY = 1500 * THOUSAND * ETHEAL_UNIT;\n    uint256 public constant TOKEN_COMMUNITY = 20 * MILLION * ETHEAL_UNIT;\n    uint256 public constant TOKEN_TEAM = 14 * MILLION * ETHEAL_UNIT;\n    uint256 public constant TOKEN_FOUNDERS = 6500 * THOUSAND * ETHEAL_UNIT;\n    uint256 public constant TOKEN_INVESTORS = 3 * MILLION * ETHEAL_UNIT;\n\n    // addresses only SALE will remain, the others will be real eth addresses\n    address public SALE = 0X1;\n    address public FOUNDER1 = 0X2;\n    address public FOUNDER2 = 0X3;\n    address public INVESTOR1 = 0X4;\n    address public INVESTOR2 = 0X5;\n\n    // addresses for multisig and crowdsale\n    address public ethealMultisigWallet;\n    Crowdsale public crowdsale;\n\n    // hodler reward contract\n    Hodler public hodlerReward;\n\n    // token grants\n    TokenVesting[] public tokenGrants;\n    uint256 public constant VESTING_TEAM_CLIFF = 365 days;\n    uint256 public constant VESTING_TEAM_DURATION = 4 * 365 days;\n    uint256 public constant VESTING_ADVISOR_CLIFF = 3 * 30 days;\n    uint256 public constant VESTING_ADVISOR_DURATION = 6 * 30 days;\n\n\n    /// @dev only the crowdsale can call it\n    modifier onlyCrowdsale() {\n        require(msg.sender == address(crowdsale));\n        _;\n    }\n\n    /// @dev only the crowdsale can call it\n    modifier onlyEthealMultisig() {\n        require(msg.sender == address(ethealMultisigWallet));\n        _;\n    }\n\n\n    ////////////////\n    // Constructor, overrides\n    ////////////////\n\n    /// @notice Constructor for Etheal Controller\n    function EthealController(address _wallet) {\n        require(_wallet != address(0));\n\n        paused = true;\n        ethealMultisigWallet = _wallet;\n    }\n\n    /// @dev overrides HasNoTokens#extractTokens to make it possible to extract any tokens after migration or before that any tokens except etheal\n    function extractTokens(address _token, address _claimer) onlyOwner public {\n        require(newController != address(0) || _token != address(ethealToken));\n\n        super.extractTokens(_token, _claimer);\n    }\n\n\n    ////////////////\n    // Manage crowdsale\n    ////////////////\n\n    /// @notice Set crowdsale address and transfer HEAL tokens from ethealController's SALE address\n    /// @dev Crowdsale can be only set when the current crowdsale is not active and ethealToken is set\n    function setCrowdsaleTransfer(address _sale, uint256 _amount) public onlyOwner {\n        require (_sale != address(0) && !isCrowdsaleOpen() && address(ethealToken) != address(0));\n\n        crowdsale = Crowdsale(_sale);\n\n        // transfer HEAL tokens to crowdsale account from the account of controller\n        require(ethealToken.transferFrom(SALE, _sale, _amount));\n    }\n\n    /// @notice Is there a not ended crowdsale?\n    /// @return true if there is no crowdsale or the current crowdsale is not yet ended but started\n    function isCrowdsaleOpen() public view returns (bool) {\n        return address(crowdsale) != address(0) && !crowdsale.hasEnded() && crowdsale.hasStarted();\n    }\n\n\n    ////////////////\n    // Manage grants\n    ////////////////\n\n    /// @notice Grant vesting token to an address\n    function createGrant(address _beneficiary, uint256 _amount, bool _revocable, bool _advisor) public onlyOwner {\n        require(_beneficiary != address(0) && _amount > 0);\n\n        // create token grant\n        if (_advisor) {\n            tokenGrants.push(new TokenVesting(_beneficiary, now, VESTING_ADVISOR_CLIFF, VESTING_ADVISOR_DURATION, _revocable));\n        } else {\n            tokenGrants.push(new TokenVesting(_beneficiary, now, VESTING_TEAM_CLIFF, VESTING_TEAM_DURATION, _revocable));\n        }\n\n        // transfer funds to the grant\n        require(ethealToken.transfer(address(tokenGrants[tokenGrants.length.sub(1)]), _amount));\n    }\n\n    /// @notice Transfer tokens to a grant until it is starting\n    function transferToGrant(uint256 _id, uint256 _amount) public onlyOwner {\n        require(_id < tokenGrants.length && _amount > 0 && now < tokenGrants[_id].start());\n\n        // transfer funds to the grant\n        require(ethealToken.transfer(address(tokenGrants[_id]), _amount));\n    }\n\n    /// @dev Revoking grant\n    function revokeGrant(uint256 _id) public onlyOwner {\n        require(_id < tokenGrants.length);\n\n        tokenGrants[_id].revoke(ethealToken);\n    }\n\n    /// @notice Returns the token grant count\n    function getGrantCount() view public returns (uint) {\n        return tokenGrants.length;\n    }\n\n\n    ////////////////\n    // BURN, handle ownership - only multsig can call these functions!\n    ////////////////\n\n    /// @notice contract can burn its own or its sale tokens\n    function burn(address _where, uint256 _amount) public onlyEthealMultisig {\n        require(_where == address(this) || _where == SALE);\n\n        require(ethealToken.destroyTokens(_where, _amount));\n    }\n\n    /// @notice replaces controller when it was not yet replaced, only multisig can do it\n    function setNewController(address _controller) public onlyEthealMultisig {\n        require(_controller != address(0) && newController == address(0));\n\n        newController = TokenController(_controller);\n        ethealToken.changeController(_controller);\n        hodlerReward.transferOwnership(_controller);\n\n        // send eth\n        uint256 _stake = this.balance;\n        if (_stake > 0)\n            _controller.transfer(_stake);\n\n        // send tokens\n        _stake = ethealToken.balanceOf(this);\n        if (_stake > 0)\n            ethealToken.transfer(_controller, _stake);\n    }\n\n    /// @notice Set new multisig wallet, to make it upgradable.\n    function setNewMultisig(address _wallet) public onlyEthealMultisig {\n        require(_wallet != address(0));\n\n        ethealMultisigWallet = _wallet;\n    }\n\n\n    ////////////////\n    // When PAUSED\n    ////////////////\n\n    /// @notice set the token, if no hodler provided then creates a hodler reward contract\n    function setEthealToken(address _token, address _hodler) public onlyOwner whenPaused {\n        require(_token != address(0));\n\n        ethealToken = ERC20MiniMe(_token);\n\n        \n        if (_hodler != address(0)) {\n            // set hodler reward contract if provided\n            hodlerReward = Hodler(_hodler);\n        } else if (hodlerReward == address(0)) {\n            // create hodler reward contract if not yet created\n            hodlerReward = new Hodler(TOKEN_HODL_3M, TOKEN_HODL_6M, TOKEN_HODL_9M);\n        }\n\n        // MINT tokens if not minted yet\n        if (ethealToken.totalSupply() == 0) {\n            // sale\n            ethealToken.generateTokens(SALE, TOKEN_SALE1_PRE.add(TOKEN_SALE1_NORMAL).add(TOKEN_SALE2).add(TOKEN_SALE3));\n            // hodler reward\n            ethealToken.generateTokens(address(hodlerReward), TOKEN_HODL_3M.add(TOKEN_HODL_6M).add(TOKEN_HODL_9M));\n            // bounty + referral\n            ethealToken.generateTokens(owner, TOKEN_BOUNTY.add(TOKEN_REFERRAL));\n            // community fund\n            ethealToken.generateTokens(address(ethealMultisigWallet), TOKEN_COMMUNITY);\n            // team -> grantable\n            ethealToken.generateTokens(address(this), TOKEN_FOUNDERS.add(TOKEN_TEAM));\n            // investors\n            ethealToken.generateTokens(INVESTOR1, TOKEN_INVESTORS.div(3).mul(2));\n            ethealToken.generateTokens(INVESTOR2, TOKEN_INVESTORS.div(3));\n        }\n    }\n\n\n    ////////////////\n    // Proxy for Hodler contract\n    ////////////////\n    \n    /// @notice Proxy call for setting hodler start time\n    function setHodlerTime(uint256 _time) public onlyCrowdsale {\n        hodlerReward.setHodlerTime(_time);\n    }\n\n    /// @notice Proxy call for adding hodler stake\n    function addHodlerStake(address _beneficiary, uint256 _stake) public onlyCrowdsale {\n        hodlerReward.addHodlerStake(_beneficiary, _stake);\n    }\n\n    /// @notice Proxy call for setting hodler stake\n    function setHodlerStake(address _beneficiary, uint256 _stake) public onlyCrowdsale {\n        hodlerReward.setHodlerStake(_beneficiary, _stake);\n    }\n\n\n    ////////////////\n    // MiniMe Controller functions\n    ////////////////\n\n    /// @notice No eth payment to the token contract\n    function proxyPayment(address _owner) payable public returns (bool) {\n        revert();\n    }\n\n    /// @notice Before transfers are enabled for everyone, only this and the crowdsale contract is allowed to distribute HEAL\n    function onTransfer(address _from, address _to, uint256 _amount) public returns (bool) {\n        // moving any funds makes hodl participation invalid\n        hodlerReward.invalidate(_from);\n\n        return !paused || _from == address(this) || _to == address(this) || _from == address(crowdsale) || _to == address(crowdsale);\n    }\n\n    function onApprove(address _owner, address _spender, uint256 _amount) public returns (bool) {\n        return !paused;\n    }\n\n    /// @notice Retrieve mistakenly sent tokens (other than the etheal token) from the token contract \n    function claimTokenTokens(address _token) public onlyOwner {\n        require(_token != address(ethealToken));\n\n        ethealToken.claimTokens(_token);\n    }\n}",
  "sourcePath": "/Users/tikonoff/projects/etheal-contracts/contracts/EthealController.sol",
  "compiler": {
    "name": "solc",
    "version": "0.4.19+commit.c4cbbb05.Emscripten.clang"
  },
  "schemaVersion": "1.0.1",
  "updatedAt": "2018-03-21T21:44:27.474Z"
}