{
  "contractName": "EthealPromoToken",
  "abi": [
    {
      "constant": false,
      "inputs": [
        {
          "name": "_spender",
          "type": "address"
        },
        {
          "name": "_value",
          "type": "uint256"
        }
      ],
      "name": "approve",
      "outputs": [
        {
          "name": "success",
          "type": "bool"
        }
      ],
      "payable": false,
      "stateMutability": "nonpayable",
      "type": "function"
    },
    {
      "constant": true,
      "inputs": [],
      "name": "totalSupply",
      "outputs": [
        {
          "name": "supply",
          "type": "uint256"
        }
      ],
      "payable": false,
      "stateMutability": "view",
      "type": "function"
    },
    {
      "constant": true,
      "inputs": [
        {
          "name": "_owner",
          "type": "address"
        }
      ],
      "name": "balanceOf",
      "outputs": [
        {
          "name": "balance",
          "type": "uint256"
        }
      ],
      "payable": false,
      "stateMutability": "view",
      "type": "function"
    },
    {
      "constant": true,
      "inputs": [],
      "name": "owner",
      "outputs": [
        {
          "name": "",
          "type": "address"
        }
      ],
      "payable": false,
      "stateMutability": "view",
      "type": "function"
    },
    {
      "constant": true,
      "inputs": [],
      "name": "crowdsale",
      "outputs": [
        {
          "name": "",
          "type": "address"
        }
      ],
      "payable": false,
      "stateMutability": "view",
      "type": "function"
    },
    {
      "constant": true,
      "inputs": [
        {
          "name": "_owner",
          "type": "address"
        },
        {
          "name": "_spender",
          "type": "address"
        }
      ],
      "name": "allowance",
      "outputs": [
        {
          "name": "remaining",
          "type": "uint256"
        }
      ],
      "payable": false,
      "stateMutability": "view",
      "type": "function"
    },
    {
      "constant": false,
      "inputs": [
        {
          "name": "_token",
          "type": "address"
        },
        {
          "name": "_claimer",
          "type": "address"
        }
      ],
      "name": "extractTokens",
      "outputs": [],
      "payable": false,
      "stateMutability": "nonpayable",
      "type": "function"
    },
    {
      "constant": false,
      "inputs": [
        {
          "name": "newOwner",
          "type": "address"
        }
      ],
      "name": "transferOwnership",
      "outputs": [],
      "payable": false,
      "stateMutability": "nonpayable",
      "type": "function"
    },
    {
      "inputs": [
        {
          "name": "_crowdsale",
          "type": "address"
        }
      ],
      "payable": false,
      "stateMutability": "nonpayable",
      "type": "constructor"
    },
    {
      "anonymous": false,
      "inputs": [
        {
          "indexed": true,
          "name": "_from",
          "type": "address"
        },
        {
          "indexed": true,
          "name": "_to",
          "type": "address"
        },
        {
          "indexed": false,
          "name": "_value",
          "type": "uint256"
        }
      ],
      "name": "Transfer",
      "type": "event"
    },
    {
      "anonymous": false,
      "inputs": [
        {
          "indexed": true,
          "name": "_owner",
          "type": "address"
        },
        {
          "indexed": true,
          "name": "_spender",
          "type": "address"
        },
        {
          "indexed": false,
          "name": "_value",
          "type": "uint256"
        }
      ],
      "name": "Approval",
      "type": "event"
    },
    {
      "anonymous": false,
      "inputs": [
        {
          "indexed": true,
          "name": "_token",
          "type": "address"
        },
        {
          "indexed": true,
          "name": "_claimer",
          "type": "address"
        },
        {
          "indexed": false,
          "name": "_amount",
          "type": "uint256"
        }
      ],
      "name": "ExtractedTokens",
      "type": "event"
    },
    {
      "anonymous": false,
      "inputs": [
        {
          "indexed": true,
          "name": "previousOwner",
          "type": "address"
        },
        {
          "indexed": true,
          "name": "newOwner",
          "type": "address"
        }
      ],
      "name": "OwnershipTransferred",
      "type": "event"
    },
    {
      "constant": false,
      "inputs": [
        {
          "name": "_crowdsale",
          "type": "address"
        }
      ],
      "name": "setCrowdsale",
      "outputs": [],
      "payable": false,
      "stateMutability": "nonpayable",
      "type": "function"
    },
    {
      "constant": true,
      "inputs": [],
      "name": "name",
      "outputs": [
        {
          "name": "result",
          "type": "string"
        }
      ],
      "payable": false,
      "stateMutability": "pure",
      "type": "function"
    },
    {
      "constant": true,
      "inputs": [],
      "name": "symbol",
      "outputs": [
        {
          "name": "result",
          "type": "string"
        }
      ],
      "payable": false,
      "stateMutability": "pure",
      "type": "function"
    },
    {
      "constant": true,
      "inputs": [],
      "name": "decimals",
      "outputs": [
        {
          "name": "result",
          "type": "uint8"
        }
      ],
      "payable": false,
      "stateMutability": "pure",
      "type": "function"
    },
    {
      "constant": false,
      "inputs": [
        {
          "name": "_to",
          "type": "address"
        },
        {
          "name": "_value",
          "type": "uint256"
        }
      ],
      "name": "transfer",
      "outputs": [
        {
          "name": "",
          "type": "bool"
        }
      ],
      "payable": false,
      "stateMutability": "nonpayable",
      "type": "function"
    },
    {
      "constant": false,
      "inputs": [
        {
          "name": "_from",
          "type": "address"
        },
        {
          "name": "_to",
          "type": "address"
        },
        {
          "name": "_value",
          "type": "uint256"
        }
      ],
      "name": "transferFrom",
      "outputs": [
        {
          "name": "",
          "type": "bool"
        }
      ],
      "payable": false,
      "stateMutability": "nonpayable",
      "type": "function"
    },
    {
      "constant": false,
      "inputs": [
        {
          "name": "_owners",
          "type": "address[]"
        }
      ],
      "name": "massNotify",
      "outputs": [],
      "payable": false,
      "stateMutability": "nonpayable",
      "type": "function"
    },
    {
      "constant": false,
      "inputs": [],
      "name": "kill",
      "outputs": [],
      "payable": false,
      "stateMutability": "nonpayable",
      "type": "function"
    }
  ],
  "bytecode": "0x6060604052341561000f57600080fd5b604051602080610e9e8339810160405280805160008054600160a060020a03338116600160a060020a031992831617909255600480549290931691161790555050610e3f8061005f6000396000f3006060604052600436106100cc5763ffffffff60e060020a60003504166306fdde0381146100d1578063095ea7b31461015b5780630e6848cc1461019157806318160ddd146101e257806323b872dd14610207578063313ce5671461022f57806341c0e1b514610258578063483a20b21461026b57806370a082311461028a5780638da5cb5b146102a957806395d89b41146102d85780639c1e03a0146102eb578063a9059cbb146102fe578063dd62ed3e14610320578063ed6b2d7d14610345578063f2fde38b1461036a575b600080fd5b34156100dc57600080fd5b6100e4610389565b60405160208082528190810183818151815260200191508051906020019080838360005b83811015610120578082015183820152602001610108565b50505050905090810190601f16801561014d5780820380516001836020036101000a031916815260200191505b509250505060405180910390f35b341561016657600080fd5b61017d600160a060020a03600435166024356103ca565b604051901515815260200160405180910390f35b341561019c57600080fd5b6101e0600460248135818101908301358060208181020160405190810160405280939291908181526020018383602002808284375094965061043795505050505050565b005b34156101ed57600080fd5b6101f56104c9565b60405190815260200160405180910390f35b341561021257600080fd5b61017d600160a060020a03600435811690602435166044356104cf565b341561023a57600080fd5b6102426104f8565b60405160ff909116815260200160405180910390f35b341561026357600080fd5b6101e06104fd565b341561027657600080fd5b6101e0600160a060020a0360043516610526565b341561029557600080fd5b6101f5600160a060020a0360043516610570565b34156102b457600080fd5b6102bc6105c5565b604051600160a060020a03909116815260200160405180910390f35b34156102e357600080fd5b6100e46105d4565b34156102f657600080fd5b6102bc610615565b341561030957600080fd5b61017d600160a060020a0360043516602435610624565b341561032b57600080fd5b6101f5600160a060020a036004358116906024351661064f565b341561035057600080fd5b6101e0600160a060020a036004358116906024351661067a565b341561037557600080fd5b6101e0600160a060020a0360043516610827565b610391610e01565b60408051908101604052600f81527f416e2045746865616c2050726f6d6f00000000000000000000000000000000006020820152905090565b600160a060020a03338116600081815260026020908152604080832094871680845294909152808220859055909291907f8c5be1e5ebec7d5bd14f71427d1e84f3dd0314c0f7b2291e5b200ac8c7c3b9259085905190815260200160405180910390a35060015b92915050565b60008054819033600160a060020a0390811691161461045557600080fd5b82519150600090505b818110156104c45782818151811061047257fe5b90602001906020020151600160a060020a031660007fddf252ad1be2c89b69c2b068fc378daa952ba7f163c4a11628f55a4df523b3ef61038f60405190815260200160405180910390a360010161045e565b505050565b60035490565b6000806104dd8585856108c2565b905080156104f0576104f0858585610914565b949350505050565b600090565b60005433600160a060020a0390811691161461051857600080fd5b600054600160a060020a0316ff5b60005433600160a060020a0390811691161461054157600080fd5b6004805473ffffffffffffffffffffffffffffffffffffffff1916600160a060020a0392909216919091179055565b600061043161057e836109ec565b600160a060020a0384166000908152600160205260409020547f7fffffffffffffffffffffffffffffffffffffffffffffffffffffffffffffff169063ffffffff610a6f16565b600054600160a060020a031681565b6105dc610e01565b60408051908101604052600581527f4845414c500000000000000000000000000000000000000000000000000000006020820152905090565b600454600160a060020a031681565b6000806106318484610a7e565b9050801561064457610644338585610914565b8091505b5092915050565b600160a060020a03918216600090815260026020908152604080832093909416825291909152205490565b60008054819033600160a060020a0390811691161461069857600080fd5b600160a060020a03841615156106ea5782600160a060020a03166108fc30600160a060020a0316319081150290604051600060405180830381858888f1935050505015156106e557600080fd5b610821565b83915081600160a060020a03166370a082313060006040516020015260405160e060020a63ffffffff8416028152600160a060020a039091166004820152602401602060405180830381600087803b151561074457600080fd5b6102c65a03f1151561075557600080fd5b5050506040518051915050600160a060020a03821663a9059cbb848360006040516020015260405160e060020a63ffffffff8516028152600160a060020a0390921660048301526024820152604401602060405180830381600087803b15156107bd57600080fd5b6102c65a03f115156107ce57600080fd5b505050604051805190505082600160a060020a031684600160a060020a03167f21e9b296e283cad208b551b3c383bb74e34086eb5691fee8392dcce6794521c28360405190815260200160405180910390a35b50505050565b60005433600160a060020a0390811691161461084257600080fd5b600160a060020a038116151561085757600080fd5b600054600160a060020a0380831691167f8be0079c531659141344cd1fd0a4f28419497f9722a3daafe3b4186f6b6457e060405160405180910390a36000805473ffffffffffffffffffffffffffffffffffffffff1916600160a060020a0392909216919091179055565b60006108ce843361064f565b8211156108dd5750600061090d565b6108e684610570565b8211156108f55750600061090d565b6108ff8483610ab3565b61090a848484610b58565b90505b9392505050565b600454600160a060020a0316151561092b576104c4565b801515610937576104c4565b600160a060020a03821660011480610960575030600160a060020a031682600160a060020a0316145b806109785750600454600160a060020a038381169116145b156104c457600454600160a060020a031663fe6129d5848360405160e060020a63ffffffff8516028152600160a060020a0390921660048301526024820152604401600060405180830381600087803b15156109d357600080fd5b6102c65a03f115156109e457600080fd5b505050505050565b600160a060020a038116600090815260016020526040812054819060ff60020a1615610a1b5760009150610a69565b610a2483610cca565b9150610a5b6003547f7fffffffffffffffffffffffffffffffffffffffffffffffffffffffffffffff610cf690919063ffffffff16565b905080821115610a69578091505b50919050565b60008282018381101561064457fe5b6000610a8933610570565b821115610a9857506000610431565b610aa23383610ab3565b610aac8383610d08565b9050610431565b600160a060020a0382166000908152600160205260408120549060ff60020a82161515610821578183111561082157610aeb846109ec565b905080610afe848463ffffffff610cf616565b1115610b0957600080fd5b610b19828263ffffffff610a6f16565b600160a060020a038516600090815260016020526040902060ff60020a919091179055600354610b4f908263ffffffff610a6f16565b60035550505050565b600160a060020a038084166000908152600260209081526040808320339094168352929052908120548183821015610b935760009250610cc1565b50600160a060020a03851660009081526001602052604090205483811015610bbe5760009250610cc1565b610bce828563ffffffff610cf616565b600160a060020a0380881660009081526002602090815260408083203390941683529290529081209190915584118015610c1a575084600160a060020a031686600160a060020a031614155b15610cbc57610c2f818563ffffffff610cf616565b600160a060020a038088166000908152600160205260408082209390935590871681522054610c64908563ffffffff610a6f16565b600160a060020a03808716600081815260016020526040908190209390935591908816907fddf252ad1be2c89b69c2b068fc378daa952ba7f163c4a11628f55a4df523b3ef9087905190815260200160405180910390a35b600192505b50509392505050565b600067016345785d8a000082600160a060020a0316311015610ced576000610431565b5061038f919050565b600082821115610d0257fe5b50900390565b600160a060020a03331660009081526001602052604081205482811015610d325760009150610648565b600083118015610d54575083600160a060020a031633600160a060020a031614155b15610df757610d69818463ffffffff610cf616565b600160a060020a033381166000908152600160205260408082209390935590861681522054610d9e908463ffffffff610a6f16565b600160a060020a0380861660008181526001602052604090819020939093559133909116907fddf252ad1be2c89b69c2b068fc378daa952ba7f163c4a11628f55a4df523b3ef9086905190815260200160405180910390a35b5060019392505050565b602060405190810160405260008152905600a165627a7a723058209b679137da02518a72f5867a7c794edbff7ad4d06665c9fcbf728a01d5da8cb90029",
  "source": "pragma solidity ^0.4.16;\n\nimport \"./HasNoTokens.sol\";\nimport \"./AbstractVirtualToken.sol\";\nimport \"./iEthealSale.sol\";\n\n/**\n * Etheal Promo ERC-20 contract\n * Author: thesved\n */\ncontract EthealPromoToken is HasNoTokens, AbstractVirtualToken {\n    // Balance threshold to assign virtual tokens to the owner of higher balances then this threshold.\n    uint256 private constant VIRTUAL_THRESHOLD = 0.1 ether;\n\n    // Number of virtual tokens to assign to the owners of balances higher than virtual threshold.\n    uint256 private constant VIRTUAL_COUNT = 911;\n\n    // crowdsale to set bonus when sending token\n    iEthealSale public crowdsale;\n\n\n    ////////////////\n    // Basic functions\n    ////////////////\n\n    /// @dev Constructor, crowdsale address can be 0x0\n    function EthealPromoToken(address _crowdsale) {\n        crowdsale = iEthealSale(_crowdsale);\n    }\n\n    /// @dev Setting crowdsale, crowdsale address can be 0x0\n    function setCrowdsale(address _crowdsale) public onlyOwner {\n        crowdsale = iEthealSale(_crowdsale);\n    }\n\n    /// @notice Get virtual balance of the owner of given address.\n    /// @param _owner address to get virtual balance for the owner\n    /// @return virtual balance of the owner of given address\n    function virtualBalanceOf(address _owner) internal view returns (uint256) {\n        return _owner.balance >= VIRTUAL_THRESHOLD ? VIRTUAL_COUNT : 0;\n    }\n\n    /// @notice Get name of this token.\n    function name() public pure returns (string result) {\n        return \"An Etheal Promo\";\n    }\n\n    /// @notice Get symbol of this token.\n    function symbol() public pure returns (string result) {\n        return \"HEALP\";\n    }\n\n    /// @notice Get number of decimals for this token.\n    function decimals() public pure returns (uint8 result) {\n        return 0;\n    }\n\n\n    ////////////////\n    // Set sale bonus\n    ////////////////\n\n    /// @dev Internal function for setting sale bonus\n    function setSaleBonus(address _from, address _to, uint256 _value) internal {\n        if (address(crowdsale) == address(0)) return;\n        if (_value == 0) return;\n\n        if (_to == address(1) || _to == address(this) || _to == address(crowdsale)) {\n            crowdsale.setPromoBonus(_from, _value);\n        }\n    }\n\n    /// @dev Override transfer function to set sale bonus\n    function transfer(address _to, uint256 _value) public returns (bool) {\n        bool success = super.transfer(_to, _value); \n\n        if (success) {\n            setSaleBonus(msg.sender, _to, _value);\n        }\n\n        return success;\n    }\n\n    /// @dev Override transfer function to set sale bonus\n    function transferFrom(address _from, address _to, uint256 _value) public returns (bool) {\n        bool success = super.transferFrom(_from, _to, _value);\n\n        if (success) {\n            setSaleBonus(_from, _to, _value);\n        }\n\n        return success;\n    }\n\n\n    ////////////////\n    // Extra\n    ////////////////\n\n    /// @notice Notify owners about their virtual balances.\n    function massNotify(address[] _owners) public onlyOwner {\n        uint256 count = _owners.length;\n        for (uint256 i = 0; i < count; i++) {\n            Transfer(address(0), _owners[i], VIRTUAL_COUNT);\n        }\n    }\n\n    /// @notice Kill this smart contract.\n    function kill() public onlyOwner {\n        selfdestruct(owner);\n    }\n\n    \n}",
  "sourcePath": "/Users/tikonoff/projects/etheal-contracts/contracts/EthealPromoToken.sol",
  "compiler": {
    "name": "solc",
    "version": "0.4.19+commit.c4cbbb05.Emscripten.clang"
  },
  "schemaVersion": "1.0.1",
  "updatedAt": "2018-03-21T21:44:27.549Z"
}