{
  "contractName": "EthealDeposit",
  "abi": [
    {
      "constant": true,
      "inputs": [
        {
          "name": "",
          "type": "address"
        },
        {
          "name": "",
          "type": "uint256"
        }
      ],
      "name": "addressTransactions",
      "outputs": [
        {
          "name": "",
          "type": "uint256"
        }
      ],
      "payable": false,
      "stateMutability": "view",
      "type": "function"
    },
    {
      "constant": true,
      "inputs": [],
      "name": "sale",
      "outputs": [
        {
          "name": "",
          "type": "address"
        }
      ],
      "payable": false,
      "stateMutability": "view",
      "type": "function"
    },
    {
      "constant": true,
      "inputs": [],
      "name": "owner",
      "outputs": [
        {
          "name": "",
          "type": "address"
        }
      ],
      "payable": false,
      "stateMutability": "view",
      "type": "function"
    },
    {
      "constant": true,
      "inputs": [],
      "name": "whitelist",
      "outputs": [
        {
          "name": "",
          "type": "address"
        }
      ],
      "payable": false,
      "stateMutability": "view",
      "type": "function"
    },
    {
      "constant": true,
      "inputs": [
        {
          "name": "",
          "type": "uint256"
        }
      ],
      "name": "transactions",
      "outputs": [
        {
          "name": "amount",
          "type": "uint256"
        },
        {
          "name": "beneficiary",
          "type": "address"
        },
        {
          "name": "time",
          "type": "uint64"
        },
        {
          "name": "cleared",
          "type": "bool"
        }
      ],
      "payable": false,
      "stateMutability": "view",
      "type": "function"
    },
    {
      "constant": true,
      "inputs": [],
      "name": "transactionCount",
      "outputs": [
        {
          "name": "",
          "type": "uint256"
        }
      ],
      "payable": false,
      "stateMutability": "view",
      "type": "function"
    },
    {
      "constant": true,
      "inputs": [],
      "name": "pendingCount",
      "outputs": [
        {
          "name": "",
          "type": "uint256"
        }
      ],
      "payable": false,
      "stateMutability": "view",
      "type": "function"
    },
    {
      "constant": false,
      "inputs": [
        {
          "name": "newOwner",
          "type": "address"
        }
      ],
      "name": "transferOwnership",
      "outputs": [],
      "payable": false,
      "stateMutability": "nonpayable",
      "type": "function"
    },
    {
      "inputs": [
        {
          "name": "_sale",
          "type": "address"
        },
        {
          "name": "_whitelist",
          "type": "address"
        }
      ],
      "payable": false,
      "stateMutability": "nonpayable",
      "type": "constructor"
    },
    {
      "payable": true,
      "stateMutability": "payable",
      "type": "fallback"
    },
    {
      "anonymous": false,
      "inputs": [
        {
          "indexed": true,
          "name": "beneficiary",
          "type": "address"
        },
        {
          "indexed": false,
          "name": "weiAmount",
          "type": "uint256"
        }
      ],
      "name": "Deposited",
      "type": "event"
    },
    {
      "anonymous": false,
      "inputs": [
        {
          "indexed": true,
          "name": "beneficiary",
          "type": "address"
        },
        {
          "indexed": false,
          "name": "weiAmount",
          "type": "uint256"
        },
        {
          "indexed": false,
          "name": "id",
          "type": "uint256"
        }
      ],
      "name": "Refunded",
      "type": "event"
    },
    {
      "anonymous": false,
      "inputs": [
        {
          "indexed": true,
          "name": "beneficiary",
          "type": "address"
        },
        {
          "indexed": false,
          "name": "weiAmount",
          "type": "uint256"
        },
        {
          "indexed": false,
          "name": "id",
          "type": "uint256"
        }
      ],
      "name": "Forwarded",
      "type": "event"
    },
    {
      "anonymous": false,
      "inputs": [
        {
          "indexed": true,
          "name": "_token",
          "type": "address"
        },
        {
          "indexed": true,
          "name": "_claimer",
          "type": "address"
        },
        {
          "indexed": false,
          "name": "_amount",
          "type": "uint256"
        }
      ],
      "name": "ExtractedTokens",
      "type": "event"
    },
    {
      "anonymous": false,
      "inputs": [
        {
          "indexed": true,
          "name": "previousOwner",
          "type": "address"
        },
        {
          "indexed": true,
          "name": "newOwner",
          "type": "address"
        }
      ],
      "name": "OwnershipTransferred",
      "type": "event"
    },
    {
      "constant": false,
      "inputs": [
        {
          "name": "_sale",
          "type": "address"
        }
      ],
      "name": "setSale",
      "outputs": [],
      "payable": false,
      "stateMutability": "nonpayable",
      "type": "function"
    },
    {
      "constant": false,
      "inputs": [
        {
          "name": "_whitelist",
          "type": "address"
        }
      ],
      "name": "setWhitelist",
      "outputs": [],
      "payable": false,
      "stateMutability": "nonpayable",
      "type": "function"
    },
    {
      "constant": false,
      "inputs": [
        {
          "name": "_token",
          "type": "address"
        },
        {
          "name": "_claimer",
          "type": "address"
        }
      ],
      "name": "extractTokens",
      "outputs": [],
      "payable": false,
      "stateMutability": "nonpayable",
      "type": "function"
    },
    {
      "constant": false,
      "inputs": [
        {
          "name": "_investor",
          "type": "address"
        },
        {
          "name": "_whitelistSign",
          "type": "bytes"
        }
      ],
      "name": "deposit",
      "outputs": [
        {
          "name": "",
          "type": "uint256"
        }
      ],
      "payable": true,
      "stateMutability": "payable",
      "type": "function"
    },
    {
      "constant": false,
      "inputs": [
        {
          "name": "_id",
          "type": "uint256"
        },
        {
          "name": "_whitelistSign",
          "type": "bytes"
        }
      ],
      "name": "forwardTransaction",
      "outputs": [],
      "payable": false,
      "stateMutability": "nonpayable",
      "type": "function"
    },
    {
      "constant": false,
      "inputs": [
        {
          "name": "_ids",
          "type": "uint256[]"
        }
      ],
      "name": "forwardManyTransaction",
      "outputs": [],
      "payable": false,
      "stateMutability": "nonpayable",
      "type": "function"
    },
    {
      "constant": false,
      "inputs": [
        {
          "name": "_investor",
          "type": "address"
        },
        {
          "name": "_whitelistSign",
          "type": "bytes"
        }
      ],
      "name": "forwardInvestorTransaction",
      "outputs": [],
      "payable": false,
      "stateMutability": "nonpayable",
      "type": "function"
    },
    {
      "constant": false,
      "inputs": [
        {
          "name": "_id",
          "type": "uint256"
        }
      ],
      "name": "refundTransaction",
      "outputs": [],
      "payable": false,
      "stateMutability": "nonpayable",
      "type": "function"
    },
    {
      "constant": false,
      "inputs": [
        {
          "name": "_ids",
          "type": "uint256[]"
        }
      ],
      "name": "refundManyTransaction",
      "outputs": [],
      "payable": false,
      "stateMutability": "nonpayable",
      "type": "function"
    },
    {
      "constant": false,
      "inputs": [
        {
          "name": "_investor",
          "type": "address"
        }
      ],
      "name": "refundInvestor",
      "outputs": [],
      "payable": false,
      "stateMutability": "nonpayable",
      "type": "function"
    },
    {
      "constant": true,
      "inputs": [
        {
          "name": "from",
          "type": "uint256"
        },
        {
          "name": "to",
          "type": "uint256"
        },
        {
          "name": "_cleared",
          "type": "bool"
        },
        {
          "name": "_nonCleared",
          "type": "bool"
        }
      ],
      "name": "getTransactionIds",
      "outputs": [
        {
          "name": "ids",
          "type": "uint256[]"
        }
      ],
      "payable": false,
      "stateMutability": "view",
      "type": "function"
    }
  ],
  "bytecode": "0x6060604052341561000f57600080fd5b604051604080611ed5833981016040528080519190602001805160008054600160a060020a03191633600160a060020a039081169190911790915590925083161515905061005c57600080fd5b60058054600160a060020a03938416600160a060020a03199182161790915560068054929093169116179055611e3e806100976000396000f3006060604052600436106100ed5763ffffffff60e060020a60003504166327dfddbc811461010857806336af50fd1461013c57806369f40ebc1461015d5780636ad1fe02146101bc578063854cff2f146101eb5780638da5cb5b1461020a578063937097881461021d57806393e59dc11461026c5780639ace38c21461027f578063a8abe69a146102d3578063b2f1fe9914610349578063b77bf60014610398578063bfce477f146103ab578063cf2c52cb14610401578063d4e678b814610455578063ea70b4af1461046b578063ed6b2d7d1461047e578063f2fde38b146104a3578063ff53c5a3146104c2575b610105336020604051908101604052600081526104e1565b50005b341561011357600080fd5b61012a600160a060020a0360043516602435610893565b60405190815260200160405180910390f35b341561014757600080fd5b61015b600160a060020a03600435166108c1565b005b341561016857600080fd5b61015b60048035600160a060020a03169060446024803590810190830135806020601f8201819004810201604051908101604052818152929190602084018383808284375094965061090b95505050505050565b34156101c757600080fd5b6101cf610cd2565b604051600160a060020a03909116815260200160405180910390f35b34156101f657600080fd5b61015b600160a060020a0360043516610ce1565b341561021557600080fd5b6101cf610d2b565b341561022857600080fd5b61015b6004602481358181019083013580602081810201604051908101604052809392919081815260200183836020028082843750949650610d3a95505050505050565b341561027757600080fd5b6101cf611008565b341561028a57600080fd5b610295600435611017565b604051938452600160a060020a03909216602084015267ffffffffffffffff1660408084019190915290151560608301526080909101905180910390f35b34156102de57600080fd5b6102f660043560243560443515156064351515611068565b60405160208082528190810183818151815260200191508051906020019060200280838360005b8381101561033557808201518382015260200161031d565b505050509050019250505060405180910390f35b341561035457600080fd5b61015b60046024813581810190830135806020818102016040519081016040528093929190818152602001838360200280828437509496506111af95505050505050565b34156103a357600080fd5b61012a61126e565b34156103b657600080fd5b61015b600480359060446024803590810190830135806020601f8201819004810201604051908101604052818152929190602084018383808284375094965061127495505050505050565b61012a60048035600160a060020a03169060446024803590810190830135806020601f820181900481020160405190810160405281815292919060208401838380828437509496506104e195505050505050565b341561046057600080fd5b61015b600435611325565b341561047657600080fd5b61012a6113c0565b341561048957600080fd5b61015b600160a060020a03600435811690602435166113c6565b34156104ae57600080fd5b61015b600160a060020a036004351661147c565b34156104cd57600080fd5b61015b600160a060020a0360043516611517565b6006546000908190600160a060020a031615156104fd57600080fd5b600554600160a060020a0316158015906105775750600554600160a060020a031663ecb70fb76000604051602001526040518163ffffffff1660e060020a028152600401602060405180830381600087803b151561055a57600080fd5b6102c65a03f1151561056b57600080fd5b50505060405180519050155b151561058257600080fd5b600160a060020a038416151561059757600080fd5b600034116105a457600080fd5b600554600160a060020a031663aaffadf36000604051602001526040518163ffffffff1660e060020a028152600401602060405180830381600087803b15156105ec57600080fd5b6102c65a03f115156105fd57600080fd5b5050506040518051341015905061061357600080fd5b61061d8434611605565b600654909150600160a060020a0316633af32abf8560006040516020015260405160e060020a63ffffffff8416028152600160a060020a039091166004820152602401602060405180830381600087803b151561067957600080fd5b6102c65a03f1151561068a57600080fd5b50505060405180519050806107855750600654600160a060020a031663a30bdea485856000604051602001526040518363ffffffff1660e060020a0281526004018083600160a060020a0316600160a060020a0316815260200180602001828103825283818151815260200191508051906020019080838360005b8381101561071d578082015183820152602001610705565b50505050905090810190601f16801561074a5780820380516001836020036101000a031916815260200191505b509350505050602060405180830381600087803b151561076957600080fd5b6102c65a03f1151561077a57600080fd5b505050604051805190505b806108775750600554610811903490600160a060020a03166316934fc48760006040516020015260405160e060020a63ffffffff8416028152600160a060020a039091166004820152602401602060405180830381600087803b15156107ea57600080fd5b6102c65a03f115156107fb57600080fd5b505050604051805191905063ffffffff61179d16565b600554600160a060020a031663b5dadb176000604051602001526040518163ffffffff1660e060020a028152600401602060405180830381600087803b151561085957600080fd5b6102c65a03f1151561086a57600080fd5b5050506040518051905010155b156108885761088681846117ac565b505b8091505b5092915050565b6004602052816000526040600020818154811015156108ae57fe5b6000918252602090912001549150829050565b60005433600160a060020a039081169116146108dc57600080fd5b6005805473ffffffffffffffffffffffffffffffffffffffff1916600160a060020a0392909216919091179055565b600654600090819081908190600160a060020a0316151561092b57600080fd5b600554600160a060020a0316158015906109a55750600554600160a060020a031663ecb70fb76000604051602001526040518163ffffffff1660e060020a028152600401602060405180830381600087803b151561098857600080fd5b6102c65a03f1151561099957600080fd5b50505060405180519050155b15156109b057600080fd5b600654600160a060020a0316633af32abf8760006040516020015260405160e060020a63ffffffff8416028152600160a060020a039091166004820152602401602060405180830381600087803b1515610a0957600080fd5b6102c65a03f11515610a1a57600080fd5b5050506040518051905080610b155750600654600160a060020a031663a30bdea487876000604051602001526040518363ffffffff1660e060020a0281526004018083600160a060020a0316600160a060020a0316815260200180602001828103825283818151815260200191508051906020019080838360005b83811015610aad578082015183820152602001610a95565b50505050905090810190601f168015610ada5780820380516001836020036101000a031916815260200191505b509350505050602060405180830381600087803b1515610af957600080fd5b6102c65a03f11515610b0a57600080fd5b505050604051805190505b600554909450600160a060020a03166316934fc48760006040516020015260405160e060020a63ffffffff8416028152600160a060020a039091166004820152602401602060405180830381600087803b1515610b7157600080fd5b6102c65a03f11515610b8257600080fd5b5050506040518051600554909450600160a060020a0316905063b5dadb176000604051602001526040518163ffffffff1660e060020a028152600401602060405180830381600087803b1515610bd757600080fd5b6102c65a03f11515610be857600080fd5b5050506040518051925060009150505b600160a060020a038616600090815260046020526040902054811015610cca57600160a060020a03861660009081526004602052604081208054610c7292600392909185908110610c4557fe5b9060005260206000209001548152602001908152602001600020600001548461179d90919063ffffffff16565b92508380610c805750828210155b15610cc257600160a060020a03861660009081526004602052604090208054610cc0919083908110610cae57fe5b906000526020600020900154866117ac565b505b600101610bf8565b505050505050565b600554600160a060020a031681565b60005433600160a060020a03908116911614610cfc57600080fd5b6006805473ffffffffffffffffffffffffffffffffffffffff1916600160a060020a0392909216919091179055565b600054600160a060020a031681565b6006546000908190600160a060020a03161515610d5657600080fd5b600554600160a060020a031615801590610dd05750600554600160a060020a031663ecb70fb76000604051602001526040518163ffffffff1660e060020a028152600401602060405180830381600087803b1515610db357600080fd5b6102c65a03f11515610dc457600080fd5b50505060405180519050155b1515610ddb57600080fd5b600554600160a060020a031663b5dadb176000604051602001526040518163ffffffff1660e060020a028152600401602060405180830381600087803b1515610e2357600080fd5b6102c65a03f11515610e3457600080fd5b5050506040518051925060009150505b825181101561100357600654600160a060020a0316633af32abf60036000868581518110610e6e57fe5b90602001906020020151815260208101919091526040908101600090812060010154600160a060020a031691516020015260405160e060020a63ffffffff8416028152600160a060020a039091166004820152602401602060405180830381600087803b1515610edd57600080fd5b6102c65a03f11515610eee57600080fd5b5050506040518051905080610fc75750610fc360036000858481518110610f1157fe5b90602001906020020151815260208101919091526040016000908120546005549091600160a060020a03909116906316934fc490600390888781518110610f5457fe5b90602001906020020151815260208101919091526040908101600090812060010154600160a060020a031691516020015260405160e060020a63ffffffff8416028152600160a060020a039091166004820152602401602060405180830381600087803b15156107ea57600080fd5b8210155b15610ffb57610ff9838281518110610fdb57fe5b906020019060200201516020604051908101604052600081526117ac565b505b600101610e44565b505050565b600654600160a060020a031681565b60036020526000908152604090208054600190910154600160a060020a0381169074010000000000000000000000000000000000000000810467ffffffffffffffff169060e060020a900460ff1684565b611070611dc0565b60008061107b611dc0565b60009250600091506001546040518059106110935750595b90808252806020026020018201604052509050600092505b600154831015611134578580156110da575060008381526003602052604090206001015460e060020a900460ff165b806111065750848015611106575060008381526003602052604090206001015460e060020a900460ff16155b15611129578281838151811061111857fe5b602090810290910101526001909101905b6001909201916110ab565b816040518059106111425750595b908082528060200260200182016040525093508792505b86831115801561116857508183105b156111a45780838151811061117957fe5b9060200190602002015184848151811061118f57fe5b60209081029091010152600190920191611159565b505050949350505050565b600554600090600160a060020a03161580159061122b5750600554600160a060020a031663ecb70fb76000604051602001526040518163ffffffff1660e060020a028152600401602060405180830381600087803b151561120f57600080fd5b6102c65a03f1151561122057600080fd5b505050604051805190505b151561123657600080fd5b5060005b815181101561126a5761126182828151811061125257fe5b90602001906020020151611a2b565b5060010161123a565b5050565b60015481565b600654600160a060020a0316151561128b57600080fd5b600554600160a060020a0316158015906113055750600554600160a060020a031663ecb70fb76000604051602001526040518163ffffffff1660e060020a028152600401602060405180830381600087803b15156112e857600080fd5b6102c65a03f115156112f957600080fd5b50505060405180519050155b151561131057600080fd5b61131a82826117ac565b151561126a57600080fd5b600554600160a060020a03161580159061139e5750600554600160a060020a031663ecb70fb76000604051602001526040518163ffffffff1660e060020a028152600401602060405180830381600087803b151561138257600080fd5b6102c65a03f1151561139357600080fd5b505050604051805190505b15156113a957600080fd5b6113b281611a2b565b15156113bd57600080fd5b50565b60025481565b60005433600160a060020a039081169116146113e157600080fd5b600554600160a060020a03161580159061145a5750600554600160a060020a031663ecb70fb76000604051602001526040518163ffffffff1660e060020a028152600401602060405180830381600087803b151561143e57600080fd5b6102c65a03f1151561144f57600080fd5b505050604051805190505b151561146557600080fd5b6002541561147257600080fd5b61126a8282611b56565b60005433600160a060020a0390811691161461149757600080fd5b600160a060020a03811615156114ac57600080fd5b600054600160a060020a0380831691167f8be0079c531659141344cd1fd0a4f28419497f9722a3daafe3b4186f6b6457e060405160405180910390a36000805473ffffffffffffffffffffffffffffffffffffffff1916600160a060020a0392909216919091179055565b600554600090600160a060020a0316158015906115935750600554600160a060020a031663ecb70fb76000604051602001526040518163ffffffff1660e060020a028152600401602060405180830381600087803b151561157757600080fd5b6102c65a03f1151561158857600080fd5b505050604051805190505b151561159e57600080fd5b5060005b600160a060020a03821660009081526004602052604090205481101561126a57600160a060020a038216600090815260046020526040902080546115fc9190839081106115eb57fe5b906000526020600020900154611a2b565b506001016115a2565b60015460009060806040519081016040908152848252600160a060020a03861660208084019190915267ffffffffffffffff42168284015260006060840181905284815260039091522081518155602082015160018201805473ffffffffffffffffffffffffffffffffffffffff1916600160a060020a039290921691909117905560408201518160010160146101000a81548167ffffffffffffffff021916908367ffffffffffffffff16021790555060608201516001918201805491151560e060020a027cff0000000000000000000000000000000000000000000000000000000019909216919091179055600160a060020a0386166000908152600460205260409020805490925090810161171d8382611dd2565b5060009182526020909120018190556001805461173f9163ffffffff61179d16565b60019081556002546117569163ffffffff61179d16565b600255600160a060020a0384167f2da466a7b24304f47e87fa2e1e5a81b9831ce54fec19055ce277ca2f39ba42c48460405190815260200160405180910390a29392505050565b60008282018381101561088857fe5b60006117b6611dc0565b60015484106117c457600080fd5b60008481526003602052604090206001015460e060020a900460ff16156117ee576000915061088c565b6117f9836060611d03565b6005546000868152600360205260409081902054929350600160a060020a039091169190517f6465706f73697445746828616464726573732c75696e743235362c627974657381527f29000000000000000000000000000000000000000000000000000000000000006020820152602101604051908190039020600087815260036020526040908190206001015460e060020a9092049291600160a060020a038116917401000000000000000000000000000000000000000090910467ffffffffffffffff16908690518563ffffffff1660e060020a0281526004018084600160a060020a0316600160a060020a03168152602001838152602001828051906020019080838360005b8381101561191a578082015183820152602001611902565b50505050905090810190601f1680156119475780820380516001836020036101000a031916815260200191505b50935050505060006040518083038185886187965a03f193505050501515611972576000915061088c565b6000848152600360205260409020600190810180547cff00000000000000000000000000000000000000000000000000000000191660e060020a1790556002546119c19163ffffffff611d9716565b6002556000848152600360205260409081902060018101549054600160a060020a03909116917f508d484c7d38f63a9dd5d0f185c94934490afb203eac6a4384c60dc612962b88919087905191825260208201526040908101905180910390a25060019392505050565b6001546000908210611a3c57600080fd5b60008281526003602052604090206001015460e060020a900460ff1615611a6557506000611b51565b600082815260036020526040908190206001810180547cff00000000000000000000000000000000000000000000000000000000191660e060020a17908190559054600160a060020a039091169181156108fc02919051600060405180830381858888f193505050501515611ad957600080fd5b600254611aed90600163ffffffff611d9716565b6002556000828152600360205260409081902060018101549054600160a060020a03909116917f2dc8e290002f06fc0085bbca9dfb8b415cf4d1178950c72ff9ee8f4d8878ee66919085905191825260208201526040908101905180910390a25060015b919050565b60008054819033600160a060020a03908116911614611b7457600080fd5b600160a060020a0384161515611bc65782600160a060020a03166108fc30600160a060020a0316319081150290604051600060405180830381858888f193505050501515611bc157600080fd5b611cfd565b83915081600160a060020a03166370a082313060006040516020015260405160e060020a63ffffffff8416028152600160a060020a039091166004820152602401602060405180830381600087803b1515611c2057600080fd5b6102c65a03f11515611c3157600080fd5b5050506040518051915050600160a060020a03821663a9059cbb848360006040516020015260405160e060020a63ffffffff8516028152600160a060020a0390921660048301526024820152604401602060405180830381600087803b1515611c9957600080fd5b6102c65a03f11515611caa57600080fd5b505050604051805190505082600160a060020a031684600160a060020a03167f21e9b296e283cad208b551b3c383bb74e34086eb5691fee8392dcce6794521c28360405190815260200160405180910390a35b50505050565b611d0b611dc0565b600080600085519250611d2583604063ffffffff61179d16565b9150611d496020611d3d85601f63ffffffff61179d16565b9063ffffffff611da916565b905060405182815285602082015283604082015260005b82811015611d84578060010160200288015160206003830102830152600101611d60565b5091820160200160405250949350505050565b600082821115611da357fe5b50900390565b6000808284811515611db757fe5b04949350505050565b60206040519081016040526000815290565b81548183558181151161100357600083815260209020611003918101908301611e0f91905b80821115611e0b5760008155600101611df7565b5090565b905600a165627a7a72305820887086c4c7c813922bbb7f729ebbfc45ef90d76e2c5b7a3993b548f750e0d10b0029",
  "source": "pragma solidity ^0.4.17;\n\nimport './SafeMath.sol';\nimport './Ownable.sol';\nimport './HasNoTokens.sol';\nimport './EthealWhitelist.sol';\nimport './iEthealSale.sol';\n\n/**\n * @title EthealDeposit\n * @author thesved\n * @dev This contract is used for storing funds while doing Whitelist\n */\ncontract EthealDeposit is Ownable, HasNoTokens {\n    using SafeMath for uint256;\n\n    // storing deposits: make sure they fit in 2 x 32 byte\n    struct Deposit {\n        uint256 amount;         // 32 byte\n        address beneficiary;    // 20 byte\n        uint64 time;            // 8 byte\n        bool cleared;           // 1 bit\n    }\n    uint256 public transactionCount;\n    uint256 public pendingCount;\n    mapping (uint256 => Deposit) public transactions;    // store transactions\n    mapping (address => uint256[]) public addressTransactions;  // store transaction ids for addresses\n    \n    // sale contract to which we forward funds\n    iEthealSale public sale;\n    EthealWhitelist public whitelist;\n\n    event Deposited(address indexed beneficiary, uint256 weiAmount);\n    event Refunded(address indexed beneficiary, uint256 weiAmount, uint256 id);\n    event Forwarded(address indexed beneficiary, uint256 weiAmount, uint256 id);\n\n    ////////////////\n    // Constructor\n    ////////////////\n\n    /// @notice Etheal deposit constructor\n    /// @param _sale address of sale contract\n    /// @param _whitelist address of whitelist contract\n    function EthealDeposit(address _sale, address _whitelist) {\n        require(_sale != address(0));\n        sale = iEthealSale(_sale);\n        whitelist = EthealWhitelist(_whitelist);\n    }\n\n    /// @notice Set sale contract address\n    function setSale(address _sale) public onlyOwner {\n        sale = iEthealSale(_sale);\n    }\n\n    /// @notice Set whitelist contract address\n    function setWhitelist(address _whitelist) public onlyOwner {\n        whitelist = EthealWhitelist(_whitelist);\n    }\n\n    /// @dev Override HasNoTokens#extractTokens to not be able to extract tokens until saleEnd and everyone got their funds back\n    function extractTokens(address _token, address _claimer) public onlyOwner saleEnded {\n        require(pendingCount == 0);\n\n        super.extractTokens(_token, _claimer);\n    }\n\n\n    ////////////////\n    // Deposit, forward, refund\n    ////////////////\n\n    modifier whitelistSet() {\n        require(address(whitelist) != address(0));\n        _;\n    }\n\n    modifier saleNotEnded() {\n        require(address(sale) != address(0) && !sale.hasEnded());\n        _;\n    }\n\n    modifier saleEnded() {\n        require(address(sale) != address(0) && sale.hasEnded());\n        _;\n    }\n\n    /// @notice payable fallback calls the deposit function\n    function() public payable {\n        deposit(msg.sender, \"\");\n    }\n\n    /// @notice depositing for investor, return transaction Id\n    /// @param _investor address of investor\n    /// @param _whitelistSign offchain whitelist signiture for address, optional\n    function deposit(address _investor, bytes _whitelistSign) public payable whitelistSet saleNotEnded returns (uint256) {\n        require(_investor != address(0));\n        require(msg.value > 0);\n        require(msg.value >= sale.minContribution());\n\n        uint256 transactionId = addTransaction(_investor, msg.value);\n\n        // forward transaction automatically if whitelist is okay, so the transaction doesnt revert\n        if (whitelist.isWhitelisted(_investor) \n            || whitelist.isOffchainWhitelisted(_investor, _whitelistSign) \n            || sale.whitelistThreshold() >= sale.stakes(_investor).add(msg.value)\n        ) {\n            forwardTransactionInternal(transactionId, _whitelistSign);\n        }\n\n        return transactionId;\n    }\n\n    /// @notice forwarding a transaction\n    function forwardTransaction(uint256 _id, bytes _whitelistSign) public whitelistSet saleNotEnded {\n        require(forwardTransactionInternal(_id, _whitelistSign));\n    }\n\n    /// @notice forwarding multiple transactions: check whitelist\n    function forwardManyTransaction(uint256[] _ids) public whitelistSet saleNotEnded {\n        uint256 _threshold = sale.whitelistThreshold();\n\n        for (uint256 i=0; i<_ids.length; i++) {\n            // only forward if it is within threshold or whitelisted, so the transaction doesnt revert\n            if ( whitelist.isWhitelisted(transactions[_ids[i]].beneficiary) \n                || _threshold >= sale.stakes(transactions[_ids[i]].beneficiary).add(transactions[_ids[i]].amount )\n            ) {\n                forwardTransactionInternal(_ids[i],\"\");\n            }\n        }\n    }\n\n    /// @notice forwarding transactions for an investor\n    function forwardInvestorTransaction(address _investor, bytes _whitelistSign) public whitelistSet saleNotEnded {\n        bool _whitelisted = whitelist.isWhitelisted(_investor) || whitelist.isOffchainWhitelisted(_investor, _whitelistSign);\n        uint256 _amount = sale.stakes(_investor);\n        uint256 _threshold = sale.whitelistThreshold();\n\n        for (uint256 i=0; i<addressTransactions[_investor].length; i++) {\n            _amount = _amount.add(transactions[ addressTransactions[_investor][i] ].amount);\n            // only forward if it is within threshold or whitelisted, so the transaction doesnt revert\n            if (_whitelisted || _threshold >= _amount) {\n                forwardTransactionInternal(addressTransactions[_investor][i], _whitelistSign);\n            }\n        }\n    }\n\n    /// @notice refunding a transaction\n    function refundTransaction(uint256 _id) public saleEnded {\n        require(refundTransactionInternal(_id));\n    }\n\n    /// @notice refunding multiple transactions\n    function refundManyTransaction(uint256[] _ids) public saleEnded {\n        for (uint256 i=0; i<_ids.length; i++) {\n            refundTransactionInternal(_ids[i]);\n        }\n    }\n\n    /// @notice refunding an investor\n    function refundInvestor(address _investor) public saleEnded {\n        for (uint256 i=0; i<addressTransactions[_investor].length; i++) {\n            refundTransactionInternal(addressTransactions[_investor][i]);\n        }\n    }\n\n\n    ////////////////\n    // Internal functions\n    ////////////////\n\n    /// @notice add transaction and returns its id\n    function addTransaction(address _investor, uint256 _amount) internal returns (uint256) {\n        uint256 transactionId = transactionCount;\n\n        // save transaction\n        transactions[transactionId] = Deposit({\n            amount: _amount,\n            beneficiary: _investor,\n            time: uint64(now),\n            cleared : false\n        });\n\n        // save transactionId for investor address\n        addressTransactions[_investor].push(transactionId);\n\n        transactionCount = transactionCount.add(1);\n        pendingCount = pendingCount.add(1);\n        Deposited(_investor,_amount);\n\n        return transactionId;\n    }\n\n    /// @notice Forwarding a transaction, internal function, doesn't check sale status for speed up mass actions.\n    /// @return whether forward was successful or not\n    function forwardTransactionInternal(uint256 _id, bytes memory _whitelistSign) internal returns (bool) {\n        require(_id < transactionCount);\n\n        // if already cleared then return false\n        if (transactions[_id].cleared) {\n            return false;\n        }\n\n        // fixing bytes data to argument call data: data -> {data position}{data length}data\n        bytes memory _whitelistCall = bytesToArgument(_whitelistSign, 96);\n\n        // forwarding transaction to sale contract\n        if (! sale.call.value(transactions[_id].amount)(bytes4(keccak256('depositEth(address,uint256,bytes)')), transactions[_id].beneficiary, uint256(transactions[_id].time), _whitelistCall) ) {\n            return false;\n        }\n        transactions[_id].cleared = true;\n\n        pendingCount = pendingCount.sub(1);\n        Forwarded(transactions[_id].beneficiary, transactions[_id].amount, _id);\n\n        return true;\n    }\n\n    /// @dev Fixing low level call for providing signature information: create proper padding for bytes information\n    function bytesToArgument(bytes memory _sign, uint256 _position) internal pure returns (bytes memory c) {\n        uint256 signLength = _sign.length;\n        uint256 totalLength = signLength.add(64);\n        uint256 loopMax = signLength.add(31).div(32);\n        assembly {\n            let m := mload(0x40)\n            mstore(m, totalLength)          // store the total length\n            mstore(add(m,32), _position)    // where does the data start\n            mstore(add(m,64), signLength)   // store the length of signature\n            for {  let i := 0 } lt(i, loopMax) { i := add(1, i) } { mstore(add(m, mul(32, add(3, i))), mload(add(_sign, mul(32, add(1, i))))) }\n            mstore(0x40, add(m, add(32, totalLength)))\n            c := m\n        }\n    }\n\n    /// @notice Send back non-cleared transactions after sale is over, not checking status for speeding up mass actions\n    function refundTransactionInternal(uint256 _id) internal returns (bool) {\n        require(_id < transactionCount);\n\n        // if already cleared then return false\n        if (transactions[_id].cleared) {\n            return false;\n        }\n\n        // sending back funds\n        transactions[_id].cleared = true;\n        transactions[_id].beneficiary.transfer(transactions[_id].amount);\n\n        pendingCount = pendingCount.sub(1);\n        Refunded(transactions[_id].beneficiary, transactions[_id].amount, _id);\n\n        return true;\n    }\n\n\n    ////////////////\n    // External functions\n    ////////////////\n\n    /// @notice gives back transaction ids based on filtering\n    function getTransactionIds(uint256 from, uint256 to, bool _cleared, bool _nonCleared) view external returns (uint256[] ids) {\n        uint256 i = 0;\n        uint256 results = 0;\n        uint256[] memory _ids = new uint256[](transactionCount);\n\n        // search in contributors\n        for (i = 0; i < transactionCount; i++) {\n            if (_cleared && transactions[i].cleared || _nonCleared && !transactions[i].cleared) {\n                _ids[results] = i;\n                results++;\n            }\n        }\n\n        ids = new uint256[](results);\n        for (i = from; i <= to && i < results; i++) {\n            ids[i] = _ids[i];\n        }\n\n        return ids;\n    }\n}",
  "sourcePath": "/Users/tikonoff/projects/etheal-contracts/contracts/EthealDeposit.sol",
  "compiler": {
    "name": "solc",
    "version": "0.4.19+commit.c4cbbb05.Emscripten.clang"
  },
  "schemaVersion": "1.0.1",
  "updatedAt": "2018-03-21T21:44:27.493Z"
}