{
  "contractName": "EthealWhitelist",
  "abi": [
    {
      "constant": true,
      "inputs": [],
      "name": "signer",
      "outputs": [
        {
          "name": "",
          "type": "address"
        }
      ],
      "payable": false,
      "stateMutability": "view",
      "type": "function"
    },
    {
      "constant": true,
      "inputs": [
        {
          "name": "",
          "type": "address"
        }
      ],
      "name": "isWhitelisted",
      "outputs": [
        {
          "name": "",
          "type": "bool"
        }
      ],
      "payable": false,
      "stateMutability": "view",
      "type": "function"
    },
    {
      "constant": true,
      "inputs": [],
      "name": "owner",
      "outputs": [
        {
          "name": "",
          "type": "address"
        }
      ],
      "payable": false,
      "stateMutability": "view",
      "type": "function"
    },
    {
      "constant": false,
      "inputs": [
        {
          "name": "newOwner",
          "type": "address"
        }
      ],
      "name": "transferOwnership",
      "outputs": [],
      "payable": false,
      "stateMutability": "nonpayable",
      "type": "function"
    },
    {
      "inputs": [
        {
          "name": "_signer",
          "type": "address"
        }
      ],
      "payable": false,
      "stateMutability": "nonpayable",
      "type": "constructor"
    },
    {
      "anonymous": false,
      "inputs": [
        {
          "indexed": true,
          "name": "_address",
          "type": "address"
        },
        {
          "indexed": false,
          "name": "_state",
          "type": "bool"
        }
      ],
      "name": "WhitelistSet",
      "type": "event"
    },
    {
      "anonymous": false,
      "inputs": [
        {
          "indexed": true,
          "name": "previousOwner",
          "type": "address"
        },
        {
          "indexed": true,
          "name": "newOwner",
          "type": "address"
        }
      ],
      "name": "OwnershipTransferred",
      "type": "event"
    },
    {
      "constant": false,
      "inputs": [
        {
          "name": "_signer",
          "type": "address"
        }
      ],
      "name": "setSigner",
      "outputs": [],
      "payable": false,
      "stateMutability": "nonpayable",
      "type": "function"
    },
    {
      "constant": false,
      "inputs": [
        {
          "name": "_addr",
          "type": "address"
        },
        {
          "name": "_state",
          "type": "bool"
        }
      ],
      "name": "setWhitelist",
      "outputs": [],
      "payable": false,
      "stateMutability": "nonpayable",
      "type": "function"
    },
    {
      "constant": false,
      "inputs": [
        {
          "name": "_addr",
          "type": "address[]"
        },
        {
          "name": "_state",
          "type": "bool"
        }
      ],
      "name": "setManyWhitelist",
      "outputs": [],
      "payable": false,
      "stateMutability": "nonpayable",
      "type": "function"
    },
    {
      "constant": true,
      "inputs": [
        {
          "name": "_addr",
          "type": "address"
        },
        {
          "name": "_sig",
          "type": "bytes"
        }
      ],
      "name": "isOffchainWhitelisted",
      "outputs": [
        {
          "name": "",
          "type": "bool"
        }
      ],
      "payable": false,
      "stateMutability": "view",
      "type": "function"
    }
  ],
  "bytecode": "0x6060604052341561000f57600080fd5b6040516020806106508339810160405280805160008054600160a060020a03191633600160a060020a039081169190911790915590925082161515905061005557600080fd5b60018054600160a060020a031916600160a060020a03929092169190911790556105cc806100846000396000f30060606040526004361061008d5763ffffffff7c0100000000000000000000000000000000000000000000000000000000600035041663238ac93381146100925780633af32abf146100c157806344539c72146100f457806353d6fd59146101495780636c19e7831461016d5780638da5cb5b1461018c578063a30bdea41461019f578063f2fde38b146101fe575b600080fd5b341561009d57600080fd5b6100a561021d565b604051600160a060020a03909116815260200160405180910390f35b34156100cc57600080fd5b6100e0600160a060020a036004351661022c565b604051901515815260200160405180910390f35b34156100ff57600080fd5b61014760046024813581810190830135806020818102016040519081016040528093929190818152602001838360200280828437509496505050509135151591506102419050565b005b341561015457600080fd5b610147600160a060020a03600435166024351515610296565b341561017857600080fd5b610147600160a060020a0360043516610325565b341561019757600080fd5b6100a5610384565b34156101aa57600080fd5b6100e060048035600160a060020a03169060446024803590810190830135806020601f8201819004810201604051908101604052818152929190602084018383808284375094965061039395505050505050565b341561020957600080fd5b610147600160a060020a0360043516610505565b600154600160a060020a031681565b60026020526000908152604090205460ff1681565b6000805433600160a060020a0390811691161461025d57600080fd5b5060005b82518110156102915761028983828151811061027957fe5b9060200190602002015183610296565b600101610261565b505050565b60005433600160a060020a039081169116146102b157600080fd5b600160a060020a03821615156102c657600080fd5b600160a060020a03821660008181526002602052604090819020805460ff19168415151790557f0aa5ec5ffdc7f6f9c4d0dded489d7450297155cb2f71cb771e02427f7dff4f5190839051901515815260200160405180910390a25050565b60005433600160a060020a0390811691161461034057600080fd5b600160a060020a038116151561035557600080fd5b6001805473ffffffffffffffffffffffffffffffffffffffff1916600160a060020a0392909216919091179055565b600054600160a060020a031681565b600080836040517f19457468657265756d205369676e6564204d6573736167653a0a3230000000008152600160a060020a03919091166c0100000000000000000000000002601c820152603001604051908190039020600154909150600160a060020a031673__ECRecovery____________________________6319045a2583866000604051602001526040517c010000000000000000000000000000000000000000000000000000000063ffffffff851602815260048101838152604060248301908152909160440183818151815260200191508051906020019080838360005b8381101561048d578082015183820152602001610475565b50505050905090810190601f1680156104ba5780820380516001836020036101000a031916815260200191505b50935050505060206040518083038186803b15156104d757600080fd5b6102c65a03f415156104e857600080fd5b50505060405180519050600160a060020a03161491505092915050565b60005433600160a060020a0390811691161461052057600080fd5b600160a060020a038116151561053557600080fd5b600054600160a060020a0380831691167f8be0079c531659141344cd1fd0a4f28419497f9722a3daafe3b4186f6b6457e060405160405180910390a36000805473ffffffffffffffffffffffffffffffffffffffff1916600160a060020a03929092169190911790555600a165627a7a7230582038aa0266c76e91bc9e58c5ee79336f97d8256384f4301548963d1ad15c137c2c0029",
  "source": "pragma solidity ^0.4.17;\n\nimport \"./Ownable.sol\";\nimport \"./ECRecovery.sol\";\n\n/**\n * @title EthealWhitelist\n * @author thesved\n * @notice EthealWhitelist contract which handles KYC\n */\ncontract EthealWhitelist is Ownable {\n    using ECRecovery for bytes32;\n\n    // signer address for offchain whitelist signing\n    address public signer;\n\n    // storing whitelisted addresses\n    mapping(address => bool) public isWhitelisted;\n\n    event WhitelistSet(address indexed _address, bool _state);\n\n    ////////////////\n    // Constructor\n    ////////////////\n    function EthealWhitelist(address _signer) {\n        require(_signer != address(0));\n\n        signer = _signer;\n    }\n\n    /// @notice set signing address after deployment\n    function setSigner(address _signer) public onlyOwner {\n        require(_signer != address(0));\n\n        signer = _signer;\n    }\n\n    ////////////////\n    // Whitelisting: only owner\n    ////////////////\n\n    /// @notice Set whitelist state for an address.\n    function setWhitelist(address _addr, bool _state) public onlyOwner {\n        require(_addr != address(0));\n        isWhitelisted[_addr] = _state;\n        WhitelistSet(_addr, _state);\n    }\n\n    /// @notice Set whitelist state for multiple addresses\n    function setManyWhitelist(address[] _addr, bool _state) public onlyOwner {\n        for (uint256 i = 0; i < _addr.length; i++) {\n            setWhitelist(_addr[i], _state);\n        }\n    }\n\n    /// @notice offchain whitelist check\n    function isOffchainWhitelisted(address _addr, bytes _sig) public view returns (bool) {\n        bytes32 hash = keccak256(\"\\x19Ethereum Signed Message:\\n20\",_addr);\n        return hash.recover(_sig) == signer;\n    }\n}",
  "sourcePath": "/Users/tikonoff/projects/etheal-contracts/contracts/EthealWhitelist.sol",
  "compiler": {
    "name": "solc",
    "version": "0.4.19+commit.c4cbbb05.Emscripten.clang"
  },
  "schemaVersion": "1.0.1",
  "updatedAt": "2018-03-21T21:44:27.654Z"
}