{
  "contractName": "Hodler",
  "abi": [
    {
      "constant": true,
      "inputs": [],
      "name": "TOKEN_HODL_6M",
      "outputs": [
        {
          "name": "",
          "type": "uint256"
        }
      ],
      "payable": false,
      "stateMutability": "view",
      "type": "function"
    },
    {
      "constant": true,
      "inputs": [],
      "name": "claimedTokens",
      "outputs": [
        {
          "name": "",
          "type": "uint256"
        }
      ],
      "payable": false,
      "stateMutability": "view",
      "type": "function"
    },
    {
      "constant": true,
      "inputs": [],
      "name": "hodlerTotalValue6M",
      "outputs": [
        {
          "name": "",
          "type": "uint256"
        }
      ],
      "payable": false,
      "stateMutability": "view",
      "type": "function"
    },
    {
      "constant": true,
      "inputs": [],
      "name": "hodlerTotalCount",
      "outputs": [
        {
          "name": "",
          "type": "uint256"
        }
      ],
      "payable": false,
      "stateMutability": "view",
      "type": "function"
    },
    {
      "constant": true,
      "inputs": [],
      "name": "TOKEN_HODL_9M",
      "outputs": [
        {
          "name": "",
          "type": "uint256"
        }
      ],
      "payable": false,
      "stateMutability": "view",
      "type": "function"
    },
    {
      "constant": true,
      "inputs": [],
      "name": "hodlerTime6M",
      "outputs": [
        {
          "name": "",
          "type": "uint256"
        }
      ],
      "payable": false,
      "stateMutability": "view",
      "type": "function"
    },
    {
      "constant": true,
      "inputs": [],
      "name": "hodlerTime3M",
      "outputs": [
        {
          "name": "",
          "type": "uint256"
        }
      ],
      "payable": false,
      "stateMutability": "view",
      "type": "function"
    },
    {
      "constant": true,
      "inputs": [],
      "name": "owner",
      "outputs": [
        {
          "name": "",
          "type": "address"
        }
      ],
      "payable": false,
      "stateMutability": "view",
      "type": "function"
    },
    {
      "constant": true,
      "inputs": [],
      "name": "hodlerTotalValue",
      "outputs": [
        {
          "name": "",
          "type": "uint256"
        }
      ],
      "payable": false,
      "stateMutability": "view",
      "type": "function"
    },
    {
      "constant": true,
      "inputs": [],
      "name": "hodlerTime9M",
      "outputs": [
        {
          "name": "",
          "type": "uint256"
        }
      ],
      "payable": false,
      "stateMutability": "view",
      "type": "function"
    },
    {
      "constant": true,
      "inputs": [],
      "name": "hodlerTimeStart",
      "outputs": [
        {
          "name": "",
          "type": "uint256"
        }
      ],
      "payable": false,
      "stateMutability": "view",
      "type": "function"
    },
    {
      "constant": true,
      "inputs": [],
      "name": "hodlerTotalValue3M",
      "outputs": [
        {
          "name": "",
          "type": "uint256"
        }
      ],
      "payable": false,
      "stateMutability": "view",
      "type": "function"
    },
    {
      "constant": true,
      "inputs": [],
      "name": "hodlerTotalValue9M",
      "outputs": [
        {
          "name": "",
          "type": "uint256"
        }
      ],
      "payable": false,
      "stateMutability": "view",
      "type": "function"
    },
    {
      "constant": true,
      "inputs": [
        {
          "name": "",
          "type": "address"
        }
      ],
      "name": "hodlerStakes",
      "outputs": [
        {
          "name": "stake",
          "type": "uint256"
        },
        {
          "name": "invalid",
          "type": "bool"
        },
        {
          "name": "claimed3M",
          "type": "bool"
        },
        {
          "name": "claimed6M",
          "type": "bool"
        },
        {
          "name": "claimed9M",
          "type": "bool"
        }
      ],
      "payable": false,
      "stateMutability": "view",
      "type": "function"
    },
    {
      "constant": false,
      "inputs": [
        {
          "name": "newOwner",
          "type": "address"
        }
      ],
      "name": "transferOwnership",
      "outputs": [],
      "payable": false,
      "stateMutability": "nonpayable",
      "type": "function"
    },
    {
      "constant": true,
      "inputs": [],
      "name": "TOKEN_HODL_3M",
      "outputs": [
        {
          "name": "",
          "type": "uint256"
        }
      ],
      "payable": false,
      "stateMutability": "view",
      "type": "function"
    },
    {
      "inputs": [
        {
          "name": "_stake3m",
          "type": "uint256"
        },
        {
          "name": "_stake6m",
          "type": "uint256"
        },
        {
          "name": "_stake9m",
          "type": "uint256"
        }
      ],
      "payable": false,
      "stateMutability": "nonpayable",
      "type": "constructor"
    },
    {
      "anonymous": false,
      "inputs": [
        {
          "indexed": true,
          "name": "_setter",
          "type": "address"
        },
        {
          "indexed": true,
          "name": "_beneficiary",
          "type": "address"
        },
        {
          "indexed": false,
          "name": "_value",
          "type": "uint256"
        }
      ],
      "name": "LogHodlSetStake",
      "type": "event"
    },
    {
      "anonymous": false,
      "inputs": [
        {
          "indexed": true,
          "name": "_setter",
          "type": "address"
        },
        {
          "indexed": true,
          "name": "_beneficiary",
          "type": "address"
        },
        {
          "indexed": false,
          "name": "_value",
          "type": "uint256"
        }
      ],
      "name": "LogHodlClaimed",
      "type": "event"
    },
    {
      "anonymous": false,
      "inputs": [
        {
          "indexed": true,
          "name": "_setter",
          "type": "address"
        },
        {
          "indexed": false,
          "name": "_time",
          "type": "uint256"
        }
      ],
      "name": "LogHodlStartSet",
      "type": "event"
    },
    {
      "anonymous": false,
      "inputs": [
        {
          "indexed": true,
          "name": "previousOwner",
          "type": "address"
        },
        {
          "indexed": true,
          "name": "newOwner",
          "type": "address"
        }
      ],
      "name": "OwnershipTransferred",
      "type": "event"
    },
    {
      "constant": false,
      "inputs": [
        {
          "name": "_beneficiary",
          "type": "address"
        },
        {
          "name": "_stake",
          "type": "uint256"
        }
      ],
      "name": "addHodlerStake",
      "outputs": [],
      "payable": false,
      "stateMutability": "nonpayable",
      "type": "function"
    },
    {
      "constant": false,
      "inputs": [
        {
          "name": "_beneficiary",
          "type": "address"
        },
        {
          "name": "_stake",
          "type": "uint256"
        }
      ],
      "name": "setHodlerStake",
      "outputs": [],
      "payable": false,
      "stateMutability": "nonpayable",
      "type": "function"
    },
    {
      "constant": false,
      "inputs": [
        {
          "name": "_time",
          "type": "uint256"
        }
      ],
      "name": "setHodlerTime",
      "outputs": [],
      "payable": false,
      "stateMutability": "nonpayable",
      "type": "function"
    },
    {
      "constant": false,
      "inputs": [
        {
          "name": "_account",
          "type": "address"
        }
      ],
      "name": "invalidate",
      "outputs": [],
      "payable": false,
      "stateMutability": "nonpayable",
      "type": "function"
    },
    {
      "constant": false,
      "inputs": [],
      "name": "claimHodlReward",
      "outputs": [],
      "payable": false,
      "stateMutability": "nonpayable",
      "type": "function"
    },
    {
      "constant": false,
      "inputs": [
        {
          "name": "_beneficiary",
          "type": "address"
        }
      ],
      "name": "claimHodlRewardFor",
      "outputs": [],
      "payable": false,
      "stateMutability": "nonpayable",
      "type": "function"
    },
    {
      "constant": false,
      "inputs": [
        {
          "name": "_beneficiaries",
          "type": "address[]"
        }
      ],
      "name": "claimHodlRewardsFor",
      "outputs": [],
      "payable": false,
      "stateMutability": "nonpayable",
      "type": "function"
    },
    {
      "constant": false,
      "inputs": [],
      "name": "updateAndGetHodlTotalValue",
      "outputs": [
        {
          "name": "",
          "type": "uint256"
        }
      ],
      "payable": false,
      "stateMutability": "nonpayable",
      "type": "function"
    }
  ],
  "bytecode": "0x6060604052341561000f57600080fd5b60405160608061101583398101604052808051919060200180519190602001805160008054600160a060020a033316600160a060020a0319909116179055600b949094555050600c55600d55610fab8061006a6000396000f3006060604052600436106101235763ffffffff60e060020a600035041662346b57811461012857806304c80c3c1461014c5780630d92e3e8146101715780630eb6f5431461018457806326c43d8f1461019757806328262dd1146101aa57806337a3931f146101bd57806342ef4c1a146101dc5780634a48314f146101ef5780634b86faba14610202578063685a73e0146102155780638da5cb5b1461023357806391e79c721461026257806393a378da14610275578063b0e9a1ef14610297578063b40d8d58146102ad578063be2b1047146102c0578063c899fa77146102d3578063d228cfc5146102e6578063d43a0b4c14610305578063d6192c6c14610318578063e2c208361461036e578063f2fde38b14610381578063fbd7d081146103a0575b600080fd5b341561013357600080fd5b61014a600160a060020a03600435166024356103b3565b005b341561015757600080fd5b61015f6105cc565b60405190815260200160405180910390f35b341561017c57600080fd5b61015f6105d2565b341561018f57600080fd5b61015f6105d8565b34156101a257600080fd5b61015f6105de565b34156101b557600080fd5b61015f6105e4565b34156101c857600080fd5b61014a600160a060020a03600435166105ea565b34156101e757600080fd5b61015f6106b1565b34156101fa57600080fd5b61015f6106b7565b341561020d57600080fd5b61014a6106bd565b341561022057600080fd5b61014a60048035602481019101356106c8565b341561023e57600080fd5b6102466106ff565b604051600160a060020a03909116815260200160405180910390f35b341561026d57600080fd5b61015f61070e565b341561028057600080fd5b61014a600160a060020a0360043516602435610714565b34156102a257600080fd5b61014a600435610848565b34156102b857600080fd5b61015f61090f565b34156102cb57600080fd5b61015f610915565b34156102de57600080fd5b61015f61091b565b34156102f157600080fd5b61014a600160a060020a0360043516610921565b341561031057600080fd5b61015f610cc6565b341561032357600080fd5b610337600160a060020a0360043516610ccc565b60405194855292151560208501529015156040808501919091529015156060840152901515608083015260a0909101905180910390f35b341561037957600080fd5b61015f610d04565b341561038c57600080fd5b61014a600160a060020a0360043516610e7b565b34156103ab57600080fd5b61015f610f16565b6000805433600160a060020a039081169116146103cf57600080fd5b60075415806103e057506007544211155b156105c757600160a060020a0383166000908152600160205260409020548214806104125750600160a060020a038316155b1561041c576105c7565b600160a060020a0383166000908152600160205260409020541580156104425750600082115b156104635760035461045b90600163ffffffff610f1c16565b6003556104a4565b600160a060020a038316600090815260016020526040812054118015610487575081155b156104a4576003546104a090600163ffffffff610f3216565b6003555b600160a060020a03831660009081526001602052604090205482116104f157600160a060020a0383166000908152600160205260409020546104ec908363ffffffff610f3216565b61051b565b600160a060020a03831660009081526001602052604090205461051b90839063ffffffff610f3216565b600160a060020a03841660009081526001602052604090205490915082111561055957600254610551908263ffffffff610f1c16565b600255610570565b60025461056c908263ffffffff610f3216565b6002555b600160a060020a038084166000818152600160205260409081902085905590913316907f531b6d98182f354ef73d680007a0fa84a81fa4a320e289e4f826150ad104fb1a9085905190815260200160405180910390a35b505050565b600c5481565b600e5481565b60055481565b60035481565b600d5481565b60005433600160a060020a0390811691161461060557600080fd5b600160a060020a0381166000908152600160205260408120541180156106485750600160a060020a0381166000908152600160208190526040909120015460ff16155b156106a557600160a060020a0381166000908152600160208190526040909120808201805460ff19169092179091555460025461068a9163ffffffff610f3216565b6002556003546106a190600163ffffffff610f3216565b6003555b6106ad610d04565b5050565b60095481565b60085481565b6106c633610921565b565b60005b818110156105c7576106f78383838181106106e257fe5b90506020020135600160a060020a0316610921565b6001016106cb565b600054600160a060020a031681565b60025481565b60005433600160a060020a0390811691161461072f57600080fd5b600754158061074057506007544211155b156106ad578015806107595750600160a060020a038216155b15610763576106ad565b600160a060020a038216600090815260016020526040902054151561079a5760035461079690600163ffffffff610f1c16565b6003555b600160a060020a0382166000908152600160205260409020546107c3908263ffffffff610f1c16565b600160a060020a0383166000908152600160205260409020556002546107ef908263ffffffff610f1c16565b600255600160a060020a03808316600081815260016020526040908190205491923316917f531b6d98182f354ef73d680007a0fa84a81fa4a320e289e4f826150ad104fb1a915190815260200160405180910390a35050565b60005433600160a060020a0390811691161461086357600080fd5b600754158061087457506007544211155b1561090c574281101561088657600080fd5b600781905561089e816276a70063ffffffff610f1c16565b6008556108b48162ed4e0063ffffffff610f1c16565b6009556108cb81630163f50063ffffffff610f1c16565b600a55600160a060020a0333167fc7ad31b0c99a40aa43822fbc49a68cf7f3eb3d52152a5c01a7f636e4481cf43f8260405190815260200160405180910390a25b50565b600a5481565b60075481565b60045481565b600160a060020a03811660009081526001602052604081205481901180156109665750600160a060020a0382166000908152600160208190526040909120015460ff16155b151561097157600080fd5b50600061097c610d04565b50600160a060020a03821660009081526001602081905260409091200154610100900460ff161580156109b157506008544210155b15610a3357600454600b54600160a060020a038416600090815260016020526040902054610a07926109fa9290916109ee9163ffffffff610f4416565b9063ffffffff610f6816565b829063ffffffff610f1c16565b600160a060020a038316600090815260016020819052604090912001805461ff00191661010017905590505b600160a060020a0382166000908152600160208190526040909120015462010000900460ff16158015610a6857506009544210155b15610ad357600554600c54600160a060020a038416600090815260016020526040902054610aa5926109fa9290916109ee9163ffffffff610f4416565b600160a060020a038316600090815260016020819052604090912001805462ff000019166201000017905590505b600160a060020a038216600090815260016020819052604090912001546301000000900460ff16158015610b095750600a544210155b15610b7657600654600d54600160a060020a038416600090815260016020526040902054610b46926109fa9290916109ee9163ffffffff610f4416565b600160a060020a038316600090815260016020819052604090912001805463ff0000001916630100000017905590505b60008111156106ad57600e54610b92908263ffffffff610f1c16565b600e5560008054600160a060020a0316906303d756cb90604051602001526040518163ffffffff1660e060020a028152600401602060405180830381600087803b1515610bde57600080fd5b6102c65a03f11515610bef57600080fd5b50505060405180519050600160a060020a031663a9059cbb838360006040516020015260405160e060020a63ffffffff8516028152600160a060020a0390921660048301526024820152604401602060405180830381600087803b1515610c5557600080fd5b6102c65a03f11515610c6657600080fd5b505050604051805190501515610c7b57600080fd5b81600160a060020a031633600160a060020a03167fd06980f1b54006ca63e8ddd2f4dafe76e8bcd6e7d7f333296f778781626af4268360405190815260200160405180910390a35050565b60065481565b6001602081905260009182526040909120805491015460ff808216916101008104821691620100008204811691630100000090041685565b60006008544210158015610d185750600454155b15610d24576002546004555b6009544210158015610d365750600554155b15610d42576002546005555b600a544210158015610d545750600654155b15610e7457600254600655600e54600c54600b5460008054610e709493610e64939092610e5892600160a060020a0316906303d756cb90604051602001526040518163ffffffff1660e060020a028152600401602060405180830381600087803b1515610dc057600080fd5b6102c65a03f11515610dd157600080fd5b50505060405180519050600160a060020a03166370a082313060006040516020015260405160e060020a63ffffffff8416028152600160a060020a039091166004820152602401602060405180830381600087803b1515610e3157600080fd5b6102c65a03f11515610e4257600080fd5b505050604051805191905063ffffffff610f3216565b9063ffffffff610f3216565b9063ffffffff610f1c16565b600d555b5060025490565b60005433600160a060020a03908116911614610e9657600080fd5b600160a060020a0381161515610eab57600080fd5b600054600160a060020a0380831691167f8be0079c531659141344cd1fd0a4f28419497f9722a3daafe3b4186f6b6457e060405160405180910390a36000805473ffffffffffffffffffffffffffffffffffffffff1916600160a060020a0392909216919091179055565b600b5481565b600082820183811015610f2b57fe5b9392505050565b600082821115610f3e57fe5b50900390565b6000828202831580610f605750828482811515610f5d57fe5b04145b1515610f2b57fe5b6000808284811515610f7657fe5b049493505050505600a165627a7a72305820edbb801c2489ac9c13e8afeb0e357a4fc6a6ef759e33906541ffb78beb37d33b0029",
  "source": "pragma solidity ^0.4.17;\n\nimport './TokenController.sol';\nimport './SafeMath.sol';\nimport './Ownable.sol';\n\n/**\n * @title Hodler\n * @dev Handles hodler reward, TokenController should create and own it.\n */\ncontract Hodler is Ownable {\n    using SafeMath for uint;\n\n    // HODLER reward tracker\n    // stake amount per address\n    struct HODL {\n        uint256 stake;\n        // moving ANY funds invalidates hodling of the address\n        bool invalid;\n        bool claimed3M;\n        bool claimed6M;\n        bool claimed9M;\n    }\n\n    mapping (address => HODL) public hodlerStakes;\n\n    // total current staking value and hodler addresses\n    uint256 public hodlerTotalValue;\n    uint256 public hodlerTotalCount;\n\n    // store dates and total stake values for 3 - 6 - 9 months after normal sale\n    uint256 public hodlerTotalValue3M;\n    uint256 public hodlerTotalValue6M;\n    uint256 public hodlerTotalValue9M;\n    uint256 public hodlerTimeStart;\n    uint256 public hodlerTime3M;\n    uint256 public hodlerTime6M;\n    uint256 public hodlerTime9M;\n\n    // reward HEAL token amount\n    uint256 public TOKEN_HODL_3M;\n    uint256 public TOKEN_HODL_6M;\n    uint256 public TOKEN_HODL_9M;\n\n    // total amount of tokens claimed so far\n    uint256 public claimedTokens;\n\n    \n    event LogHodlSetStake(address indexed _setter, address indexed _beneficiary, uint256 _value);\n    event LogHodlClaimed(address indexed _setter, address indexed _beneficiary, uint256 _value);\n    event LogHodlStartSet(address indexed _setter, uint256 _time);\n\n\n    /// @dev Only before hodl is started\n    modifier beforeHodlStart() {\n        if (hodlerTimeStart == 0 || now <= hodlerTimeStart)\n            _;\n    }\n\n    /// @dev Contructor, it should be created by a TokenController\n    function Hodler(uint256 _stake3m, uint256 _stake6m, uint256 _stake9m) {\n        TOKEN_HODL_3M = _stake3m;\n        TOKEN_HODL_6M = _stake6m;\n        TOKEN_HODL_9M = _stake9m;\n    }\n\n    /// @notice Adding hodler stake to an account\n    /// @dev Only owner contract can call it and before hodling period starts\n    /// @param _beneficiary Recepient address of hodler stake\n    /// @param _stake Amount of additional hodler stake\n    function addHodlerStake(address _beneficiary, uint256 _stake) public onlyOwner beforeHodlStart {\n        // real change and valid _beneficiary is needed\n        if (_stake == 0 || _beneficiary == address(0))\n            return;\n        \n        // add stake and maintain count\n        if (hodlerStakes[_beneficiary].stake == 0)\n            hodlerTotalCount = hodlerTotalCount.add(1);\n\n        hodlerStakes[_beneficiary].stake = hodlerStakes[_beneficiary].stake.add(_stake);\n\n        hodlerTotalValue = hodlerTotalValue.add(_stake);\n\n        LogHodlSetStake(msg.sender, _beneficiary, hodlerStakes[_beneficiary].stake);\n    }\n\n    /// @notice Setting hodler stake of an account\n    /// @dev Only owner contract can call it and before hodling period starts\n    /// @param _beneficiary Recepient address of hodler stake\n    /// @param _stake Amount to set the hodler stake\n    function setHodlerStake(address _beneficiary, uint256 _stake) public onlyOwner beforeHodlStart {\n        // real change and valid _beneficiary is needed\n        if (hodlerStakes[_beneficiary].stake == _stake || _beneficiary == address(0))\n            return;\n        \n        // add stake and maintain count\n        if (hodlerStakes[_beneficiary].stake == 0 && _stake > 0) {\n            hodlerTotalCount = hodlerTotalCount.add(1);\n        } else if (hodlerStakes[_beneficiary].stake > 0 && _stake == 0) {\n            hodlerTotalCount = hodlerTotalCount.sub(1);\n        }\n\n        uint256 _diff = _stake > hodlerStakes[_beneficiary].stake ? _stake.sub(hodlerStakes[_beneficiary].stake) : hodlerStakes[_beneficiary].stake.sub(_stake);\n        if (_stake > hodlerStakes[_beneficiary].stake) {\n            hodlerTotalValue = hodlerTotalValue.add(_diff);\n        } else {\n            hodlerTotalValue = hodlerTotalValue.sub(_diff);\n        }\n        hodlerStakes[_beneficiary].stake = _stake;\n\n        LogHodlSetStake(msg.sender, _beneficiary, _stake);\n    }\n\n    /// @notice Setting hodler start period.\n    /// @param _time The time when hodler reward starts counting\n    function setHodlerTime(uint256 _time) public onlyOwner beforeHodlStart {\n        require(_time >= now);\n\n        hodlerTimeStart = _time;\n        hodlerTime3M = _time.add(90 days);\n        hodlerTime6M = _time.add(180 days);\n        hodlerTime9M = _time.add(270 days);\n\n        LogHodlStartSet(msg.sender, _time);\n    }\n\n    /// @notice Invalidates hodler account \n    /// @dev Gets called by EthealController#onTransfer before every transaction\n    function invalidate(address _account) public onlyOwner {\n        if (hodlerStakes[_account].stake > 0 && !hodlerStakes[_account].invalid) {\n            hodlerStakes[_account].invalid = true;\n            hodlerTotalValue = hodlerTotalValue.sub(hodlerStakes[_account].stake);\n            hodlerTotalCount = hodlerTotalCount.sub(1);\n        }\n\n        // update hodl total values \"automatically\" - whenever someone sends funds thus\n        updateAndGetHodlTotalValue();\n    }\n\n    /// @notice Claiming HODL reward for msg.sender\n    function claimHodlReward() public {\n        claimHodlRewardFor(msg.sender);\n    }\n\n    /// @notice Claiming HODL reward for an address\n    function claimHodlRewardFor(address _beneficiary) public {\n        // only when the address has a valid stake\n        require(hodlerStakes[_beneficiary].stake > 0 && !hodlerStakes[_beneficiary].invalid);\n\n        uint256 _stake = 0;\n        \n        // update hodl total values\n        updateAndGetHodlTotalValue();\n\n        // claim hodl if not claimed\n        if (!hodlerStakes[_beneficiary].claimed3M && now >= hodlerTime3M) {\n            _stake = _stake.add(hodlerStakes[_beneficiary].stake.mul(TOKEN_HODL_3M).div(hodlerTotalValue3M));\n            hodlerStakes[_beneficiary].claimed3M = true;\n        }\n        if (!hodlerStakes[_beneficiary].claimed6M && now >= hodlerTime6M) {\n            _stake = _stake.add(hodlerStakes[_beneficiary].stake.mul(TOKEN_HODL_6M).div(hodlerTotalValue6M));\n            hodlerStakes[_beneficiary].claimed6M = true;\n        }\n        if (!hodlerStakes[_beneficiary].claimed9M && now >= hodlerTime9M) {\n            _stake = _stake.add(hodlerStakes[_beneficiary].stake.mul(TOKEN_HODL_9M).div(hodlerTotalValue9M));\n            hodlerStakes[_beneficiary].claimed9M = true;\n        }\n\n        if (_stake > 0) {\n            // increasing claimed tokens\n            claimedTokens = claimedTokens.add(_stake);\n\n            // transferring tokens\n            require(TokenController(owner).ethealToken().transfer(_beneficiary, _stake));\n\n            // log\n            LogHodlClaimed(msg.sender, _beneficiary, _stake);\n        }\n    }\n\n    /// @notice claimHodlRewardFor() for multiple addresses\n    /// @dev Anyone can call this function and distribute hodl rewards\n    /// @param _beneficiaries Array of addresses for which we want to claim hodl rewards\n    function claimHodlRewardsFor(address[] _beneficiaries) external {\n        for (uint256 i = 0; i < _beneficiaries.length; i++)\n            claimHodlRewardFor(_beneficiaries[i]);\n    }\n\n    /// @notice Setting 3 - 6 - 9 months total staking hodl value if time is come\n    function updateAndGetHodlTotalValue() public returns (uint) {\n        if (now >= hodlerTime3M && hodlerTotalValue3M == 0) {\n            hodlerTotalValue3M = hodlerTotalValue;\n        }\n\n        if (now >= hodlerTime6M && hodlerTotalValue6M == 0) {\n            hodlerTotalValue6M = hodlerTotalValue;\n        }\n\n        if (now >= hodlerTime9M && hodlerTotalValue9M == 0) {\n            hodlerTotalValue9M = hodlerTotalValue;\n\n            // since we can transfer more tokens to this contract, make it possible to retain more than the predefined limit\n            TOKEN_HODL_9M = TokenController(owner).ethealToken().balanceOf(this).sub(TOKEN_HODL_3M).sub(TOKEN_HODL_6M).add(claimedTokens);\n        }\n\n        return hodlerTotalValue;\n    }\n}",
  "sourcePath": "/Users/tikonoff/projects/etheal-contracts/contracts/Hodler.sol",
  "compiler": {
    "name": "solc",
    "version": "0.4.19+commit.c4cbbb05.Emscripten.clang"
  },
  "schemaVersion": "1.0.1",
  "updatedAt": "2018-03-21T21:44:27.597Z"
}