{
  "contractName": "Pausable",
  "abi": [
    {
      "constant": true,
      "inputs": [],
      "name": "paused",
      "outputs": [
        {
          "name": "",
          "type": "bool"
        }
      ],
      "payable": false,
      "stateMutability": "view",
      "type": "function"
    },
    {
      "constant": true,
      "inputs": [],
      "name": "owner",
      "outputs": [
        {
          "name": "",
          "type": "address"
        }
      ],
      "payable": false,
      "stateMutability": "view",
      "type": "function"
    },
    {
      "constant": false,
      "inputs": [
        {
          "name": "newOwner",
          "type": "address"
        }
      ],
      "name": "transferOwnership",
      "outputs": [],
      "payable": false,
      "stateMutability": "nonpayable",
      "type": "function"
    },
    {
      "anonymous": false,
      "inputs": [],
      "name": "Pause",
      "type": "event"
    },
    {
      "anonymous": false,
      "inputs": [],
      "name": "Unpause",
      "type": "event"
    },
    {
      "anonymous": false,
      "inputs": [
        {
          "indexed": true,
          "name": "previousOwner",
          "type": "address"
        },
        {
          "indexed": true,
          "name": "newOwner",
          "type": "address"
        }
      ],
      "name": "OwnershipTransferred",
      "type": "event"
    },
    {
      "constant": false,
      "inputs": [],
      "name": "pause",
      "outputs": [],
      "payable": false,
      "stateMutability": "nonpayable",
      "type": "function"
    },
    {
      "constant": false,
      "inputs": [],
      "name": "unpause",
      "outputs": [],
      "payable": false,
      "stateMutability": "nonpayable",
      "type": "function"
    }
  ],
  "bytecode": "0x606060405260008054600160a060020a033316600160a860020a03199091161790556102f7806100306000396000f30060606040526004361061006c5763ffffffff7c01000000000000000000000000000000000000000000000000000000006000350416633f4ba83a81146100715780635c975abb146100865780638456cb59146100ad5780638da5cb5b146100c0578063f2fde38b146100ef575b600080fd5b341561007c57600080fd5b61008461010e565b005b341561009157600080fd5b61009961018d565b604051901515815260200160405180910390f35b34156100b857600080fd5b61008461019d565b34156100cb57600080fd5b6100d3610221565b604051600160a060020a03909116815260200160405180910390f35b34156100fa57600080fd5b610084600160a060020a0360043516610230565b60005433600160a060020a0390811691161461012957600080fd5b60005460a060020a900460ff16151561014157600080fd5b6000805474ff0000000000000000000000000000000000000000191690557f7805862f689e2f13df9f062ff482ad3ad112aca9e0847911ed832e158c525b3360405160405180910390a1565b60005460a060020a900460ff1681565b60005433600160a060020a039081169116146101b857600080fd5b60005460a060020a900460ff16156101cf57600080fd5b6000805474ff0000000000000000000000000000000000000000191660a060020a1790557f6985a02210a168e66602d3235cb6db0e70f92b3ba4d376a33c0f3d9434bff62560405160405180910390a1565b600054600160a060020a031681565b60005433600160a060020a0390811691161461024b57600080fd5b600160a060020a038116151561026057600080fd5b600054600160a060020a0380831691167f8be0079c531659141344cd1fd0a4f28419497f9722a3daafe3b4186f6b6457e060405160405180910390a36000805473ffffffffffffffffffffffffffffffffffffffff1916600160a060020a03929092169190911790555600a165627a7a723058200b0db9fa6d878616186d9bb92ee3b6549a6262cdcffa928aff4b65fb4c724e0b0029",
  "source": "pragma solidity ^0.4.17;\n\n\nimport \"./Ownable.sol\";\n\n\n/**\n * @title Pausable\n * @dev Base contract which allows children to implement an emergency stop mechanism.\n */\ncontract Pausable is Ownable {\n  event Pause();\n  event Unpause();\n\n  bool public paused = false;\n\n\n  /**\n   * @dev Modifier to make a function callable only when the contract is not paused.\n   */\n  modifier whenNotPaused() {\n    require(!paused);\n    _;\n  }\n\n  /**\n   * @dev Modifier to make a function callable only when the contract is paused.\n   */\n  modifier whenPaused() {\n    require(paused);\n    _;\n  }\n\n  /**\n   * @dev called by the owner to pause, triggers stopped state\n   */\n  function pause() onlyOwner whenNotPaused public {\n    paused = true;\n    Pause();\n  }\n\n  /**\n   * @dev called by the owner to unpause, returns to normal state\n   */\n  function unpause() onlyOwner whenPaused public {\n    paused = false;\n    Unpause();\n  }\n}",
  "sourcePath": "/Users/tikonoff/projects/etheal-contracts/contracts/Pausable.sol",
  "compiler": {
    "name": "solc",
    "version": "0.4.19+commit.c4cbbb05.Emscripten.clang"
  },
  "schemaVersion": "1.0.1",
  "updatedAt": "2018-03-21T21:44:27.697Z"
}